:100000000C9427050C9444050C9444050C94440569
:100010000C9444050C9444050C9444050C9444053C
:100020000C9444050C9444050C94C5190C94811946
:100030000C9416290C9444050C9444050C94440526
:100040000C9444050C9444050C9444050C9444050C
:100050000C9444050C949C1A0C9444050C9444058F
:100060000C9444050C9444050C9444050C944405EC
:100070000C9444050C9444050C9444050C944405DC
:100080000C9444050C9444050C9444050C944405CC
:100090000C9444050C9444050C9444050C944405BC
:1000A0000C9444050C9444050C9444050000000095
:1000B0000000000000000000000000000000000040
:1000C0000000000000000000000000000000000030
:1000D0000000000000000000000000000000000020
:1000E0000000000000000000000000000000000010
:1000F0000000000000000000000000000000000000
:1001000000000000000000000000000000000000EF
:1001100000000000000000000000000000000000DF
:1001200000000000000000000000000000000000CF
:1001300000000000000000000000000000FFFF00C1
:10014000FFFF00FFFF00FFFF00FFFF00FFFF00FFBA
:10015000FF00FFFF00FFFF00FFFF00FFFF00FFFFAA
:1001600000FFFF00FFFF00FFFF00FFFF00FFFF0099
:10017000FFFF00FFFF00FFFF00FFFF00FFFF00FF8A
:10018000FF00FFFF00FFFF00FFFF00FFFF00FFFF7A
:1001900000FFFF00FFFF00FFFF00FFFF00FFFF0069
:1001A000FFFF00FFFF00FFFF00FFFF00FFFF00FF5A
:1001B000FF00FFFF00FFFF00FFFF00FFFF00FFFF4A
:1001C00000FFFF00FFFF00FFFF00FFFF56FFFF568D
:1001D000FFFF56FFFF56FFFF56FFFF56FFFF56FF7C
:1001E000FF56FFFF56FFFF56FFFF56FFFF56FFFF6C
:1001F00056FFFF56FFFF56FFFF56FFFF56FFFF5605
:10020000FFFF56FFFF56FFFF56FFFF56FFFF56FF4B
:10021000FF56FFFF56FFFF56FFFF56FFFF56FFFF3B
:1002200056FFFF56FFFF56FFFF56FFFF56FFFF56D4
:10023000FFFF56FFFF56FFFF56FFFF56FFFF56FF1B
:10024000FF56FFFF56FFFF56FFFF56FFFF56FFFF0B
:1002500056FFFF56FFFF56FFFF56FFFFACFFFFACF8
:10026000FFFFACFFFFACFFFFACFFFFACFFFFACFF3D
:10027000FFACFFFFACFFFFACFFFFACFFFFACFFFF2D
:10028000ACFFFFACFFFFACFFFFACFFFFACFFFFAC70
:10029000FFFFACFFFFACFFFFACFFFFACFFFFACFF0D
:1002A000FFACFFFFACFFFFACFFFFACFFFFACFFFFFD
:1002B000ACFFFFACFFFFACFFFFACFFFFACFFFFAC40
:1002C000FFFFACFFFFACFFFFACFFFFACFFFFACFFDD
:1002D000FFACFFFFACFFFFACFFFFACFFFFACFFFFCD
:1002E000ACFFFFACFFFFACFFFFACFFFFD7FFFFD7BA
:1002F000FFFFD7FFFFD7FFFFD7FFFFD7FFFFD7FFD6
:10030000FFD7FFFFD7FFFFD7FFFFD7FFFFD7FFFFC5
:10031000D7FFFFD7FFFFD7FFFFD7FFFFD7FFFFD7DD
:10032000FFFFD7FFFFD7FFFFD7FFFFD7FFFFD7FFA5
:10033000FFD7FFFFD7FFFFD7FFFFD7FFFFD7FFFF95
:10034000D7FFFFD7FFFFD7FFFFD7FFFFD7FFFFD7AD
:10035000FFFFD7FFFFD7FFFFD7FFFFD7FFFFD7FF75
:10036000FFD7FFFFD7FFFFD7FFFFD7FFFFD7FFFF65
:10037000D7FFFFD7FFFFD7FFFFD7FFFF7BFCF37B44
:10038000FCF37BFCF37BFCF37BFCF37BFCF37BFC5F
:10039000F37BFCF37BFCF37BFCF37BFCF37BFCF358
:1003A0007BFCF37BFCF37BFCF37BFCF37BFCF37BC0
:1003B000FCF37BFCF37BFCF37BFCF37BFCF37BFC2F
:1003C000F37BFCF37BFCF37BFCF37BFCF37BFCF328
:1003D0007BFCF37BFCF37BFCF37BFCF37BFCF37B90
:1003E000FCF37BFCF37BFCF37BFCF37BFCF37BFCFF
:1003F000F37BFCF37BFCF37BFCF37BFCF37BFCF3F8
:100400007BFCF37BFCF37BFCF37BFCF30001010141
:1004100001010101010102020202020202020203C1
:100420000303030303030304040404040404050591
:100430000505050606060606070707070708080854
:1004400008090909090A0A0A0B0B0B0C0C0C0D0D03
:100450000D0E0E0E0F0F0F1010111111121213139B
:100460001414151516161717181819191A1A1B1B14
:100470001C1D1D1E1E1F2020212222232424252670
:1004800026272829292A2B2C2D2D2E2F30313232A8
:10049000333435363738393A3B3C3D3E3F404142B4
:1004A000434445464748494A4C4D4E4F505153549A
:1004B000555658595A5B5D5E5F616264656668694E
:1004C0006B6C6D6F7072737577787A7B7D7E8082CE
:1004D000838587888A8C8E8F91939596989A9C9E17
:1004E000A0A2A3A5A7A9ABADAFB1B3B5B7BABCBE27
:1004F000C0C2C4C6C9CBCDCFD1D4D6D8DBDDDFE2F4
:10050000E4E7E9EBEEF0F3F5F8FAFDFF35002B0038
:100510003100E100000F00001E0034000400330031
:1005200031004E001F00360012001400E0004C00A5
:100530002000370008000D00E2002A00210013000F
:1005400018000E00E3004B0022001C000C001B00F2
:1005500000004A0029002F000000015100004D005A
:1005600002533000000001510000A90023000900DF
:10057000070005000000AE0024000A000B00100078
:100580005000AA002500060017001A0051002C0098
:1005900026001500110019005200280027000F0046
:1005A00016001D004F00A8002E0038002D00E500A9
:1005B000000F0000460001000100010001000000E2
:1005C0003A00010001000100010001003B000100B0
:1005D000010001000100CA5C3C0001000100E100D3
:1005E0000100CB5C3D0001000100E20001000100C0
:1005F0003E0001000100E3000000C45C0353010061
:10060000000001000000C35C0100010000000100C7
:1006100000006A003F0001000100010000002C5DA5
:10062000400001005000010001006900410052003B
:10063000510001000100C65C420001004F000100B2
:100640000100C75C4300010001000100010001003E
:10065000440045000100010001000000005C0100B1
:100660000100010001000000010001000100010083
:100670000100010001000100010001000100010072
:100680000100010001000100010001000100010062
:100690000100010001000100010001000100010052
:1006A0000000010001000100000001000000010045
:1006B0000100010000000100000001000100010034
:1006C000010001000000010001005F005C00590012
:1006D00062000100540060005D005A0062000100E9
:1006E000550061005E005B00630001002A005600B7
:1006F00057005800580001000100010001000100EE
:100700000553000001000100010001000451000038
:100710001E00140004001D00010001001F001A004B
:1007200016001B0001000100200008000700060061
:10073000010001002100150009001900010001005D
:10074000220017000A00050000000100010001005E
:100750000000010000000100010001000000010094
:100760000000010023001C000B001100000001002C
:10077000240018000D0010000100010025000C00ED
:100780000E00360001000100260012000F003700A5
:1007900001000100270013003300380001000100B0
:1007A0002E0001002D0001000100000046000100A4
:1007B00001000100010000003A00010001000100F9
:1007C000010001003B0001000100010001000100E7
:1007D0003C00010001000100010001003D0001009A
:1007E00001000100010001003E00010001000100C4
:1007F00000000100010001000000010000000100F4
:100800000100010000000100000001003F000100A4
:100810000100010000000100400001000100010092
:100820000100010041000100010001000100010080
:10083000420001000100010001000100430001002D
:100840000100010001000100440045000100010019
:100850000100000001002B000100E100E1010000A7
:100860001E00140004001D00010001001F001A00FA
:1008700016001B0001000100200008000700060010
:10088000010001002100150009001900010001000C
:10089000220017000A00050000000100290057008F
:1008A00000005600000001000100010000000100EE
:1008B0000000010001000100010001000000010032
:1008C0000100010001000100010001000100010020
:1008D0000100010001000100010001000100010010
:1008E0000100010001000100010001000100010000
:1008F0000100010001000100010000000501098064
:10090000A101850319012AB700150126B700950139
:1009100075108100C0050C0901A101850419012A87
:10092000A002150126A002950175108100C00501E5
:100930000906A1018505050719E029E7150025012C
:100940009508750181020507190029EF1500250199
:1009500095F07501810205081901290595057501B4
:100960009102950175039101C005010906A10105D8
:100970000719E029E7150025019508750181029501
:1009800001750881010507190029FF150026FF00E0
:100990009506750881000508190129059505750159
:1009A0009102950175039101C009023B000201000B
:1009B000A0FA09040000010301010009211101004E
:1009C000012240000705810308000A090401000113
:1009D00003000000092111010001226D00070582BA
:1009E0000320000A12010002000000089732764935
:1009F00001000102000120034500720067006F0042
:100A000044006F007800200045005A002000470095
:100A10006C006F007700000030035A005300410063
:100A2000200054006500630068006E006F006C00D9
:100A30006F006700790020004C00610062007300C5
:100A4000200049006E006300000004030904112423
:100A50001FBECFEFDAE0DEBFCDBF25E0AEEFB2E0E4
:100A600001C01D92A138B207E1F712E0A0E0B1E0A9
:100A7000E6E0FDE502C005900D92AE3FB107D9F763
:100A80000E944A270C94292E0C940000E8EDF0E017
:100A900080818E7F80831092E2001092DA001092A3
:100AA000E100A0EEB0E08C9181608C9380818F7723
:100AB000808319BCA7EDB0E08C918E7F8C938081F0
:100AC0008F7E808310923E0508952091E40030913E
:100AD000E50095E6A9012091EC00822F817020FFAE
:100AE00006C08091E80080FF06C080E00895209154
:100AF000E80022FD1AC080916305882389F08530C3
:100B000089F08091EB0085FD0FC02091E4003091C9
:100B1000E50042175307F9F29150E1F684E0089599
:100B200082E0089583E0089581E00895EF92FF92B6
:100B30000F931F93CF937C018B010E946505C82FF3
:100B4000811117C08091E80085FD0BC08091E800FD
:100B50008E778093E8000E946505882399F3C82F5B
:100B600008C0F70181917F018093F10001501109C4
:100B700049F78C2FCF911F910F91FF90EF9008951F
:100B80008091650587FF13C08091E80082FF06C051
:100B90008091E8008B778093E80004C08091630522
:100BA0008111F2CF0895809163058823D9F3809154
:100BB000E80080FFF8CF8091E8008E77ECCF982F87
:100BC0009093E900242F762F50E0891731F070912F
:100BD000EC002091ED005091F00021FD07C09F5FD7
:100BE000973071F78093E90081E008953091EB0030
:100BF0003E7F3093EB003091ED003D7F3093ED0070
:100C00003091EB0031603093EB007093EC00209357
:100C1000ED005093F0002091EE0027FDE0CF80E042
:100C20000895CF92DF92EF92FF920F931F93CF938D
:100C3000DF93C8EDD0E088818F7E8883E7EDF0E018
:100C400080818160808384E082BF81E080933E0563
:100C500088818E7F888302EE10E0F8011082109266
:100C6000DA0081EEC82ED12CF601108288818F77B0
:100C7000888388818068888388818F7D888319BC78
:100C8000109263051092640510926205109261053E
:100C900090EEE92EF12CF70180818B7F8083888193
:100CA0008160888342E060E080E00E94DF05F60119
:100CB00080818E7F8083F801808181608083808144
:100CC00088608083F70180818E7F80838881806146
:100CD0008883DF91CF911F910F91FF90EF90DF906C
:100CE000CF900895FC0180916B0590916C0586175B
:100CF0009707A0F06115710529F49091E8009E779F
:100D00009093E80090E06115710551F4911108C0CD
:100D10008091E80082FF34C080E00895BC01F2CFEA
:100D2000809163058823C1F18530C1F18091E8008D
:100D300083FD30C08091E80082FDEACF8091E80019
:100D400080FFE1CF8091F3002091F200382F6115F0
:100D5000710519F02830310558F091E0283031053F
:100D600009F090E02091E8002E772093E800CBCFA7
:100D700081918093F100615071092F5F3F4FE7CF60
:100D800080916305882341F0853041F08091E8002F
:100D900083FFBECF81E0089582E0089583E0089547
:100DA0000895809140050895209118012223C9F0EB
:100DB00020911A0527FF15C0E62FE695E695E695E2
:100DC000EE31D8F4E80FF92FF11D677021E030E023
:100DD00001C0220F6A95EAF7209582812823228399
:100DE0000895FC01329608962191621303C0DF0139
:100DF00011971C92E817F907B9F708952091180187
:100E00002223C1F020911A0527FF14C0E62FE69592
:100E1000E695E695EE31F8F4E80FF92FF11D6770CD
:100E200021E030E001C0220F6A95EAF78281822B2F
:100E300082830895FC0132962FEF30E041916417D0
:100E400051F02F3F19F4411101C0232F3F5F36307D
:100E5000A9F72F3F09F40895820F911D27FD9A9558
:100E6000FC0162830895CF92DF92EF92FF926C01B2
:100E7000EE24FF2420E0C114D104E104F10419F0B0
:100E8000C701B60120E1C72ED82EE92EFF24C114D8
:100E9000D104E104F10419F0285FC701B6016B0128
:100EA0007C0154E0F694E794D794C7945A95D1F70F
:100EB000C114D104E104F10419F02C5FC701B6019B
:100EC0006B017C0142E0F694E794D794C7944A956D
:100ED000D1F7C114D104E104F10419F02E5FC70168
:100EE000B6019695879577956795672B682B692B43
:100EF00009F02F5F822FFF90EF90DF90CF90089541
:100F00008091FD0481111092FD0408958091FC04EC
:100F10009091FB04892B9091FA04892B8093FE0217
:100F20009091FD049923A1F0892B8093FE0280917A
:100F30001801882341F180911A0587FF24C08EE1B2
:100F4000E0E0F3E090E0815000F591110E9480070D
:100F5000E0911C05F0911D053097E1F0809118019A
:100F6000882359F080911A0587FF07C08091FE02FF
:100F70008093FF0285E08093FE020280F381E02DE2
:100F80008EEF92E0099486E0DBCF21912223D9F203
:100F90009F5FD9CF0895E92FEE0FE90FEE0F8E0F67
:100FA000982F977086958695869525E0829FF0010B
:100FB0001124EE53FB4F50E040E080E0219130E0FF
:100FC000092E02C0369527950A94E2F7217033273F
:100FD000042E01C0220F0A94EAF7822B4F5F5F4F65
:100FE0004530510559F70895E92FEE0FE90FEE0F3F
:100FF0008E0F982F977041E001C0440F9A95EAF741
:1010000086958695869595E0899FF0011124EE538B
:10101000FB4F30E020E070E05191DF011197CB01F0
:10102000022E02C0969587950A94E2F78170819509
:101030008527842385278C932F5F3F4F25303105EB
:1010400059F708958091C10490919004981301C0BC
:1010500008958F5F8770FACF882341F08095909133
:10106000FC0489238093FC040C948607089588234C
:1010700039F09091FC04982B9093FC040C94860713
:10108000089520918704309188042817390771F05A
:101090009093880480938704E0911C05F0911D05CE
:1010A000309721F00084F185E02D09940895209176
:1010B0008504309186042817390771F090938604CF
:1010C00080938504E0911C05F0911D05309721F077
:1010D0000680F781E02D099408951092FB04109288
:1010E000FA040E94860790E080E00E94570890E092
:1010F00080E00C9441086093FE047093FF04809399
:101100000005909301050C946D08882379F19CEFFC
:10111000980F913A38F4682F8EEF92E00E94D4062F
:101120000C94860790E2980F983088F4877021E03D
:1011300030E0A90102C0440F551F8A95E2F7CA01A9
:1011400080959091FC0489238093FC04E9CF9BE572
:10115000980F933020F490E080E00C945708885A60
:10116000873120F490E080E00C9441080895CF93FB
:10117000C82F882309F467C08CEF8C0F813AC0F523
:1011800080911801882311F180911A0587FF1EC0F4
:10119000EC2FE695E695E695F0E0E250FD4F828172
:1011A00090E04C2F477021E030E002C0220F331F47
:1011B0004A95E2F782239323892B91F06C2F8EEFCF
:1011C00092E00E94D4060E9486070AC0E0E0F3E0A5
:1011D00086E093E02191C21789F38E179F07D1F71C
:1011E0006C2F8EEF92E00E94FE06CF910C94860742
:1011F00080E28C0F883068F4C77021E030E001C0D5
:10120000220FCA95EAF78091FC04822B8093FC049C
:10121000ECCFEBE5EC0FE33040F4F0E0E851FE4FAB
:10122000808190E0CF910C945708C85AC73158F488
:10123000EC2FF0E0EE0FFF1FE551FE4F8081918112
:10124000CF910C944108CF910895E0911C05F09145
:101250001D05309721F00190F081E02D099480E088
:101260000895FA01811101C0FB01099480339105B1
:1012700038F5880F991F880F991FFC01E85DFE4F14
:101280005281338180818370E181A82FB0E070E9C1
:10129000879FC0011124815C9C4FE80FF92FF11D3D
:1012A000B4976083FC01E50FF11DB4974083830F71
:1012B000911DFC01B4972083A35CBC4F81E08C930B
:1012C0000895FF920F931F93CF93DF93182F062F4C
:1012D000F42ED0E0C0E02F2D402F612FCE010E94D0
:1012E00036092196C033D105B1F7DF91CF911F9117
:1012F0000F91FF90089580917805837011F41092FA
:101300001C01809178058C7F816080937805089519
:101310000C9461090C9436090F931F9310E0F801A7
:10132000EE0FFF1FE359FD4F9081905797FD919568
:10133000000F111FF801E259FD4F00810052110BFF
:101340002003F001219FF00D112408E310E0091B98
:10135000110997FD139540039001419F300D112411
:10136000E20FF31F9F01220F331F2E0F3F1F37FF86
:1013700002C021583F4F220F232F221F330B620F31
:101380001F910F9108950F931F93522F10E0F801B2
:10139000EE0FFF1FE259FD4FA081A052BB0B9D0134
:1013A0005203F001539FF00D1124000F111FD801BB
:1013B000A359BD4F0C910057110B40039001419F61
:1013C000300D11242E0F3F1F37FF02C0215C3F4F0D
:1013D00096E0359527959A95E1F7620F1F910F9149
:1013E00008950F931F93522F10E0F801EE0FFF1F87
:1013F000E259FD4FA081A052BB0B9D015203F001A9
:10140000539FF00D1124000F111FD801A359BD4F98
:101410000C910057110B40039001419F300D112496
:101420002E0F3F1F37FF02C021583F4F220F232F9F
:10143000221F330B620F1F910F910895EF920F93AC
:10144000972F23E0029FB0011124759567956E0DCB
:10145000792F0F91EF900895322F50E0FA01EE0F9F
:10146000FF1FE259FD4F9081905297FD9195440FD7
:10147000551FFA01E359FD4F2081231B330B290F20
:10148000311D97FD3A95620F0895E42FF0E0EE0FBD
:10149000FF1FE259FD4F6081621B0895E42FF0E0C9
:1014A000EE0FFF1FE359FD4F6081621B0895622F0D
:1014B0000895E42FF0E0EE0FFF1FE359FD4F408148
:1014C00034EE439F412D1124E82FF0E050E0445EBC
:1014D0005F4FDA01A21BB1099D01B7FF03C031952F
:1014E0002195310993E0220F331F9A95E1F7AF015F
:1014F000421B530B9A0157FD20E0582F259F212DA9
:101500001124822F0895E42FF0E0EE0FFF1FE3591E
:10151000FD4F408134EE439F412D1124E72FF0E031
:1015200050E0445E5F4FDA01A21BB1099D01B7FF95
:1015300003C031952195310993E0220F331F9A950D
:10154000E1F7AF01421B530B9A0157FD20E0279FA3
:10155000212D1124722F0895FC019B01009729F47D
:1015600080E077FF2BC080E80895AC0197FF04C0AE
:1015700044275527481B590BB901640F751F37FDC8
:1015800010C0241B350BC901A5E0880F991FAA952F
:10159000E1F70E94312A80E2861BF7FF0FC0819598
:1015A0000895CB0165E0880F991F6A95E1F7BA01AC
:1015B000621B730B0E94312A80E6EECF0895EF92F2
:1015C0000F93CF93DF93D72FC82FC9010E19BA01FC
:1015D0000E94AC0A602F681B7D2F8C2FDF91CF916A
:1015E0000F91EF9008950F93CF93DF93D72FC82FCC
:1015F000C901BA010E94AC0A682F600F7D2F8C2FA1
:10160000DF91CF910F910895EF920F931F93CF9396
:10161000DF93D62FC72F182FC9010E19010FBA015A
:101620000E94AC0A081B202F219F212D1124822FFC
:101630006D2F7C2FDF91CF911F910F91EF90089527
:10164000EF920F931F93CF93DF93D62F172FC82FAF
:10165000C9010E19070FBA010E94AC0A702F781B3E
:10166000719F712D11246D2F8C2FDF91CF911F91C0
:101670000F91EF9008950F931F93CF93DF93D62F81
:10168000C72F182FC901212F201B022FBA010E943A
:10169000AC0A982F990F990F891B800F282F219F33
:1016A000212D1124822F6D2F7C2FDF91CF911F913F
:1016B0000F9108950F931F93CF93DF93D62F172F7A
:1016C000C82FC901272F201B022FBA010E94AC0A84
:1016D000982F990F990F782F791B700F719F712D8B
:1016E00011246D2F8C2FDF91CF911F910F910895B1
:1016F000E82F86FDE0952E2F2F7086FD2F5FE69553
:10170000E695E695E670F0E0E05EFE4F9181929FEF
:10171000902D212D112492959F702295207F922B40
:101720002081920F87FD919580E8890F0895AC0183
:101730008230910508F408959FEF413E8EE15807ED
:1017400040F49A0195E0369527959A95E1F798E04F
:10175000920F61E0E62FE90FFF27FF1F9F013595EC
:101760002795822F229FF001239FF00DF00D112469
:101770004E175F0738F49FEF920F961758F78FEFC9
:10178000860F08952F3FE9F361E0620FF6CF0F93C4
:10179000CF93DF93D72FC82F47FD419588E390E083
:1017A000841B910947FD9395889FB001899F700D17
:1017B000700D1124229FC001239F900D900D1124C4
:1017C000860F971F0E94970B982F990F890F682FEC
:1017D000600F7D2F8C2FDF91CF910F91089530E016
:1017E00020E0869F212D969F200D311D1124C901D7
:1017F0000895AF92BF92CF92DF92FF920F931F9303
:10180000CF93DF93362F472FE82FF0E0E45FFB4FB5
:1018100071110FC0E4918E2F2E2F6E2F722FDF913A
:10182000CF911F910F91FF90DF90CF90BF90AF901D
:101830000895C72FD0E02491F22E022F10E056E039
:10184000659FC0011124EFEFF0E0BF010E941D2A47
:10185000832F90E0880F991F35E5369FD001379F81
:10186000B00D11248A1B9B0B982F990F980F6F01B5
:10187000CC1ADD0AC09ED001C19EB00DD09EB00D25
:1018800011248B2F499FA0011124452F55276F014B
:10189000C41AD50AC09EA001C19E500DD09E500D05
:1018A00011245F01A91AB108AC9E6001AD9ED00C55
:1018B000BC9ED00C1124CD2CDD24EC19FD09E09F39
:1018C000E001E19FD00DF09FD00D1124ED2F62308B
:1018D0007105A1F050F46115710509F49ECF6130D6
:1018E000710581F0EB2F852F98CF6430710569F079
:1018F00080F06630710509F490CFF4CFE22F2B2FE2
:101900008D2F8BCFE22F252F88CFEB2F822F2D2FDE
:1019100084CF2B2F8F2DE52F80CF9F92AF92BF9238
:10192000CF92DF92EF92FF920F931F93CF93DF93AB
:101930006C0180911901C82FCC0FCC0FC80F15E096
:101940001C0FB12E113310F030E3B32E60917C05E3
:101950006695669580917405909175050E94EF0BD0
:10196000F82E80E48F0D0E94780B90E8A92EA80E27
:101970008F2D0E94780B20E8922E980ED0E0CB1588
:1019800080F081E0103308F080E0DF91CF911F916B
:101990000F91FF90EF90DF90CF90BF90AF909F900E
:1019A0000895FE01E353FD4F808190911A01892330
:1019B000A1F06091790570917A0580917B05EF2CFB
:1019C0000C2F292D4A2DF60109950E94F90B462F5F
:1019D000282F672FCE010E948A092196D0CF7F92AF
:1019E0008F929F92AF92BF92CF92DF92EF92FF922F
:1019F0000F931F93CF93DF935C0180911901C82F40
:101A0000CC0FCC0FC80F15E01C0FF12E113310F0C6
:101A100030E3F32E60917C0566958091740590917A
:101A200075050E94EF0B782ED0E0CF1590F081E085
:101A3000103308F080E0DF91CF911F910F91FF905C
:101A4000EF90DF90CF90BF90AF909F908F907F905E
:101A50000895FE01E353FD4F808190911A0189237F
:101A6000C9F1CE01880F991F875E9D4FFC01EC5A8A
:101A7000FF4F2081422F4057550B6A018B5A9F4FD1
:101A8000FC018081282F2052330B4901449F900193
:101A9000459F300D300D1124889CC001899C900D0C
:101AA000900D1124820F931F0E94970B082F6091B5
:101AB000790570917A0580917B05E72C9401A60148
:101AC000F50109950E94F90B462F282F672FCE01AB
:101AD0000E948A092196A9CFCF92DF92EF92FF92BE
:101AE0000F931F93CF93DF937C0180911901C82F2F
:101AF000CC0FCC0FC80F15E01C0FD12E113310F0F6
:101B000030E3D32E60917C056695809174059091A9
:101B100075050E94EF0BC82ED0E0CD1568F081E06E
:101B2000103308F080E0DF91CF911F910F91FF906B
:101B3000EF90DF90CF900895FE01E353FD4F808139
:101B400090911A01892311F1CE01880F991F875EA8
:101B50009D4FFC01EB5AFF4F20812052330B8C5AD2
:101B60009F4FFC0140814057550B60917905709162
:101B70007A0580917B050C2DF70109950E94F90BE0
:101B8000462F282F672FCE010E948A092196C5CFA4
:101B9000DF92EF92FF920F931F93CF93DF937C011D
:101BA00080911901C82FCC0FCC0FC80F15E01C0F66
:101BB000012F113308F000E360917C05669566956E
:101BC00080917405909175050E94EF0BD82ED0E09E
:101BD000C01760F081E0103308F080E0DF91CF9112
:101BE0001F910F91FF90EF90DF900895FE01E35356
:101BF000FD4F808190911A01892391F060917905C0
:101C000070917A0580917B052D2D4C2FF701099558
:101C10000E94F90B462F282F672FCE010E948A09B8
:101C20002196D6CF90911A0592FF06C0282F2871D1
:101C30002830F9F4877F846093FF06C0282F28712D
:101C40002831F1F4877E846120911B0520FF06C0B6
:101C5000382F38713830D9F4877F816021FF06C072
:101C6000282F28712831D1F4877E816194FD877EE9
:101C70000895282F24712430F9F68B7F8860DCCFFB
:101C8000282F2471243101F78B7E8861DDCF382F16
:101C90003171313019F78E7F8860E0CF282F2171A4
:101CA000213121F78E7E8861E1CFCF93DF93972F8B
:101CB00070E026E0929F600D711D1124FB0134E558
:101CC000839FE00DF11D1124EE0FFF1FE45FFA4F1B
:101CD000C591D491CE01C238D105B9F1E8F5C1332F
:101CE000D10509F499C050F5C932D10509F48DC068
:101CF000CA32D10509F497C0C11542E5D40708F0EE
:101D0000B6C0C11521E5D20708F024C1C83ED105EF
:101D100008F09DC0C03ED10568F5C83AD10508F06D
:101D200089C0C53AD10508F0EDC0C130D10511F127
:101D3000209709F443C02497E8F440C0C533D10587
:101D400009F45CC0C933D105B9F620911A05237096
:101D500089F080EE90E00EC0C33ED10591F168F4A9
:101D6000C03ED105F9F0C23ED10531F620911A05E9
:101D700022FD20C0DF91CF910895C63ED10561F1CB
:101D8000C73ED10581F1C43ED10509F0B5CF209100
:101D90001B0521FFEFCF80911A0584FD0FC087EE50
:101DA00090E0E8CF20911A0520FD01C130911B057C
:101DB00030FFE0CF83EE90E024FFDCCF90E080E0C6
:101DC000D9CF20911A0522FDF5C030911B0530FDB9
:101DD000C0CF24FFCFCFF2CF20911A0523FFCACF67
:101DE00024FDECCFDCCF20911A0523FDE6C0309115
:101DF0001B0531FFEECF84EE90E0BCCF20911A0599
:101E000025FFB8CF89E290E0B5CF20911A0525FFD4
:101E1000B1CF85E390E0AECF20911A0526FFAACF7F
:101E20008AE290E0A7CF20911A0526FFA3CF81E395
:101E300090E0A0CFCF3BD10508F6C85AD0E0CC0F38
:101E4000DD1FC551DE4F88819981946493CFC11500
:101E500030E5D30708F062C0C11540E4D40708F0AC
:101E600059C0DA95C115DF4108F484CFA7CFC11559
:101E700036E5D30718F5C11545E5D40708F080C04D
:101E8000C11584E5D80708F076C09C2F96959695E5
:101E9000AE0143705527C115D34508F460C021E059
:101EA00030E002C0220F331F4A95E2F740E2949FD0
:101EB000C0011124822B932B9A685CCFC1153AE59F
:101EC000D30778F4C11549E5D40708F063C0C115FC
:101ED00088E5D80708F472CF9C2F8827806F906A16
:101EE00049CFCE0190568115904208F067CF8D2FD3
:101EF0008F710E94120E90E0982F882788279F717B
:101F00008C2B46C0C55AD0E0C851DE4F888190E086
:101F1000906430CFCE019F70906A2CCF9E01E4E098
:101F200036952795EA95E1F723708C2F869586954F
:101F3000837030E2839FC0011124922BC37021E093
:101F400030E002C0220F331FCA95E2F7822B932B99
:101F50009C6810CF9C2F8827816F906A0BCF21E05F
:101F600030E002C0220F331F4A95E2F740E2949F0F
:101F7000C0011124EBCF9C2F8827846F906AFACE82
:101F80008C2F0E94120E90E0982F882788279F712F
:101F90009062F0CE8C2F8F700E94120E34E0D69596
:101FA000C7953A95E1F7CF709C2F9069E3CE89E30E
:101FB00090E0E0CE82EE90E0DDCE86EE90E0DACEEC
:101FC000BF92CF92DF92EF92FF920F931F93CF9326
:101FD000DF938C01C0901605D0901705E09018058E
:101FE000F09019058091FE049091FF04A0910005E6
:101FF000B0910105C82AD92AEA2AFB2ACFE1D0E00C
:10200000BC2ED701C6010C2E04C0B695A795979596
:1020100087950A94D2F780FD0EC0219788F7B12CDE
:102020008B2DDF91CF911F910F91FF90EF90DF905B
:10203000CF90BF900895B8018C2F0E94550E019744
:1020400061F3EECFCF93DF93EC010E94E00FBE016E
:10205000DF91CF910C94550E0E942210292F2F70E2
:1020600092959F7092509E3078F4E92FF0E0E55DF4
:10207000F14D0C94452A803F19F020F4883E20F45D
:1020800081E00895843FE1F380E00895883EC0F345
:10209000813FD1F7F5CF822F869586958695089555
:1020A0009F92AF92BF92CF92DF92EF92FF920F93E7
:1020B0001F93CF93DF9320E9289FE001299FD00D44
:1020C0001124C455DF4F10E000E0FE016491319609
:1020D000749131968491962F972B982BC1F420E020
:1020E00040E060E0C8010E948A090F5F1F4F2396FD
:1020F0000033110551F7DF91CF911F910F91FF90A0
:10210000EF90DF90CF90BF90AF909F9008950E9486
:10211000F90B962EB72EA82E60917B0570E090E00B
:1021200080E00E942E2D20E030E04FE753E40E9433
:102130008D2C6B017C016A2D70E090E080E00E94A4
:10214000302DA70196010E94BC2D0E94FF2CA62EC7
:10215000692D70E090E080E00E94302DA70196018B
:102160000E94BC2D0E94FF2C962E6B2D70E090E0FB
:1021700080E00E94302DA70196010E94BC2D0E9494
:10218000FF2C2A2D492DAECF27982F9808952698F9
:102190002E98089525982D98089556985E9808953C
:1021A000279A2F9A0895269A2E9A0895259A2D9A5D
:1021B0000895CF92DF92EF92FF92CF936B017C0153
:1021C0000E943307C82F0E94CD100E94CA100E949F
:1021D000C7100E94C410C150C73040F4EC2FF0E08B
:1021E000E75CF14D0C94452A0E94D610C701B60158
:1021F000CF91FF90EF90DF90CF9008950E94D6107E
:102200000E94D310F3CF0E94D6100E94D010EECFC0
:102210000E94D6100E94D310F8CF0E94D91060936C
:1022200016057093170580931805909319050C9463
:102230006D080F931F9341E050E060E070E004C030
:10224000440F551F661F771F8A95D2F7CB01BA013D
:1022500060957095809590950091160510911705E1
:10226000209118053091190560237123822393234F
:102270001F910F910C940D119091F9048095892371
:102280008093F904282F277071F4282F082E000C52
:10229000330B9217130639F08595859585950E9425
:1022A00019111092F90408950F931F9341E050E023
:1022B00060E070E004C0440F551F661F771F8A95C9
:1022C000D2F78091160590911705A0911805B0914D
:1022D00019058A019B01082B192B2A2B3B2BC901BD
:1022E000B8011F910F910C940D11209828982198F6
:1022F000299822982A9823982B9852985A9853985C
:102300005B983E98469808958098889A8198899A13
:1023100084988C9A85988D9A86988E9A87988F9AA9
:102320000895CF93DF9300D00F92CDB7DEB7909191
:102330006305943019F589837B836A8382E08093F7
:10234000E9008FEF9091E800815095FD06C095ED72
:102350009A95F1F700008111F5CF8091E80085FF93
:102360000DC050E040E063E070E0CE0101960E94B5
:1023700096058091E8008E778093E8000F900F908B
:102380000F90DF91CF910895BC0184E00C949111DE
:10239000BC0183E00C949111CF93DF93EC01809109
:1023A00018018823B1F180911A0587FF32C060E2DD
:1023B00082E08093E9008FEF9091E800815095FDD5
:1023C00006C095ED9A95F1F700008111F5CF809147
:1023D000E80085FF1BC08091180170E050E040E0EC
:1023E000811104C050E040E068E070E0CE010E943E
:1023F00096058091E8008E778093E80080E2FE01E8
:10240000A1E4B5E001900D928A95E1F7DF91CF91BB
:10241000089568E081E0CDCFEF92FF920F931F9374
:10242000CF93DF930E94CD100E94CA100E94C71064
:102430000E94C41088E8E82EF12C8FEF90E0F7019D
:10244000918380830AE810E0F80191838083CCE8CF
:10245000D0E0998388830E94D610FFEF20E782E0C6
:10246000F15020408040E1F700C000000E94D310EE
:102470009FEFE0E7F2E09150E040F040E1F700C06C
:1024800000000E94D0102FEF80E792E021508040A2
:102490009040E1F700C000000E94CA10EFEFF0E7A3
:1024A00022E0E150F0402040E1F700C000000E942F
:1024B000C7108FEF90E7E2E081509040E040E1F7F5
:1024C00000C000000E94C410809104058770FFEFD7
:1024D0008F9FC0011124959587959595879599278C
:1024E000F70191838083F8019183808399838883A6
:1024F0000E94CD100E94CA100E94C710DF91CF9198
:102500001F910F91FF90EF900C94C410CF9384E033
:1025100090E00E94E22BC82F81E290E00E94E22B23
:10252000982F8C2FCF9108956FEE7EEF90E080E092
:102530000E94242C60E082E090E00E94062C60E083
:1025400083E090E00E94062C1092FE041092FF049B
:10255000109200051092010560E084E090E00E9476
:10256000062C60E081E290E00E94062C60E085E0AD
:1025700090E00E94062C60E086E090E00E94062C2D
:102580006FEF87E090E00E94062C40E050E0BA0137
:1025900088E090E00E94182C60E08DE090E00E94BE
:1025A000062C40E050E0BA0188E190E00E94182C2F
:1025B00060E087E190E00E94062C40E050E0BA0124
:1025C0008CE190E00E94182C60E080E290E00E9494
:1025D000062C40E050E0BA0188E190E00E94182CFF
:1025E0001092040510920505109206051092070539
:1025F00084E08061809304054091040550910505B5
:1026000060910605709107058FE090E00E94182CFC
:1026100040E050E0BA0183E190E00C94182C109255
:10262000FC0480911801E0E0F3E0882359F08091E8
:102630001A0587FF07C08EE1DF011D928A95E9F731
:102640000C946D0886E0F8CF1F93CF93DF93CDB73E
:10265000DEB7AA970FB6F894DEBF0FBECDBF85E6F2
:1026600095E02091F100FC012193CF01F5E08D363A
:102670009F07B9F780916605833009F46FC0B8F4FD
:10268000813009F446C0823009F4B0C08091E8007E
:1026900083FF7BC280916505909166059A3008F0B2
:1026A00074C2E92FF0E0E05CF14D0C94452A8A30C9
:1026B00009F48BC08B3009F46EC0893039F78091F2
:1026C0006505813219F78091690590916A05029735
:1026D000E8F68091E800877F8093E8008091E80029
:1026E00082FF37C09091F3008091F200029729F4A5
:1026F0008091F1008B7F813021F48091F1008093F3
:1027000040058091E8008B778093E8000E94C00527
:10271000BDCF80916505813A09F0B8CF8091E8007E
:10272000877F8093E8008091690590916A05892BE5
:1027300061F460E281E495E070E00E9472068091AD
:10274000E8008B778093E800A1CF60E090E080E024
:10275000F3CF809163058111C1CF98CF809165053A
:10276000813A09F093CF8091690590916A05892B90
:1027700009F08CCF8091E800877F8093E8008091FA
:10278000E80080FFFCCF809118018093F1008091D8
:10279000E8008E77B9CF80916505813209F076CF58
:1027A0008091690590916A05892B09F06FCF80911E
:1027B000E800877F8093E8000E94C005809167054C
:1027C000809318010E940F1361CF809165058132BB
:1027D00009F05CCF8091E800877F8093E8000E9439
:1027E000C0058091680580933F0550CF80916505B5
:1027F000813A09F04BCF8091E800877F8093E80011
:102800008091E80080FFFCCF80913F05BECF8038EB
:1028100099F0823809F0B9C1809169058F708730CD
:1028200008F0B3C18093E9008091EB0085FB882715
:1028300080F91092E90006C08091610590916205CF
:10284000911182609091E800977F9093E8008093C7
:10285000F1001092F1008091E8008E7792C18823F8
:1028600009F480C1823009F090C18091670581111F
:1028700083C1809169058F702FEF280F263008F0F3
:1028800084C18093E9002091EB0020FF75C1933053
:1028900031F48091EB0080628093EB006DC19091E8
:1028A000EB0090619093EB0021E030E001C0220F3B
:1028B0008A95EAF72093EA001092EA008091EB00F3
:1028C0008860EACF811161C1109167051F778091FF
:1028D000E3008078812B8093E3008091E800877F7C
:1028E0008093E8000E94C0058091E80080FFFCCF43
:1028F0008091E30080688093E30082E0111183E01F
:102900008093630542C18058823008F03EC18091B7
:102910006705909168058C3D23E09207A1F583E05F
:102920008A838AE289834FB7F894DE01139620E008
:102930003EE051E2E32FF0E050935700E49120FF96
:1029400003C0E295EF703F5FEF708E2F90E0EA30AA
:10295000C0F0C7968D939D932F5F243159F74FBFD9
:102960008091E800877F8093E8006AE270E0CE0102
:1029700001960E9472068091E8008B778093E800B0
:1029800004C1C096E7CF4091690550916A05292F8F
:1029900033272330310509F444C078F5213031055F
:1029A00009F46FC08BE390E0E9EAF9E022303105E9
:1029B00009F0EBC02091E800277F2093E8002091E8
:1029C0006B0530916C058217930708F49C0140E079
:1029D0002115310509F064C0411162C08091E80001
:1029E00082FDC9CF80916305882329F2853019F2D1
:1029F0008091E80083FFF2CFBECF21323105A9F1EB
:102A00002232310509F0C1C04115510509F443C016
:102A10004130510509F0B9C08DE690E0ECEFF8E0E7
:102A2000C9CF992781309105C1F0009759F00297DD
:102A300009F0ABC0E6EFF9E0E4918E2F90E0E6EF0D
:102A4000F9E007C0EAE4FAE0E4918E2F90E0EAE4CE
:102A5000FAE0009709F499C0ADCFE8E1FAE0E4911B
:102A60008E2F90E0E8E1FAE0F4CF4115510571F0C6
:102A70004130510509F089C089E090E0E4EDF9E0CA
:102A800099CF82E190E0E4EEF9E094CF89E090E024
:102A9000EBEBF9E08FCF80E490E0E9E6F9E08ACF54
:102AA00080916305882309F466CF853009F463CFEC
:102AB0008091E80083FD5FCF8091E80082FD8ECF9A
:102AC0008091E80080FF84CF9091F3008091F20024
:102AD0002115310519F08830910550F041E0089733
:102AE00009F040E08091E8008E778093E80070CF95
:102AF00044914093F1003196215031090196E8CF7D
:102B0000803809F042C08091E800877F8093E80018
:102B1000809164058093F1009ECE811136C01091A2
:102B20006705123090F58091E800877F8093E80078
:102B3000109364050E94C005112311F084E005C0C4
:102B40008091E30087FDFACF81E08093630542E046
:102B500061EC81E00E94DF0542E261EC82E00E94CC
:102B6000DF0513C080916705813079F481E09330EF
:102B700009F080E0809362051092E9008091E800FE
:102B8000877F8093E8000E94C0058091E80083FF62
:102B90000AC08091E800877F8093E8008091EB0075
:102BA00080628093EB00AA960FB6F894DEBF0FBE4A
:102BB000CDBFDF91CF911F9108950F931F93CF93B6
:102BC000DF93082F000FEB0114E210932903EAE2D0
:102BD000F3E0DE018D91819383E0EA33F807D1F7CA
:102BE00024E630E041E150E069E273E0802F0E948A
:102BF000F229105F6096143B41F7DF91CF911F914E
:102C00000F91089580913D03882329F06FE373E0CD
:102C100084E70E94DD1510923D0380913E038823D6
:102C200029F06FEC73E087E70E94DD1510923E03F8
:102C30000895E9E2F3E06083418324E630E042E076
:102C400050E0BF01880F0C94F229EF92FF920F938E
:102C50001F93CF93DF93E82E062F10E00D571B4FE5
:102C6000F8018081882381F0F2E16F9FE001112457
:102C7000C15ADB4FF12C49916F2D8E2D0E941916F0
:102C8000F39482E1F812F7CFF8011082DF91CF912F
:102C90001F910F91FF90EF900895CF93DF93C82F6E
:102CA0004BE06DEF0E94191640E06AE08C2F0E9405
:102CB00019168FE39CE90197F1F700C0000040E08E
:102CC00060E08C2F0E94191640E061E08C2F0E947A
:102CD000191640E066E08C2F0E94191640E06DEF57
:102CE0008C2F0E941916D0E040E06D2F8C2F0E948F
:102CF0001916DF5FD231C1F740E06D2F8C2F0E9493
:102D00001916DF5FD432C1F740E06D2F8C2F0E947F
:102D10001916DF5FD43BC1F74BE06DEF8C2F0E949B
:102D2000191641E06AE08C2F0E94191640E06DEF01
:102D30008C2FDF91CF910C9419166F927F928F9206
:102D40009F92AF92BF92CF92DF92EF92FF920F933A
:102D50001F93CF93DF930E943D2984E70E944D1675
:102D600087E70E944D1668E2E62E61E0F62ED12C30
:102D7000C12C72E1772EE8E08E2E912CAA24A39428
:102D8000B12C66246394F701418150E0CA01849715
:102D900002810452110BC381C452DD0BF601EE0F08
:102DA000FF1FEE0FFF1FE85DFE4F2081237030E014
:102DB000FC0197FD379643E0F595E7954A95E1F7D5
:102DC000729EA001739E500D1124415A5B4FE40F77
:102DD000F52FF11DB4010E94312AA50101C0440F55
:102DE0008A95EAF78081842B8083F80117FD379656
:102DF00093E0F595E7959A95E1F7729EC001739E71
:102E0000900D1124815A9B4FE80FF92FF11DC80135
:102E1000B4010E94312AA50101C0440F8A95EAF746
:102E20008081842B8083FE01D7FD379683E0F59562
:102E3000E7958A95E1F7729EC001739E900D11246B
:102E4000815A9B4FE80FF92FF11DCE01B4010E946A
:102E5000312AA50101C0440F8A95EAF78081842BAD
:102E600080832D573B4FF9016082FFEFCF1ADF0AB5
:102E700084E0E80EF11CE0E3CE16D10409F083CF24
:102E800060E084E70E94251661E087E7DF91CF913B
:102E90001F910F91FF90EF90DF90CF90BF90AF9078
:102EA0009F908F907F906F900C9425161F93CF93D7
:102EB000DF93EC01FC01E353FD4F80816823A1F017
:102EC0000E94972A182F0E94972A612F782F8091AD
:102ED0007B050E94F90B462F282F672FCE01DF912B
:102EE000CF911F910C948A09DF91CF911F91089582
:102EF000DF92EF92FF920F931F93CF93DF938C019A
:102F0000FC01E353FD4F8081682381F1D0907A0565
:102F1000D0917B05C0917905EC2EF12C0E94972A67
:102F2000282FC7018C549F4F68E671E00E94312A18
:102F30008E199F0997FD0396959587959595879589
:102F400023706C2F289F600D11247D2D8D2F0E94E2
:102F5000F90B462F282F672FC801DF91CF911F91C2
:102F60000F91FF90EF90DF900C948A09DF91CF9141
:102F70001F910F91FF90EF90DF90089545E050E092
:102F80006CE170E088E795E00C94F62B9091780561
:102F9000937089F0811107C0946090937805109226
:102FA0001C010C94BE17893110F09066F6CF880F83
:102FB000880F982BF2CF0895809178058695869595
:102FC000815009F488E10C94C617809178058695A4
:102FD00086958F5F893108F081E00C94C617909137
:102FE0007805937041F08093790560937A0540935A
:102FF0007B050C94BE170895E8E7F5E0438120E1D6
:10300000421B08F440E08181628190E00C94EF174C
:10301000E8E7F5E0438120E1420F08F44FEF8181BA
:10302000628190E00C94EF17E8E7F5E0628120E11F
:10303000621B08F460E08181438190E00C94EF17FB
:10304000E8E7F5E0628120E1620F08F46FEF81812B
:10305000438190E00C94EF17E8E7F5E0818143812C
:1030600062818850990B0C94EF17E8E7F5E08181B5
:1030700090E04381628108960C94EF17E8E7F5E051
:10308000248130E1230F08F42FEF24830C94BE1722
:10309000E8E7F5E0248130E1231B08F420E02483F5
:1030A0000C94BE17E8E7F5E085E3808380911D016D
:1030B00090911E01A0911F0181839283A3838CE3D1
:1030C00084830C94BE170E949D1690E080E00E94BD
:1030D000F02B8F3E9E4F21F00E9494120E945218B6
:1030E00045E050E06CE170E088E795E00E94D22B6B
:1030F000809178058C7F11F40C945218089580E229
:1031000090E090930D0180930C0180911E0381113A
:103110000EC00E943D2981E080931E032FEF83EDB6
:1031200090E3215080409040E1F700C0000064E649
:1031300070E080E40E94432990930D0180930C017C
:10314000892B09F04EC064E670E080E00E949F2960
:1031500090930D0180930C01892B09F042C064E625
:1031600070E080E00E949F2990930D0180930C01F4
:10317000892BB9F564E670E08FE30E949F29909354
:103180000D0180930C01892B61F50E94192A64E6D8
:1031900070E080E40E94432990930D0180930C011C
:1031A000892BF9F464E670E08CE00E949F299093EB
:1031B0000D0180930C01892BA1F464E670E080E09E
:1031C0000E949F2990930D0180930C01892B49F453
:1031D00064E670E08FE30E949F2990930D01809335
:1031E0000C010E94192A80910C010895CF93C82FD9
:1031F000873070F580910C0190910D01892B89F534
:1032000064E670E080E40E94432990930D0180936E
:103210000C01892BD1F464E670E082E10E949F29C1
:1032200090930D0180930C01892B79F481E090E05B
:1032300001C0880FCA95EAF764E670E080950E94A5
:103240009F2990930D0180930C01CF910C94192A22
:103250008A30B9F040F4883071F0893079F0209AE2
:103260002898CF9108958C3091F070F08D30B9F797
:103270003E9A4698F6CF219A2998F3CF229A2A9817
:10328000F0CF239A2B98EDCF529A5A98EACF539ABF
:103290005B98E7CFCF93873050F580910C019091E8
:1032A0000D01C0E0892B71F464E670E081E40E94B6
:1032B000432990930D0180930C01892B31F0C0E0DC
:1032C0000E94192A8C2FCF91089584E690E00E94E5
:1032D000CE2997FF05C090930D0180930C01EFCF8D
:1032E000C82FC09510920D0110920C01E9CFCFB1FB
:1032F0008FB1869586958C73C3708C2BC82FC09523
:10330000E1CF1F920F920FB60F9211242F933F938C
:103310004F935F936F937F938F939F93AF93BF93DD
:10332000CF93DF93EF93FF93D091E900DF7080910B
:10333000EC00C82FC17080FDC0E81092E9008091B8
:10334000F000877F8093F00078940E9424131092FD
:10335000E9008091F00088608093F000CD2BCF7061
:10336000C093E900FF91EF91DF91CF91BF91AF91B1
:103370009F918F917F916F915F914F913F912F918D
:103380000F900FBE0F901F9018951F920F920FB6BF
:103390000F9211242F933F934F935F936F937F93DB
:1033A0008F939F93AF93BF93EF93FF938091E1002F
:1033B00082FF09C08091E20082FF05C08091E10098
:1033C0008B7F8093E1008091DA0080FF24C08091A0
:1033D000D80080FF20C08091DA008E7F8093DA00D1
:1033E0008091D90080FF9BC080E189BD82E189BDC9
:1033F00009B400FEFDCF81E08093630580913E0516
:10340000811109C00E9446050E9411068091E200C8
:1034100084608093E2008091E10080FF17C080917A
:10342000E20080FF13C08091E2008E7F8093E20073
:103430008091E20080618093E2008091D8008062F8
:103440008093D80019BC85E0809363058091E100EA
:1034500084FF29C08091E20084FF25C080E189BDFE
:1034600082E189BD89B5982F917080FFFBCF809153
:10347000D8008F7D8093D8008091E1008F7E80936B
:10348000E1008091E2008F7E8093E2008091E20073
:1034900081608093E20080916405882309F445C02F
:1034A00084E0809363058091E10083FF27C08091D1
:1034B000E20083FF23C08091E100877F8093E100D9
:1034C00082E080936305109264058091E1008E7F15
:1034D0008093E1008091E2008E7F8093E2008091F2
:1034E000E20080618093E20042E060E080E00E94C0
:1034F000DF058091F00088608093F000FF91EF91EC
:10350000BF91AF919F918F917F916F915F914F91FB
:103510003F912F910F900FBE0F901F90189519BCDF
:103520001092630510923E0576CF8091E30087FDEF
:1035300093E090936305B7CF78941F921FB61F92C4
:1035400011248F939F93AF93BF9380916D059091BA
:103550006E05A0916F05B09170050196A11DB11D7A
:1035600080936D0590936E05A0936F05B0937005E1
:10357000BF91AF919F918F911F901FBE1F90189583
:103580002FB7F89480916D0590916E05A0916F050D
:10359000B09170052FBF08950F931F93CF93DF93C2
:1035A000C62FD42F022FFC0182818823A1F06093C3
:1035B00073050E94C01A9093720580937105C770BD
:1035C00081E001C0880FCA95EAF7DF91CF911F9182
:1035D0000F910C94370880917305681343C02091B4
:1035E0007105309172054FB7F89480916D059091F7
:1035F0006E05A0916F05B09170054FBF821B930BB4
:10360000883C910578F510E21D0F6D17B9F080E246
:10361000860F883040F4C77081E001C0880FCA95DA
:10362000EAF70E942C08183048F481E09D2F97702B
:1036300001C0880F9A95EAF70E943708802F0E94F0
:10364000B708802F0E948508183098F4D77081E061
:1036500001C0880FDA95EAF7DF91CF911F910F91A2
:103660000C942C08C77081E001C0880FCA95EAF756
:10367000F3CFDF91CF911F910F9108954F925F92F9
:103680006F927F928F929F92AF92BF92CF92DF9272
:10369000EF92FF920F931F93CF93DF9300D000D050
:1036A0000F92CDB7DEB77C01FC0183819481892B19
:1036B00039F01081D180812F8D218F3F09F089C58C
:1036C0000F900F900F900F900F90DF91CF911F915F
:1036D0000F91FF90EF90DF90CF90BF90AF909F90B1
:1036E0008F907F906F905F904F9008950E94E00FB1
:1036F000082F682F89819A810E94F407E12FF0E05A
:1037000026E0D29EE00DF11D112434E5039FE00D6B
:10371000F11D1124EE0FFF1FE45FFA4F0591149184
:103720000A328DE5180709F44DC00B329DE51907E3
:1037300009F4D0C0033CECE51E0709F0F3C0F70123
:1037400082818823E9F090911A01809104059F3FBE
:1037500009F0E1C010921A018F7E8093040540E0C9
:1037600060E080E00E9488094091040550910505C1
:1037700060910605709107058FE090E00E94182C7B
:103780008091F904877009F49BCFF7018281882327
:1037900009F496CF82E00F900F900F900F900F904A
:1037A000DF91CF911F910F91FF90EF90DF90CF901D
:1037B000BF90AF909F908F907F906F905F904F9051
:1037C0000C943C11F70182818823C9F18091040592
:1037D00091E0980F9770887F953008F4892B80933B
:1037E0000405809104058770FFEF8F9FC0011124AD
:1037F00095958795959587959927909389008093BE
:10380000880090938B0080938A0090938D00809322
:103810008C0040910405509105056091060570915A
:1038200007058FE090E00E94182C609116057091BA
:10383000170580911805909119050E94D910F7017C
:103840009281992309F4D6C4109273050230FCE5E5
:103850001F0708F488C106312CE5120738F09801DB
:103860002B5F3C452730310508F07DC10E94861250
:1038700090931B0580931A050F303CE5130709F45C
:1038800053C108F0CDC008309CE5190709F436C1D2
:1038900008F0A2C00430FCE51F0709F423C108F0BA
:1038A00088C002303CE5130709F414C103301C45FD
:1038B00009F414C160911A0510911B0584E090E091
:1038C0000E94062C612F81E290E00E94062C0E944B
:1038D0000F1356CFF7018281882309F4B0CF90915E
:1038E0000405892F877F93FF88608093040583FFF9
:1038F00005C040E060E080E00E9488094091040536
:103900005091050560910605709107058FE090E0E4
:103910000E94182C94CF9FEF90931A01806180939E
:10392000040522CF0C32FDE51F0749F4F70182811F
:10393000882309F425CF81E00E94C61721CF043FD8
:10394000FCE51F0739F1A0F4093D3CE51307F1F050
:103950000A3D8CE5180751F1083D9CE5190709F06F
:103960006ECF26E241EE61EEC7010E94CC1A08CF6D
:10397000063FECE51E07B1F088F0073F2CE5120783
:1039800009F05DCF27E245EE66EEEECF27E245EE89
:1039900065EEEACF26E241EE60EEE6CF27E245EEA5
:1039A00064EEE2CF26E241EE62EEDECF28E241E0B5
:1039B000EFCF80911A05806106309CE5190709F464
:1039C00047C080911A05886007301C4508F440C044
:1039D00080911A0580623CC00B30FCE51F0709F49A
:1039E0009BC068F409303CE5130709F48BC00A302A
:1039F0001C4509F05FCF80911A058C6029C0809129
:103A00001A058B7F0D309CE5190711F180911A057D
:103A10008D7F0E301C45E0F080911A05877F18C01D
:103A20000B3FFCE51F0709F461C060F502313CE57E
:103A3000130709F481C078F400319CE5190709F4F3
:103A400077C080911A058F7B01311C4509F032CF78
:103A500080931A052FCF0431FCE51F0709F47AC0C3
:103A600008F470C005311C4509F024CF80911A0577
:103A700082FB992790F921E0922790FB82F990FB35
:103A800083F9E6CF0E3F8CE5180709F449C070F4BE
:103A90000C3FECE51E0771F180911B058E7F0D3FF9
:103AA0001C4509F007CF80931B0504CF01152DE5B8
:103AB000120709F44BC060F101301D4509F0FACE40
:103AC00080911B05982F909591708E7F892B90FB8C
:103AD00081F9E9CF80911A058160BACF80911A05EA
:103AE0008260B6CF80911A058460B2CF80911B05A9
:103AF0008160D9CF80911B058260D5CF80911A0556
:103B00008064A6CF0E940F1380911A058068A0CF11
:103B100080911B058360C7CF80911A058E7F98CF57
:103B200080911B058D7FBFCF80911A058F7E90CF2E
:103B300080911A058F7D8CCF0E940F1380911A05FA
:103B40008F7786CF80911A05837F82CF80911B0566
:103B50008C7FA9CF0E940F1390911A05892F97FB94
:103B600087F9805875CF8091FC040631ECE51E077B
:103B700009F04EC38A7A91E009F490E090938904A9
:103B800069E2811165E38EEF92E00E94FE060E94D9
:103B90008607F6CD8091780591E089278093780596
:103BA00010921C010E94BE17EBCD4CED57E165EE63
:103BB00077E10E943109E4CD45EE57E16CED77E104
:103BC000F8CF4CE258E165E378E1F3CF45E358E103
:103BD0006CE278E1EECF44E158E160E278E1E9CFD0
:103BE00040E258E164E178E1E4CF4CEF57E168E06E
:103BF00078E1DFCF48E058E16CEF77E1DACF48E4D5
:103C000058E16EE378E1D5CF4EE358E168E478E11E
:103C1000D0CF85E091CE8DE08FCE82E18DCE0115A3
:103C2000FCE51F0709F447C00F3D1C4509F480C09F
:103C3000F70100811181992309F47DC0C8010E9418
:103C4000E00FD82E682FC8010E94F407B8018D2D0F
:103C50000E94550E8C01882EF701A580A2944FE09A
:103C6000A422D280D1101092FB048091F9048770B5
:103C700099F0DD2089F0812F807F803421F080E26F
:103C8000800F883048F082E00E943C118091F90456
:103C90008770CC24C3948111C12CB12EB2943FE023
:103CA000B322FBE0FB1508F480C0EB2DF0E0E65BEF
:103CB000F14D0C94452A0E940F133FEF84E39CE0E2
:103CC000315080409040E1F700C00000F89481E05E
:103CD0008093E00080E28093D8001092C900EFE169
:103CE000FEE43197F1F700C000001DBA10926800A1
:103CF0001CBC10BE1FBA10927A0010926E00109277
:103D00006F0010927100109272001092C900109210
:103D1000BC0014B817B81AB81DB810BA1092BC007D
:103D200015B818B81BB81EB811BA0C94003F28CDAE
:103D30000E94941225CDC8010E94CB07D82E86CFB1
:103D4000212F2F70A22E107F19F0A29420EFA22213
:103D5000DD20C9F0AA2069F080E2800F883010F0E1
:103D600081100BC08091FC04A82AA092FC040E9440
:103D70008607802F0E94B70818C08091FB04A82AEC
:103D8000A092FB04F4CF802F0E948508AA2069F03E
:103D9000A094005E083010F0811046C08091FC04B1
:103DA000A822A092FC040E9486072B2D2850330BDA
:103DB0002430310510F40E942509CC20A9F080910F
:103DC000F90480FD11C0F7011282859585958595CE
:103DD0000E945411C7010E943E1B8091F9048595F1
:103DE000859585950E94191185E0F701DE011196F0
:103DF00001900D928A95E1F789819A810E94CB0703
:103E00009A81E981F0E026E0929FE00DF11D1124F6
:103E100034E5839FE00DF11D1124EE0FFF1FE45FD9
:103E2000FA4F859194914CCC8091FB04A822A092EA
:103E3000FB04B9CF312F3F70932E107F103219F051
:103E4000929490EF9922882041F081E0881631F118
:103E5000DD2079F1AA2041F18CCFDD2091F0909105
:103E6000FD04892D892BA11003C00E9437089DCF26
:103E7000E1E0AE12FACF981709F497CF8093FD04D2
:103E800094CFA11006C00E948007892D0E942C08A3
:103E90008CCFF1E0AF1609F488CFF5CFDD2031F0FB
:103EA00021E02A1508F481CF892DDFCFA1107DCF25
:103EB000ECCFAA2051F339E3831284C18FEF97EE40
:103EC000E3E081509040E040E1F700C000007AC19B
:103ED000812F86958695837061F0813009F065CFDA
:103EE000C8019370D11002C090E080E00E944108A8
:103EF0005CCFC8019370D11002C090E080E00E94B6
:103F0000570853CF812F837009F066C0D1104DCF71
:103F1000802F829586958770880F880F602F6F702D
:103F2000462E512C712C612C082E04C0440C551CBB
:103F3000661C771C0A94D2F740E050E0BA0104FFF7
:103F40000FC04FE050E060E070E004C0440F551F28
:103F5000661F771F8A95D2F74095509560957095AA
:103F6000812F869586958370823019F1D8F400915F
:103F7000FE041091FF04209100053091010581306D
:103F800069F04429552966297729CB01BA016023B4
:103F90007123822393230E947B0807CF402A512A52
:103FA000622A732ACB01BA016429752986299729C7
:103FB000F2CF44295529662977290091FE041091F2
:103FC000FF042091000530910105CB01BA01602763
:103FD000712782279327DFCF8695DD2011F0812F6F
:103FE0008170882309F4E1CE802F829586958770B1
:103FF000880F880F602F6F70462E512C712C612C0A
:10400000082E04C0440C551C661C771C0A94D2F779
:1040100040E050E0BA0104FF0FC04FE050E060E024
:1040200070E004C0440F551F661F771F8A95D2F7B2
:104030004095509560957095812F869586958370F3
:10404000823019F1D8F400911605109117052091CE
:10405000180530911905813069F0442955296629E0
:104060007729CB01BA0160237123822393230E9415
:104070000D119BCE402A512A622A732ACB01BA0124
:104080006429752986299729F2CF4429552966295B
:104090007729009116051091170520911805309188
:1040A0001905CB01BA016027712782279327DFCF3B
:1040B0001F70DD2029F0812F0E945411802FD5CE52
:1040C000802F0E942C08812F0E9419116ECE802F04
:1040D000F2EF8F1609F44EC0F81578F020EF821633
:1040E00019F131EF831609F43DC0DD2009F465C0F4
:1040F000A1103FCE812F8F713AC093EF891609F43A
:104100003EC0E4EF8E12F1CFDD2009F44BC01F71E9
:10411000812F0E94541128E0129FC0011124836056
:104120008093F904812F23C0DD20B9F0A1103DCE8A
:104130001F7161E070E080E090E004C0660F771FBF
:10414000881F991F1A95D2F700911605109117052F
:104150002091180530911905A6CFF1E0FA1508F461
:1041600024CEE6CF812F8F71DD2009F4ADCF0E94E0
:1041700054111BCE812F8F71DD20C9F3A5CF60E0D4
:1041800070E0CB01DD2009F472CF1F7161E070E0B7
:1041900080E090E004C0660F771F881F991F1A9572
:1041A000D2F765CF81E00E943C1131E03A1508F06A
:1041B000FCCD82E00E943C11F8CDAA2039F0893371
:1041C00009F47CCE802F0E948508EFCD812F8F715E
:1041D0007BCF85E0DE01119601900D928A95E1F783
:1041E000F701228189819A81211180CA0E94CB071F
:1041F000082F84CA06311C4509F01ACD8091890424
:1042000069E2811165E38EEF92E00E94D406BFCC93
:104210008272F801E35CFC45E431F10508F0FFCC63
:10422000EA5AF14D0C94452A1F93CF93DF93809166
:104230008F04807FA9F480918C04882389F0809179
:10424000C104D091900460918A0470918B04A09174
:104250008D04B0918E04C62FC72316E0D81304C076
:10426000DF91CF911F91089590E0109711F0CF3F0B
:1042700019F401968770F2CF189F9001199F300DA5
:104280001124F901EF56FB4F41814713F2CF4081D2
:104290004613EFCF42814111ECCF438154814A1B39
:1042A0005B0B483C510528F780918F048F7080612B
:1042B00080938F04F901EA56FB4F80818F708061F3
:1042C00080838AE894E00E943E1BDF91CF911F918A
:1042D0000C942208AF92BF92CF92DF92EF92FF929E
:1042E0000F931F93CF93DF93CDB7DEB761970FB6D0
:1042F000F894DEBF0FBECDBF8C0185E0F801DE0172
:104300001D9601900D928A95E1F7F80180819181C7
:10431000E2802AE8A22E24E0B22E60918D047091F2
:104320008E046115710509F43EC130918A044091F3
:104330008B04232F24232F3F09F435C1C380D4805D
:10434000F0908C04F601E61BF70BFF2009F4FBC08C
:1043500020918F04522F507FE83CF10508F0BBC03C
:10436000511178C0FE2C491321C038131FC0E11031
:104370001DC02F70206120938F04C5010E943E1B39
:1043800080918F04F80185838F2D61960FB6F89484
:10439000DEBF0FBECDBFDF91CF911F910F91FF9078
:1043A000EF90DF90CF90BF90AF900895CD2829F087
:1043B000282F29232F3F09F014C120E0F22FF1709C
:1043C000DF2E20FF3DC02091C1044091900456E0B3
:1043D000241315C08D879E878D859E850E9422108F
:1043E000292F22952F702230F8F0243020F59F706D
:1043F000F9F0F8019581907FD9F4D12C1FC030E0FD
:10440000529FF001539FF00D1124EF56FB4F618135
:10441000961306C06081861303C06281E61210C045
:104420002F5F3F4F2770D4CF9F7011F0882329F35F
:10443000805E883010F3C8010E943E1BFD2CA4CF83
:10444000EE2009F4A1CF80918F04816080938F04C6
:10445000F12C9ACF491312C0381310C0E1100EC0CE
:10446000F8012583C8010E943E1B86E0F801AAE8F6
:10447000B4E001900D928A95E1F786CF8D879E87F3
:104480008D859E850E942C10882309F1EE20F9F07D
:1044900080918F04803270F020918A0430918B04D7
:1044A00038872F831986DB86CA868C87CE010796CC
:1044B0000E943E1B86E0F801AAE8B4E001900D924C
:1044C0008A95E1F70E941421FF24F3945DCFC8017F
:1044D0000E943E1BF9CF51110AC08AE894E00E9465
:1044E0003E1B86E0F50111928A95E9F7B1CF491399
:1044F0000FC038130DC0E1100BC0F8012583C801AF
:104500000E943E1B86E0F50111928A95E9F73CCFA7
:104510008D879E878D859E850E942C108823B9F2F9
:10452000EE20A9F280918F04803220F220918A043B
:1045300030918B043A8329831B82DD82CC828E8367
:10454000CE010196B5CFE83CF105E0F6FE2CEE2059
:1045500009F4BDCF491316C0381314C080918F04DD
:1045600080FD83CF982F907F09F47FCFF80185835A
:10457000903F09F477CF982F907F905F8F70892BB1
:10458000858370CF8D879E878D859E850E942C1098
:10459000811190CF80918F04816080938F04C80136
:1045A0000E943E1BF1CEEE2009F491CF8D879E87AD
:1045B0008D859E850E942C10F82E882309F487CFC4
:1045C00086E0F801AAE8B4E001900D928A95E1F73F
:1045D00080918A0490918B040E9422100E941421E1
:1045E000D3CE21E02E25EACE1F93CF93DF93CDB714
:1045F000DEB767970FB6F894DEBF0FBECDBF4B8B0B
:104600005C8B6D8B7E8B8F8B1A8A198A85E0FE01FD
:104610007396DE011D9601900D928A95E1F786E072
:10462000FE013D96DE01179601900D928A95E1F705
:10463000CE0107960E946A21811112C086E0FE0118
:104640003796DE01119601900D928A95E1F78A85E1
:104650009B85892B29F08F81988589238F3FB1F520
:1046600016E08091C1049091900489131DC0679653
:104670000FB6F894DEBF0FBECDBFDF91CF911F9173
:10468000089596E0929FD001939FB00D1124AF56EC
:10469000BB4FFE01319601900D929A95E1F7809300
:1046A00090040E942208DCCF819FC00111248F5604
:1046B0009B4F0E946A218823D1F28091C10490E02F
:1046C0000196877099278093C104CBCF20919004E5
:1046D00030E0C9010196877099274091C1044817BD
:1046E000190679F60E940F13109290041092C104DB
:1046F00086E0EAE8F4E0DF011D928A95E9F7B0CFA1
:104700008F929F92AF92BF92CF92DF92EF92FF92E1
:104710000F931F93CF93DF9380910C0190910D0124
:10472000892BA1F080911F038F5F80931F0381115C
:104730000DC00E947F1890E090930D0180930C01B2
:10474000892B21F40E940C120E946318E8E08E2E3F
:10475000E5E09E2E740100E010E077E0C72EC10E68
:10476000812F0E94F6188C2D0E94F618812F0E942E
:104770004A19E70199917E01D12C891729F0FE0190
:1047800031978083DD24D3948C2D0E944A19F70140
:104790009681891709F47CC0868381E08D29082BD6
:1047A0000E9475111F5F1730C1F60E94C01A6091F8
:1047B000210370912203909322038093210320917F
:1047C000200330E0261B370B820F931F6BEF70E046
:1047D0000E941D2AE82E392F182F80932003F09075
:1047E0002403FF2009F414C310922403E09102056E
:1047F000F0910305AF01425F5F4F20E06BEFB62EF3
:104800006BEF70E0A191AB3FA1F0CA2ED12C8E2DA1
:10481000932F1A1708F43EC08C199D09092E000C1D
:10482000AA0BBB0B4E97A105B105D0F1DF01119783
:10483000BC92E417F50731F720932403011102C05D
:104840002111E8C210922303A0910205B091030543
:1048500090912403E0E2F5E04EE255E080E03191F2
:10486000E40129914E01321751F03C913B3FD1F4C4
:104870001C93BF0161507109EB01288391E01196EF
:104880004E175F0761F79093240380932303C6C2FA
:1048900080E084CFDB01AC19BD098A0F9B1FBECF1E
:1048A0002F2DC7CF81E0EBCF1092190140937405F3
:1048B00050937505609376057093770581E080933A
:1048C0001C01DAC280910B01C1E018130BC02091CA
:1048D0007805237080910A0190E0C1E0281719063D
:1048E00009F4C0E0C170C0931B01193140F4E12FFD
:1048F000F0E0E659F14D0C94452AC11102C0C0E028
:1049000028C040E060E080E00E948809F8CF8091F4
:104910001901C82FCC0FCC0FC80F45E0F42EFC0EA8
:10492000EF2CD0E3DF1510F430E3E32E609179052E
:1049300070917A0580917B050E94F90BD62EC72EC7
:10494000B82ED0E0CE1508F43BC0C1E0FFE2FF1561
:10495000B0F2809119018F5F80931901C11115C2C6
:1049600082E080931C0180911B0181110EC21123F2
:1049700009F42EC280911F0581117EC28091040529
:1049800083FD7AC260911605709117058091180514
:10499000909119050E943307833009F40AC208F088
:1049A000F8C1813009F4FDC1823009F4FFC1809162
:1049B0001A01811161C240E060E00E9488095CC276
:1049C000FE01E353FD4F808190911A01892331F05C
:1049D0002B2D4D2D6C2DCE010E948A092196B2CF30
:1049E00080911901C82FCC0FCC0FC80F25E0F22EF3
:1049F000FC0EEF2C20E32F1510F490E3E92EC0906D
:104A00007A05D0907B05D09179056D2F7C2D8D2D69
:104A10000E94F90BB62EA72E982E60917C056D0F83
:104A20007C2D8D2D0E94F90BD62EC72E882ED0E01E
:104A3000CE1530F0C1E08FE28F1508F08ACF5FCF3E
:104A4000FE01E353FD4F908180911A01892359F0B3
:104A5000282D4D2D6C2D90FD03C0292D4B2D6A2D39
:104A6000CE010E948A092196E3CF80911901C82FB7
:104A7000CC0FCC0FC80F85E0F82EFC0EDF2C90E396
:104A80009F1510F4D0E3DD2EC0907A05B0907B0521
:104A900020917C05B0E4EB2E3E2D329F312D112468
:104AA000E32ED0E0CD1530F0C1E09FE29F1508F075
:104AB00050CF25CFFE01E353FD4F808190911A0125
:104AC0008923B9F0FE01EE0FFF1FE259FD4F8081EF
:104AD00082958F70609179058E9D600D11247C2DDB
:104AE0008B2D0E94F90B462F282F672FCE010E9495
:104AF0008A092196D7CF80911901C82FCC0FCC0FEE
:104B0000C80FE5E0FE2EFC0EDF2CD0E3DF1510F41D
:104B100070E3D72EC0907A05B0907B0520917C057C
:104B200060E4E62E3E2D329F312D1124E32ED0E09D
:104B3000CD1508F0B9CFFE01E353FD4F8081909170
:104B40001A018923D9F0FE01EE0FFF1FE359FD4F33
:104B50006081E69EB001112455E0759567955A95E0
:104B6000E1F780917905680F7C2D8B2D0E94F90B60
:104B7000462F282F672FCE010E948A092196D8CF71
:104B800080911901C82FCC0FCC0FC80F35E0F32E40
:104B9000FC0EEF2CD0E3DF1510F420E3E22ED090D2
:104BA0007905D0917A05C0907B0560917C0566956A
:104BB0006695669580917405909175050E94EF0B3E
:104BC0000E94780B805887FD8195880F282F3C2DF7
:104BD000239F212D1124822F6D2D7D2F0E94F90BF3
:104BE000D62EC72EB82ED0E0CE1508F05DCFFE0130
:104BF000E353FD4F808190911A01892331F02B2DD1
:104C00004D2D6C2DCE010E948A092196EDCF83E8AF
:104C10009AE00E94C80DC82F9CCE89E59AE0F9CF92
:104C20008AE59BE00E946C0DF6CF8BE39BE0FACF08
:104C300080E29BE00E94EF0CEECF84E09BE0FACF95
:104C400087E59AE0E6CF8EE49AE0E3CF85E49AE048
:104C5000E0CF8CE29AE0DDCF8EE19AE0EBCF87ECFB
:104C60009BE0E0CF83EF9AE0DDCF8FED9AE0E2CFDB
:104C700081EF99E00E948D0CCECF83EC99E0FACFC2
:104C80008CE899E0F7CFC1111EC060917C0520E14E
:104C9000620F08F46FEF80917405909175050E9482
:104CA000EF0B6AE070E00E941D2A892B09F027CEE5
:104CB0000E94972A60E370E00E94312A60911A01F5
:104CC0000E94781746CE80911901C82FCC0FCC0FC7
:104CD000C80F95E0D92EDC0E8D2DD0E3DD1508F43C
:104CE00080E3D0E0E82EF12CCE15DF0534F0C1E0F2
:104CF000EFE2ED1508F02DCE02CE60911A01CE0143
:104D00000E9478172196F0CFC1111EC060917C05DA
:104D100020E1620F08F46FEF8091740590917505A2
:104D20000E94EF0B65E070E00E941D2A892B09F0BC
:104D3000E6CD0E94972A60E370E00E94312A6091DC
:104D40001A010E94561705CE80911901C82FCC0F69
:104D5000CC0FC80F85E0D82EDC0E8D2DF0E3FD15AD
:104D600008F480E3D0E0E82EF12CCE15DF0534F016
:104D7000C1E02FE22D1508F0ECCDC1CD60911A01F4
:104D8000CE010E9456172196F0CF112309F474C06A
:104D9000F1CD843089F0853009F009CE85E090E0CE
:104DA00002C081E090E00E94501066C082E090E076
:104DB000FACF83E090E0F7CF84E090E0F4CF109357
:104DC0000B0180917805837080930A010E9402167E
:104DD00083E075CD4091740550917505609176051D
:104DE000709177052FB7F89480916D0590916E05BD
:104DF000A0916F05B09170052FBF841B950BA60B7A
:104E0000B70B4A97A105B105B8F110921C0134C047
:104E1000011118CD80912303811114CD8FB7F8941F
:104E200040916D0550916E0560916F057091700510
:104E30008FBF4093250350932603609327037093FD
:104E4000280380911F0510E0811108C0809178052A
:104E5000182F137019F0182F1695169580911C01B4
:104E6000813009F42FCD882309F41ECD823009F456
:104E7000A6CF833009F4AECF802FDF91CF911F9161
:104E80000F91FF90EF90DF90CF90BF90AF909F90E9
:104E90008F900895CDB7DEB72A970FB6F894DEBF8E
:104EA0000FBECDBF84B7877F84BF0FB6F894A89597
:104EB00080916000886180936000109260000FBE56
:104EC00080E890E00FB6F8948093610090936100C1
:104ED0000FBE85B7806885BF85B7806885BF0E9493
:104EE00046050E9411068091E20084608093E200F2
:104EF0007894809163058823A1F01091E9001F70D8
:104F00009091EC00892F817090FD80E8182B109211
:104F1000E9008091E80083FD0E9424131F70109324
:104F2000E90082E084BD93E095BD9AEF97BD809340
:104F30006E000E947F1890E090930D0180930C0109
:104F40000E9475110E948411E8E0F5E0A0E2B5E04E
:104F500011921D9225E0E631F207D1F78EE090E044
:104F60000E94A72A8093020590930305FC010E96E8
:104F70002BEF21938E179F07E1F790E080E00E94CE
:104F8000F02B8F3E9E4F11F00E9494120E946318E6
:104F900089EA8093800089E08093810024982C988E
:104FA0003F988AB18F7C8AB96E98479A8BB180639B
:104FB0008BB9769A8FE090E00E94EA2B609304050B
:104FC00070930505809306059093070567708FEF32
:104FD000869FB0011124759567957595679577271C
:104FE000709389006093880070938B0060938A00AF
:104FF00070938D0060938C009091040594FF95C090
:1050000080931A010E940C1290E080E00E94F02B25
:105010008F3E9E4F11F00E94941282E090E00E9419
:10502000E22B80932F050E94861290931B0580939C
:105030001A0583E090E00E94E22B682F70E090E078
:1050400080E00E947B0860911605709117058091A1
:105050001805909119050E94D9100E947B090E94A1
:105060007B090E94BE178EE091E090931D0580930E
:105070001C0598E1C92ED12C992493942EE2A22EDE
:1050800025E0B22E80E295E03EE0E32EE80E80912E
:105090006305853079F480E4F82E00E112E1809117
:1050A0006305853009F444C00E940F130E9425094E
:1050B00010921F050E948023E0E3F5E0A0E2B5E036
:1050C00010E000E0302F8D912191281709F481C064
:1050D00090E0FF24F3942827422F4F2109F474C055
:1050E00099833A838F2191E009F490E09B830E9499
:1050F000C01A8160782F9D838C8349815A816B818E
:105100008D810E94F422F801E05DFA4F8081F8263B
:10511000F0820E94250990912E05891709F4B7CFD6
:105120000E94250980932E05B2CF10921A016ACFF2
:1051300040E060E080E00E94880990921F05809125
:105140006305843009F110921E050FB6F894A895F6
:10515000C09260000FBEF092600083B7817F8460D0
:1051600083BF83B7816083BF7894889583B78E7F30
:1051700083BF0FB6F894A8958091600088618093F2
:105180006000109260000FBE80916205882309F4D0
:1051900086CF0E947F1890E090930D0180930C01C0
:1051A0000E9475110E948411E0E2F5E01192AE16A2
:1051B000BF06E1F70E948023E0E2F5E081918111D2
:1051C0001FC0EE12FBCF6BCF9F5FFF0C963009F034
:1051D00083CF0F5F1F4F0E30110509F073CF8FEF94
:1051E0008E838F8318860E94C01A8160782F9A87D9
:1051F00089874E815F8168858A850E94F42289CFE4
:1052000009BD19BD09B400FEFDCF8091D8008F7D86
:105210008093D8008091E00082608093E0008091CC
:10522000E00081FDFCCF0E940F1339CF1F921FB603
:105230001F9211248F939F93AF93BF9380911E056C
:10524000811113C080916D0590916E05A0916F053D
:10525000B09170054196A11DB11D80936D0590938D
:105260006E05A0936F05B0937005BF91AF919F91AC
:105270008F911F901FBE1F9018951092B9008CE05F
:105280008093B8000895EF92FF920F931F93CF93EE
:10529000DF93182FEB011092BC0084EA8093BC00CE
:1052A0000E94C01A7C018091BC0087FF27C08091BA
:1052B000B900887F883029F08091B900887F8031DB
:1052C000D9F51093BB0084E88093BC000E94C01AFB
:1052D0008C018091BC0087FF24C02091B900287FF9
:1052E00090E080E02831B1F081E090E0203411F4CA
:1052F00090E080E09195819591090CC0CF3FDC074B
:1053000091F20E94C01A8E199F098C179D0758F2BE
:105310008EEF9FEFDF91CF911F910F91FF90EF9054
:105320000895CF3FDC07A9F20E94C01A801B910BA1
:105330008C179D0770F2ECCF8FEF9FEFEBCF0F93A1
:105340001F93CF93DF93EB018093BB0084E880939E
:10535000BC000E94C01A8C018091BC0087FF11C064
:105360002091B900287F81E090E0283211F490E08C
:1053700080E0919581959109DF91CF911F910F91D7
:105380000895CF3FDC0741F30E94C01A801B910BA8
:105390008C179D0708F38EEF9FEFEECF0F931F93AF
:1053A000CF93DF93EC0184E88093BC000E94C01A85
:1053B0008C018091BC0087FF08C08091BB0090E009
:1053C000DF91CF911F910F910895CF3FDC0789F3B3
:1053D0000E94C01A801B910B8C179D0750F38EEF13
:1053E0009FEFEECFCF92DF92EF92FF920F931F933A
:1053F000CF93DF936B018A017901B9010E944329A0
:10540000E6010C0D1D1DC017D10761F424E920939E
:10541000BC00DF91CF911F910F91FF90EF90DF9033
:10542000CF90089597FDF2CFB70189910E949F29EF
:10543000EACF84E98093BC000895AA1BBB1B51E10D
:1054400007C0AA1FBB1FA617B70710F0A61BB70BF4
:10545000881F991F5A95A9F780959095BC01CD0199
:10546000089597FB072E16F4009407D077FD09D016
:105470000E941D2A07FC05D03EF4909581959F4F10
:105480000895709561957F4F0895EE0FFF1F059069
:10549000F491E02D09948F929F92AF92BF92CF9298
:1054A000DF92EF92FF92CF93DF93EC0168817981D5
:1054B0008A819B81611571058105910521F464E262
:1054C00079ED8BE597E02DE133EF41E050E00E946C
:1054D0002A2C49015A019B01AC01A7EAB1E40E94C0
:1054E000492C6B017C01ACEEB4EFA50194010E9444
:1054F000572CDC01CB018C0D9D1DAE1DBF1DB7FFD0
:1055000003C00197A109B04888839983AA83BB830C
:105510009F77DF91CF91FF90EF90DF90CF90BF907A
:10552000AF909F908F9008950E944B2A089580E03D
:1055300091E00E944B2A0895B0E0A0E08093000122
:1055400090930101A0930201B093030108950F937A
:105550001F93CF93DF938230910510F482E090E0A7
:10556000E0917F05F091800530E020E0B0E0A0E020
:10557000309799F42115310509F447C0281B390BE0
:1055800024303105C0F58A819B816115710571F167
:10559000FB0193838283FE0111C04081518102810E
:1055A000138148175907F8F04817590799F41097CD
:1055B00061F012960C93129713961C933296CF01BA
:1055C000DF91CF911F910F91089500937F05109364
:1055D0008005F4CF2115310519F04217530718F44F
:1055E0009A01BD01EF01DF01F801C2CF9093800560
:1055F00080937F05D0CFFE01E20FF31F819391933B
:105600002250310939832883DACF20917D053091EA
:105610007E05232B41F42091060130910701309340
:105620007E0520937D05209104013091050121150F
:10563000310541F42DB73EB7409108015091090161
:10564000241B350B40917D0550917E054217530771
:1056500008F0B5CF241B350B2817390708F4AFCF56
:10566000BC016E5F7F4F2617370708F4A8CF640F81
:10567000751F70937E0560937D05FA018193919368
:105680009ECFCF93DF930097E9F0FC01329713820E
:105690001282C0917F05D0918005DE0130E020E0CC
:1056A0002097A1F420813181820F931F20917D05E5
:1056B00030917E052817390709F067C0F0937E0501
:1056C000E0937D05DF91CF910895DA01AE17BF0712
:1056D00008F040C012964D915C9113979D014115C1
:1056E000510599F7D9011396FC93EE9312974D91BA
:1056F0005D91A40FB51FEA17FB0779F480819181B2
:105700000296840F951FD90111969C938E938281E6
:10571000938113969C938E931297B0E0A0E08A81B8
:105720009B810097B9F5FE0181919191E80FF91FD6
:1057300080917D0590917E058E179F0719F6109731
:1057400061F51092800510927F05D0937E05C0937D
:105750007D05B8CFB383A28340815181840F951F0B
:10576000A817B90771F44E5F5F4F8D919C91119707
:10577000480F591F5183408312968D919C919383BA
:1057800082832115310509F0ADCFF0938005E093B8
:105790007F0598CFDE01EC01C2CF13961C921E92BA
:1057A0001297D3CFDC01CB01FC01F999FECF06C0E3
:1057B000F2BDE1BDF89A319600B40D9241505040CF
:1057C000B8F70895F999FECF92BD81BDF89A99274F
:1057D00080B50895A6E1B0E044E050E00C94D42BED
:1057E000A8E1B0E042E050E00C94D42BDC01A40F1F
:1057F000B51F4150504048F0CB01840F951F2E91AA
:105800000E94072C41505040D0F70895262FF99957
:10581000FECF92BD81BDF89A019700B4021639F00F
:105820001FBA20BD0FB6F894FA9AF99A0FBE0895E0
:105830000396272F0E94072C0E94062C252F0E94DA
:10584000072C242F0C94072C0196272F0E94072C3D
:105850000C94062C052E97FB1EF400940E94412CFC
:1058600057FD07D00E945C2C07FC03D04EF40C942B
:10587000412C50954095309521953F4F4F4F5F4FAC
:10588000089590958095709561957F4F8F4F9F4FAC
:1058900008950E947E2CA59F900DB49F900DA49F0B
:1058A000800D911D11240895B7FF0C94492C0E947E
:1058B000492C821B930B0895A1E21A2EAA1BBB1B35
:1058C000FD010DC0AA1FBB1FEE1FFF1FA217B307CC
:1058D000E407F50720F0A21BB30BE40BF50B661FE2
:1058E000771F881F991F1A9469F7609570958095A6
:1058F00090959B01AC01BD01CF010895A29FB0011D
:10590000B39FC001A39F700D811D1124911DB29FF3
:10591000700D811D1124911D08950E94A12C0C94DD
:10592000822D0E947B2D58F00E94742D40F029F4A6
:105930005F3F29F00C946B2D51110C94B62D0C94F3
:10594000712D0E94932D68F39923B1F3552391F3A0
:10595000951B550BBB27AA2762177307840738F0DE
:105960009F5F5F4F220F331F441FAA1FA9F335D03B
:105970000E2E3AF0E0E832D091505040E695001CEF
:10598000CAF72BD0FE2F29D0660F771F881FBB1FA9
:10599000261737074807AB07B0E809F0BB0B802D87
:1059A000BF01FF2793585F4F3AF09E3F510578F0B3
:1059B0000C946B2D0C94B62D5F3FE4F3983ED4F31A
:1059C000869577956795B795F7959F5FC9F7880F87
:1059D000911D9695879597F90895E1E0660F771FD9
:1059E000881FBB1F621773078407BA0720F0621B6A
:1059F000730B840BBA0BEE1F88F7E09508950E9495
:105A00009B2D88F09F5798F0B92F9927B751B0F088
:105A1000E1F0660F771F881F991F1AF0BA95C9F732
:105A200014C0B13091F00E94B52DB1E008950C94EE
:105A3000B52D672F782F8827B85F39F0B93FCCF3A1
:105A4000869577956795B395D9F73EF490958095AF
:105A5000709561957F4F8F4F9F4F0895E89409C0CF
:105A600097FB3EF490958095709561957F4F8F4F91
:105A70009F4F9923A9F0F92F96E9BB279395F695A7
:105A8000879577956795B795F111F8CFFAF4BB0F25
:105A900011F460FF1BC06F5F7F4F8F4F9F4F16C089
:105AA000882311F096E911C0772321F09EE8872F13
:105AB000762F05C0662371F096E8862F70E060E0CF
:105AC0002AF09A95660F771F881FDAF7880F969548
:105AD000879597F9089597F99F6780E870E060E0EF
