:100000000C94FB030C9418040C9418040C9418041E
:100010000C9418040C9418040C9418040C941804F0
:100020000C9418040C9418040C9445170C94811625
:100030000C94851C0C9418040C9418040C9418044B
:100040000C9418040C9418040C9418040C941804C0
:100050000C9418040C94291C0C9418040C94180487
:100060000C9418040C9418040C9418040C941804A0
:100070000C9418040C9418040C9418040C94180490
:100080000C9418040C9418040C9418040C94180480
:100090000C9418040C9418040C9418040C94180470
:1000A0000C9418040C9418040C941804C807CA077C
:1000B000D507CC07CE07D007D207D407D707D90773
:1000C000DB07E607DD07DF07E107E307E507E807EA
:1000D0008A088A08C808C80804091D0BC40A1D0B31
:1000E00024091D0B210A210A2E0A2E0A2E0A2E0A85
:1000F0002E0A2E0A2E0A2E0A2E0A2E0A2E0A2E0A40
:100100002E0A2E0A2E0A2E0A3F0A670A6C0A730A62
:100110008B0AE20BE50BE80BEB0BEE0BF10BF40B90
:100120009214B9145916B9145916011524155916F3
:1001300022163516C21EC51EC81ECB1ED01ED51EC9
:10014000D31EB423B423C723C723BD23C723C72388
:10015000C723B423B423C223C723C723C223350034
:100160002B003100E100000F00001E0034000400ED
:10017000330031004E001F00360012001400E00072
:100180004C002000370008000D00E2002A0021008A
:10019000130018000E00E3004B0022001C000C00AE
:1001A0001B0000004A0029002F0000000151000040
:1001B0004D0002533000000001510000A90023004F
:1001C0000900070005000000AE0024000A000B0033
:1001D00010005000AA002500060017001A00510068
:1001E0002C002600150011001900520028002700DD
:1001F0000F0016001D004F00A8002E0038002D0033
:10020000E500000F000046000100010001000100B0
:1002100000003A00010001000100010001003B0064
:100220000100010001000100C95C3C000100010067
:10023000E1000100CA5C3D0001000100E200010094
:1002400001003E0001000100E3000000C35C035315
:100250000100000001000000C25C0100010000007C
:10026000010000006A003F000100010001000000E1
:10027000F45C4000010050000100010069004100F1
:100280005200510001000100C55C420001004F0016
:1002900001000100C65C43000100010001000100F3
:1002A0000100440045000100010001000000005C65
:1002B0000100010001000100000001000100010037
:1002C0000100010001000100010001000100010026
:1002D0000100010001000100010001000100010016
:1002E0000100010001000100010001000100010006
:1002F00001000000010001000100000001000000F9
:1003000001000100010000000100000001000100E7
:100310000100010001000000010001005F005C001D
:10032000590062000100540060005D005A00620044
:100330000100550061005E005B00630001002A00BF
:10034000560057005800580001000100010001004C
:100350000100010000000100010001000100045142
:1003600000001E00140004001D00010001001F0019
:100370001A0016001B000100010020000800070001
:10038000060001000100210015000900190001000C
:100390000100220017000A00050000000100010012
:1003A0000100000001000000010001000100000048
:1003B00001000000010023001C000B0011000000E0
:1003C0000100240018000D001000010001002500AC
:1003D0000C000E00360001000100260012000F0084
:1003E000370001000100270013003300380001002E
:1003F00001002E0001002D00010001000000460058
:10040000010001000100010000003A0001000100AC
:100410000100010001003B0001000100010001009A
:1004200001003C00010001000100010001003D004D
:10043000010001000100010001003E000100010077
:1004400001000000010001000100000001000000A7
:1004500001000100010000000100000001003F0058
:100460000100010001000000010040000100010046
:100470000100010001004100010001000100010034
:1004800001004200010001000100010001004300E1
:1004900001000100010001000100440045000100CD
:1004A000010001000000000000000000000000004A
:1004B0000101010101010101010202020202020225
:1004C00002030303030303030404040404050505F2
:1004D00005050606060606070707070808080809AF
:1004E00009090A0A0A0B0B0B0C0C0C0D0D0D0E0E54
:1004F0000E0F0F10101011111212131314141515E2
:1005000016161717181819191A1A1B1C1C1D1D1E50
:100510001F1F20212122232324252526272828299F
:100520002A2B2C2C2D2E2F303131323334353637C7
:1005300038393A3B3C3D3E3F4041424344454647C3
:1005400048494B4C4D4E4F50525354555758595A99
:100550005C5D5E606163646567686A6B6C6E6F7139
:1005600072747677797A7C7D7F8182848687898BA5
:100570008D8E9092949597999B9D9FA1A2A4A6A8D9
:10058000AAACAEB0B2B4B6B9BBBDBFC1C3C5C8CAD0
:10059000CCCED0D3D5D7DADCDEE1E3E6E8EAEDEF86
:1005A000F2F4F7F9FCFFFFAA7F554005010980A18D
:1005B0000185031601002603001A81002A830075B5
:1005C0001095018100C0050C0901A10185041601E7
:1005D00000269C021A01002A9C02751095018100D8
:1005E000C005010906A1018505050719E029E715E0
:1005F0000025019508750181020508190129059555
:1006000005750191029501750391010507190029EE
:10061000EF1500250195F075018102C0050109065D
:10062000A101050719E029E71500250195087501C5
:1006300081029501750881010508190129059505B3
:10064000750191029501750391010507190029FFB4
:10065000150026FF00950675088100C009023B00C1
:10066000020100A0FA0904000001030101000921B0
:10067000110100012240000705810308000A090456
:100680000100010300000009211101000122710095
:100690000705820320000A1201100100000008ED86
:1006A000FE071301000102030104033000000016DD
:1006B000034500720067006F0044006F007800205F
:1006C0000045005A00000016034500720067006FE5
:1006D0000044006F007800200045005A000000042C
:1006E00003090400047F3F1F643214643214783C11
:1006F0001E1E140A052223252628292A2C2D2F30D8
:1007000032333536383A3B3D3E4042434547494A0D
:100710004C4E5051535557595A5C5E60626466683E
:10072000696B6D6F71737577797B7D7F8183858749
:10073000898A8C8E90929496989A9C9E9FA1A3A54C
:10074000A7A8AAACAEAFB1B3B4B6B8B9BBBCBEBF74
:10075000C1C2C3C5C6C7C9CACBCCCDCED0D1D2D2F7
:10076000D3D4D5D6D7D7D8D9D9DADADBDBDBDCDC02
:10077000DCDCDCDDDDDDDDDCDCDCDCDCDBDBDBDABA
:10078000DAD9D9D8D7D7D6D5D4D3D2D2D1D0CECD25
:10079000CCCBCAC9C7C6C5C3C2C1BFBEBCBBB9B832
:1007A000B6B4B3B1AFAEACAAA8A7A5A3A19F9E9CB7
:1007B0009A98969492908E8C8A89878583817F7D82
:1007C0007B79777573716F6D6B6968666462605E63
:1007D0005C5A5957555351504E4C4A49474543422C
:1007E000403E3D3B3A3836353332302F2D2C2A29C6
:1007F00028262523220011241FBECFEFDAE0DEBF1A
:10080000CDBF11E0A0E0B1E0EAEFF1E502C0059054
:100810000D92AE3EB107D9F723E0AEEEB1E001C0D4
:100820001D92A336B207E1F70E947D190C94FB28B4
:100830000C9400008F929F92AF92BF92CF92DF9262
:10084000EF92FF920F931F93CF93DF93CDB7DEB755
:1008500028970FB6F894DEBF0FBECDBFFC01F08025
:10086000118183819481892B09F41EC71F3F21F4D4
:100870000FEFF01609F418C76F0185E0DE0111963D
:1008800001900D928A95E1F7F601228189819A8182
:10089000222349F00E94BA1D082F682F89819A816E
:1008A0000E94331E03C00E94061E082F26E0129FDE
:1008B000F001112434E5039FE00DF11D1124EF0D2B
:1008C000F11DEE0FFF1FE25AFE4F05911491F60144
:1008D0008281053FFCE51F0791F0063F2CE51207DA
:1008E00031F0043F3CE5130709F069C004C08823D8
:1008F00009F4DAC633C0882309F4D6C64BC088236E
:1009000009F4D2C69091C20281E089278093C20285
:10091000CBC61092EF01F60192810A3CFCE51F075D
:1009200009F46AC208F430C1013D2CE5120709F44C
:10093000D5C240F1053DECE51E0709F4F5C208F407
:1009400074C10D3D8CE5180709F4F9C20E3DECE5C4
:100950001E0709F072C1992309F4A6C628960FB69E
:10096000F894DEBF0FBECDBFDF91CF911F910F91E5
:10097000FF90EF90DF90CF90BF90AF909F908F90BF
:100980000C941C1D0D3C8CE5180709F038C1992307
:1009900009F48AC681E028960FB6F894DEBF0FBE30
:1009A000CDBFDF91CF911F910F91FF90EF90DF901E
:1009B000CF90BF90AF909F908F900C94E80E8823BB
:1009C00019F1033E8CE51807C1F050F4013EECE547
:1009D0001E0781F0023EFCE51F07B1F481E010C064
:1009E000043E2CE5120759F0053E3CE5130761F47F
:1009F00084E006C01092270205C082E001C083E0B7
:100A0000809327020E94FE0E17FF73C0F6018281B9
:100A1000882309F46EC08091F5018093EE01109255
:100A2000F50180912702813071F048F08230D1F0D9
:100A30008430F1F486EE0E94272688E117C082EE0A
:100A40000E943A2615C08AE99BE00E946A1388E159
:100A50000E943A2688E10E94CB258AE89BE00E940A
:100A60006A1306C082EE0E943A2687E50E94272676
:100A70008FE39CE90197F1F700C000007801E8944A
:100A8000F7F85CE0A52EB12CC7010A2C02C09695A0
:100A900087950A94E2F7282F2F7041F0822F90E07B
:100AA0002A3010F44D9604C0069702C087E290E009
:100AB0000E94272694E0A91AB108ECEFAE16EFEFDA
:100AC000BE0611F780912702813039F040F0823064
:100AD00031F0843051F488E206C08CE204C082EE2A
:100AE0000E94CB2502C00E9427268091EE018093B0
:100AF000F501003FFCE51F07C1F188F4083D3CE526
:100B00001307D9F0093D8CE51807D9F1073D9CE59D
:100B1000190709F0FECE26E241EE61EE11C0023F58
:100B2000ECE51E0751F128F1033F2CE5120709F00F
:100B3000F0CE27E246EE66EE03C027E245EE65EE14
:100B4000C60128960FB6F894DEBF0FBECDBFDF9169
:100B5000CF911F910F91FF90EF90DF90CF90BF90BA
:100B6000AF909F908F900C94C22226E240EE60EEF0
:100B7000E7CF27E244EE64EEE3CF26E242EE62EEF8
:100B8000DFCF28E241E0DBCF033C3CE5130709F46B
:100B9000C4C0E8F40531ECE51E0778F40230FCE54A
:100BA0001F0708F0D3C101152CE5120709F44AC04C
:100BB00001301C4509F488C064C206318CE5180771
:100BC00009F42BC2023C1C4509F487C05AC2063CFA
:100BD000FCE51F0709F4E3C050F4043C3CE51307AF
:100BE00009F4B6C0053C1C4509F4CDC04AC2083C16
:100BF000ECE51E0709F4E9C008F4DDC0F3C00E3CC3
:100C0000ECE51E0750F40B3CFCE51F0709F416C188
:100C10000C3C1C4509F41BC134C20F3C3CE51307D6
:100C200009F446C108F439C14EC1033D2CE5120751
:100C300009F46AC108F45DC16CC10C3D1C4509F0A2
:100C400020C277C1992309F42FC51092F5010E94A3
:100C5000A3250FEF14E32CE0015010402040E1F7F2
:100C600000C00000F89481E08093E00080E280936F
:100C7000D8001092C9008FE19EE40197F1F700C0FF
:100C800000001DBA109268001CBC10BE1FBA109262
:100C90007A0010926E0010926F0010927100109204
:100CA00072001092C9001092BC0014B817B81AB89C
:100CB0001DB810BA1092BC0015B818B81BB81EB8F1
:100CC00011BA0C94003FF0C4992309F4EDC480914B
:100CD0004E02816080934E02E7C4992309F4E4C474
:100CE0008091630280FF14C028960FB6F894DEBF8F
:100CF0000FBECDBFDF91CF911F910F91FF90EF906D
:100D0000DF90CF90BF90AF909F908F900C941E0D6E
:100D100081608093630286953ECE992309F4C4C412
:100D20008091F5018272D9F028960FB6F894DEBF53
:100D30000FBECDBFDF91CF911F910F91FF90EF902C
:100D4000DF90CF90BF90AF909F908F900C94EB0E60
:100D5000992309F4A9C48091F501827229F3289698
:100D60000FB6F894DEBF0FBECDBFDF91CF911F91BC
:100D70000F91FF90EF90DF90CF90BF90AF909F903A
:100D80008F900C94F40E992309F48EC48091640220
:100D900021E04091660260916502845F3BC0992327
:100DA00009F482C48091640221E04091660260915E
:100DB00065028C502FC0992309F476C460916502B6
:100DC0002FEF620F08F46FEF09C0992309F46CC488
:100DD000609165022FEF621B08F460E021E0409112
:100DE000660216C0992309F45FC4409166022CE0A4
:100DF000420F08F44FEF09C0992309F455C44091FC
:100E000066022CE0421B08F440E021E0609165029C
:100E10008091640228960FB6F894DEBF0FBECDBF56
:100E2000DF91CF911F910F91FF90EF90DF90CF90C6
:100E3000BF90AF909F908F900C94010E992309F46E
:100E400033C480916702833060F48F5F08C09923B8
:100E500009F42AC480916702882319F08150809395
:100E600067026091630270916402809165029091C3
:100E7000660228960FB6F894DEBF0FBECDBFDF9195
:100E8000CF911F910F91FF90EF90DF90CF90BF9087
:100E9000AF909F908F900C94020D992309F404C495
:100EA0000E94E70C8250833008F459CF82E073CD62
:100EB000992309F4F9C30E94E70C8650823008F4A4
:100EC0004ECF86E068CD992309F4EEC30E94E70C6B
:100ED0008950853008F443CF89E05DCD992309F42A
:100EE000E3C30E94E70C8F50853008F438CF8FE0C1
:100EF00052CD992309F4D8C30E94E70C8551823062
:100F000008F42DCF85E147CD992309F4CDC388E1BD
:100F100042CD992309F4C8C30E94E70C8951893056
:100F200008F41DCF89E137CD992309F4BDC383E2CD
:100F300032CD992309F4B8C310922402B5C3992382
:100F400009F4B2C382E080932402AEC3992309F46A
:100F500098C00E94111D811102C00E941C1D84E0D6
:100F600090E00E944B2790E090933A0280933902E0
:100F7000F801E350FC45E231F10530F4EA5AFF4F45
:100F8000809139020C94BB2780913902816027C07F
:100F9000826025C0846023C0806121C080621FC040
:100FA00080641DC080681BC08460886018C08E7F0C
:100FB00016C08D7F14C08B7F12C08F7E10C08F7DB6
:100FC0000EC08F7B0CC08F770AC08B7F877F07C0D6
:100FD00087FB222720F991E0922790FB87F98093E5
:100FE00039026091390284E090E00E945F271092FC
:100FF000F50128960FB6F894DEBF0FBECDBFDF9186
:10100000CF911F910F91FF90EF90DF90CF90BF9005
:10101000AF909F908F900C94A3258091F501992318
:1010200089F0982F9A7A81E009F480E08093F001AA
:10103000811102C069E201C065E38AE692E00E9484
:10104000D91C0BC08091F001811102C069E201C07E
:1010500065E38AE692E00E94AE1C28960FB6F894EB
:10106000DEBF0FBECDBFDF91CF911F910F91FF90DB
:10107000EF90DF90CF90BF90AF909F908F900C94A7
:10108000741DF60100811181992349F0C8010E9465
:10109000BA1DF82E682FC8010E94331E04C0C80173
:1010A0000E94061EF82EB8018F2D0E94040F182FE3
:1010B000382FF601258122952F700281011110929F
:1010C00000038091FE028770A9F0002399F080E26E
:1010D000810F883078F082E02F8338879E830E94CA
:1010E000801F8091FE028770EE24E3942F81388563
:1010F0009E818111E12CA92EA2944FE0A422B12C53
:10110000FCE0AF16B10408F098C2F501E859FF4FB2
:101110000C94BB27892F807F9F70F92E882319F0AC
:10112000F29480EFF8220023B9F0FF2009F416C2F0
:1011300080E2810F883010F0311106C09091F501E6
:10114000F92AF092F50105C090910003F92AF09276
:1011500000030E94741D02C2812F38870E94CB2594
:101160003885FF2009F469C2105EF094183010F041
:10117000311106C09091F501F922F092F50105C0F8
:1011800090910003F922F09200030E94741D55C251
:10119000492F407F892F8F70403211F08295807FD8
:1011A000332319F03130E9F025C0002381F030916C
:1011B0000103222351F0213041F4982F932B39174A
:1011C00009F43BC29093010338C2832B4FC1222301
:1011D00019F0213009F431C28E830E946E1D8E8178
:1011E0004BC1002321F0223008F027C23FC121115A
:1011F00024C242C1002321F0222309F437C1AEC129
:10120000222309F439C1BCC1292F269526952370C4
:1012100030E02115310521F02130310559F00DC2A2
:10122000002319F0812F937002C080E090E00E94AB
:10123000A02211C2002319F0812F937002C080E018
:1012400090E00E948A2207C2892F837009F079C03A
:101250000111FFC1812F829586958770880F880FB5
:10126000412F4F7050E060E070E04A015B01082EB2
:1012700004C0880C991CAA1CBB1C0A94D2F714FF4A
:1012800014C04FE050E060E070E08A019B0104C0B0
:10129000000F111F221F331F8A95D2F7B901A80131
:1012A000409550956095709503C040E050E0BA01BC
:1012B000969596959370892F90E000910203109176
:1012C0000303209104033091050382309105A9F0B6
:1012D00083309105E9F0019759F0482959296A2985
:1012E0007B29CB01BA01602371238223932326C07B
:1012F000802A912AA22AB32A1BC0482959296A297F
:101300007B29CB01BA01602771278227932716C05A
:10131000CB01BA0160237123822393230E94BA1F59
:1013200040910203509103036091040370910503FF
:10133000CB01BA01682979298A299B290E94BA1F01
:1013400088C1002319F0892F817001C086958823F8
:1013500009F47FC1812F829586958770880F880F49
:10136000412F4F7050E060E070E04A015B01082EB1
:1013700004C0880C991CAA1CBB1C0A94D2F714FF49
:1013800014C04FE050E060E070E08A019B0104C0AF
:10139000000F111F221F331F8A95D2F7B901A80130
:1013A000409550956095709503C040E050E0BA01BB
:1013B000969596959370892F90E00091FA0210917E
:1013C000FB022091FC023091FD0282309105A9F0D0
:1013D00083309105E9F0019759F0482959296A2984
:1013E0007B29CB01BA01602371238223932326C07A
:1013F000802A912AA22AB32A1BC0482959296A297E
:101400007B29CB01BA01602771278227932716C059
:10141000CB01BA0160237123822393230E94631EB0
:101420004091FA025091FB026091FC027091FD0222
:10143000CB01BA01682979298A299B290E94631E58
:1014400008C1412F50E0FA01E05EF109E531F105F4
:1014500008F07FC0EC58FF4F0C94BB271F70892FFA
:101460008F71002331F00E94991F812F0E94C125A6
:10147000E4C00E945B1F812F0E94B625DEC00023BE
:1014800011F12111DAC0292F2F7181E090E0A0E045
:10149000B0E0AC01BD0104C0440F551F661F771FAB
:1014A0002A95D2F78091FA029091FB02A091FC025A
:1014B000B091FD028A019B01082719272A273B27A3
:1014C000C901B80125C0223008F0B7C0DCCF002325
:1014D00029F0892F8F712EC00023D9F3892F8F71A6
:1014E0000E945B1FAAC0002381F0292F2F7181E089
:1014F00090E0A0E0B0E0BC01CD0104C0660F771F12
:10150000881F991F2A95D2F703C060E070E0CB01D5
:101510000E94631E92C0002381F0192F1F71812F3A
:101520000E94991F28E0129FC001112483608093BC
:10153000FE02812F0E94991F80C081E02F830E94AC
:10154000801F2F81223008F478C082E00E94801F23
:1015500074C0002339F0222309F4BBCF812F0E94ED
:101560003A266BC0222309F4B9CF193349F43FEF6F
:1015700083EC99E0315080409040E1F700C00000DA
:10158000812F0E94CB2559C0323FB1F028F4303F63
:1015900049F0313FF9F028C0343FB9F058F0353FF9
:1015A00071F022C0002309F456C090915E0381E0DF
:1015B000892708C081E0082700935E034CC0011111
:1015C0004AC081E080935E0346C0011144C010927E
:1015D0005E0341C0002329F080915D03882329F335
:1015E00029C0222311F337C080915D032223C1F06B
:1015F000882341F090915E0381E0892780935E0308
:1016000010925D03812F002319F00E943A2623C017
:101610000E94CB2586E0F60111928A95E9F71BC05E
:101620008823C9F0011117C090915E0381E08927DA
:1016300080935E0310925D030EC0F8E0AF16B10414
:1016400041F04CF01AE0A11AB10822E0A216B10450
:1016500010F40E94B622EE2039F18091FE0280FD46
:1016600023C0F60112828595859585950E94991F64
:10167000C6010E941A048091FE0285958595859584
:1016800028960FB6F894DEBF0FBECDBFDF91CF9185
:101690001F910F91FF90EF90DF90CF90BF90AF9090
:1016A0009F908F900C945B1F28960FB6F894DEBF26
:1016B0000FBECDBFDF91CF911F910F91FF90EF90A3
:1016C000DF90CF90BF90AF909F908F9008959091B2
:1016D000390292FF0DC0282F2871283019F4877F16
:1016E000846006C0282F2471243011F48B7F886019
:1016F00093FF0DC0282F2871283119F4877E84614B
:1017000006C0282F2471243111F48B7E886194FD4A
:10171000877E0895282F277081E090E001C0880F10
:101720002A95EAF78095909100038923809300031E
:101730000C94741D282F277081E090E001C0880F61
:101740002A95EAF790910003892B809300030C946B
:10175000741DCF93E82F873058F580911201909136
:101760001301892B09F042C0CE2F80E40E94201380
:101770009093130180931201892BB1F482E10E94AE
:10178000F9129093130180931201892B69F481E07F
:1017900090E001C0880FCA95EAF780950E94F9127F
:1017A000909313018093120184E98093BC001EC0C2
:1017B00090E0FC013797E730F105C0F4E757FF4FA1
:1017C0000C94BB27209A289811C0219A29980EC002
:1017D000229A2A980BC0239A2B9808C0529A5A989A
:1017E00005C0539A5B9802C03E9A4698CF910895DF
:1017F000CF93DF93873008F047C08091120190911A
:101800001301892B09F049C080E40E9420139093B2
:10181000130180931201892B11F080E031C083E124
:101820000E94F9129093130180931201892BA9F75A
:1018300081E40E9420139093130180931201892B5D
:1018400061F784E88093BC000E94791CEC019091C0
:10185000BC0097FD0EC00E94791C8C1B9D0B84362A
:101860009105A8F38EEF9FEF9093130180931201DF
:10187000D4CF8091BB008095109213011092120179
:1018800094E99093BC000AC09FB18FB1807F869588
:1018900086959370892B809501C080E0DF91CF9170
:1018A0000895EF92FF920F931F93CF93DF93809150
:1018B000630280FF2EC0EFB6F090BC00F8948091D8
:1018C000BC008B7F8093BC008BB18C7F8BB9509810
:1018D000589A5198599A35E03A95F1F700008AB133
:1018E0008C7F8AB985E08A95F1F70000519A599862
:1018F000E5E0EA95F1F70000509A5898F5E0FA957E
:10190000F1F7000084E80E942F23CDE0D3E08E01A0
:101910000DC080E090E0FC01E35FFC4F118210827B
:10192000128204968C339105B1F7C5CFF3E00934E8
:101930001F0731F0F80181918F010E942F23F6CF0C
:101940005098589A35E03A95F1F700005198599A15
:1019500085E08A95F1F70000EFBEF092BC00579A3F
:101960008BB18F779BB190682FB7F894E3E0C934BF
:10197000DE0789F0399148E09BB9000000C037FFCD
:101980008BB9330F000000C000C000C08BB900C08D
:101990004A9591F7EBCF2FBFDF91CF911F910F9118
:1019A000FF90EF9008959091630290FF0FC020E0A8
:1019B00030E0F901E35FFC4F8183608342832C5F59
:1019C0003F4F2C333105A9F70C94510C08958091A9
:1019D000630280FF02C08695089580E0089580919B
:1019E0006302282F269530E02115310519F4817006
:1019F000826005C02532310524F0817088648093AF
:101A000063020895CF93DF9300D000D0CDB7DEB747
:101A1000AB01BC0149835A836B837C830E94EF0C2A
:101A200049815A816B817C8188E090E00F900F9012
:101A30000F900F90DF91CF910C947127E3E6F2E0C5
:101A400080818E7F808360817181828193810E94F9
:101A5000020D109269022FEF80E792E02150804042
:101A60009040E1F700C000000C94510CE3E6F2E076
:101A700083E0808311828FEF82838383148260816D
:101A80007181828193810C94020DAF92BF92CF92AB
:101A9000DF92EF92FF920F931F93CF93DF93D82E95
:101AA000C62EE901E42FF0E0611106C0EA55FB4FB4
:101AB0008491E82F482F7CC0E62EF12C26E0829FEF
:101AC000C00111240FEF10E0B8010E9493275BEAD8
:101AD00056039001579F300D11242D0D311D2D0DF2
:101AE000311D822F880F280FC8018E199F098E9FE4
:101AF000D0018F9FB00D9E9FB00D11249B2F2C9D68
:101B000060011124CD2CDD245801AC18BD08AE9E17
:101B10006001AF9ED00CBE9ED00C11245801A21AB9
:101B2000B108AE9C9001AF9C300DBE9C300D1124CD
:101B3000232F3327021B130B0E9F90010F9F300D95
:101B40001E9F300D1124832F6230710591F04CF4EB
:101B500061157105F1F061307105C9F4842F4D2DC7
:101B600018C06430710571F04CF06630710589F071
:101B70000EC0E42F4B2F932F8E2F0BC08D2DE42FF3
:101B80004B2F03C0E42F432F8B2F9E2F02C08B2F90
:101B90009D2DE42FF0E0EA55FB4F4491E82FF0E053
:101BA000EA55FB4F8491E92FF0E0EA55FB4FE491B1
:101BB00049838883EA83DF91CF911F910F91FF9032
:101BC000EF90DF90CF90BF90AF900895CF93DF93C9
:101BD00000D000D0CDB7DEB79091630290FF0AC06D
:101BE0009E012F5F3F4F0E94450D4B8169818A8185
:101BF0000E94D30C0F900F900F900F90DF91CF9118
:101C000008955F926F927F928F929F92AF92BF9250
:101C1000CF92DF92EF92FF920F931F93CF93DF93B8
:101C200000D000D0CDB7DEB7182F762E042F622E4D
:101C30009091630290FF6DC0E92FE695AE2FB0E062
:101C4000A05EBE4F8C91809368029E7F923061F4BB
:101C50009E012F5F3F4F812F0E94450D4B8169816F
:101C60008A810E94D30C43C0823019F4009166022D
:101C70003EC0863019F41091640239C08930D9F31E
:101C80008931A9F5E9518E2F8170582EE695F0E043
:101C9000EA55FA4FA590B4908DE0C82E83E0D82E77
:101CA000E12CF12CBB249FE0892E912CEA9CC001F1
:101CB000EB9C900DFA9C900D1124B4010E94932787
:101CC000812F511002C0860F01C0861B9601402F44
:101CD000672D0E94450D8FEFE81AF80A84E0C80EC0
:101CE000D11C8FE0E816F10409F70E94510C109303
:101CF00064027092650200936602662051F0609162
:101D000063027091640280916502909166020E9464
:101D1000020D0F900F900F900F90DF91CF911F91B8
:101D20000F91FF90EF90DF90CF90BF90AF909F907A
:101D30008F907F906F905F9008959091630290FFD5
:101D40003DC09170811102C0926006C0853210F0D2
:101D5000986402C0880F982B90936302662351F019
:101D600060916302709164028091650290916602B5
:101D70000E94020D60916302669570E04BE050E0B6
:101D800086E091E00E94EE28892B19F010926902FA
:101D900009C081E0809369020E94791C90935E02E1
:101DA00080935D0281E08093600220E040916602B2
:101DB00060916502809164020C94010E0895E3E63F
:101DC000F2E080818160808360E086950C949D0EB6
:101DD00061E00C949D0E809163028695815009F418
:101DE00084E261E00C949D0E8091630286958F5F82
:101DF000853208F081E061E00C949D0E609127022D
:101E00008CE090E00C945F27CF93DF9326E0729FE5
:101E1000F001112434E5839FE00DF11D1124E60F3C
:101E2000F11DEE0FFF1FE25AFE4FC591D491CE0176
:101E3000C238D10549F1B0F4C133D10509F464C009
:101E400048F4C932D10509F458C0CA32D10509F4A1
:101E500062C068C0C533D10509F448C0C933D10593
:101E600099F060C0C33ED10541F138F4C03ED105C0
:101E700091F0C23ED105B1F055C0C63ED10521F169
:101E8000C73ED10561F14EC02091390220FD14C238
:101E900021FD12C213C22091390220FF0FC289E333
:101EA00090E00CC22091390222FF08C280913902D1
:101EB00084FDB4C183EE90E001C28091390282FFBB
:101EC000F5CF82EE90E0FAC12091390223FFF6C1EE
:101ED0008091390284FDA2C187EE90E0EFC180912C
:101EE000390283FFF5CF86EE90E0E8C120913902F8
:101EF00025FFE4C189E290E0E1C12091390225FF8C
:101F0000DDC185E390E0DAC12091390226FFD6C118
:101F10008AE290E0D3C12091390226FFCFC181E34C
:101F200090E0CCC1C11520E5D20708F047C0C1152B
:101F300030E4D30708F034C1C83ED10518F5C03EDF
:101F4000D10508F0BBC1C83AD10570F4C53AD10536
:101F500008F0B0C0C130D10509F4B0C108F45EC1C9
:101F6000249708F45BC1AAC1CF3BD10508F4ADC0EA
:101F7000C03CD10508F452C1FE01EE0FFF1FEA5D1F
:101F8000FC4F02C1C11520E2D20760F4C11531E057
:101F9000D30708F093C1C03FD10508F43FC1CE017B
:101FA00090658CC1C11580E3D80708F0F0C0FE0130
:101FB000FF70EE0FFF1FEA55FB4FE6C0C11595E518
:101FC000D90708F044C0C11524E5D20708F000C1C4
:101FD000C11532E5D30710F5C11581E5D80708F022
:101FE000E3C02C2F237081E090E002C0880F991F7E
:101FF0002A95E2F79C689E0174E0369527957A95BC
:10200000E1F72370922BEC2FEF70E695E69530E226
:10201000E39FF00111248E2B9F2B50C18C2F8695AE
:102020008695AE0143705527C115D34508F0C1C050
:1020300090E2899F9001112481E090E002C0880F16
:10204000991F4A95E2F7822B932B9C6837C1C115E3
:102050002AE5D207A0F4C11539E5D30708F0C6C0B8
:10206000C11586E5D80708F4B8C0C11598E5D907A9
:1020700008F4D4C09C2F8827806F906A1FC1C115B7
:102080002BE5D20708F4CAC0CE01C1153CE5D30741
:1020900008F4C1C090568115904208F0BFC08D2F42
:1020A0008F710E94670BFE01FF27F0628F719F0105
:1020B000382BAFC0C53AD10509F4B3C0C63AD10533
:1020C00009F0B2C082E890E4F9C0C83AD10509F439
:1020D000AEC0C93AD10509F4ADC0CA3AD10509F478
:1020E000ACC0CB3AD10509F4ABC0CC3AD10509F468
:1020F000AAC0CB3BD10509F4A9C0CC3BD10509F45A
:10210000A8C0CD3AD10509F4A7C0C03BD10509F458
:10211000A6C0CE3AD10509F4A5C0CF3AD10509F43D
:10212000A4C0C13BD10509F4A3C0C23BD10509F449
:10213000A2C0C33BD10509F4A1C0C43BD10509F439
:10214000A0C0C53BD10509F49FC0C63BD10509F429
:102150009EC0C73BD10509F49DC0C83BD10509F419
:102160009CC0C93BD10509F49BC0CD3BD10509F406
:102170009AC0CE3BD10509F499C0CA3BD10509F4F8
:1021800098C080E094E49AC08591949197C09E0194
:102190003327C901D3FF02C0986C90C0906C8EC0E9
:1021A000CE019F70906A8AC09C2F8827816F906AA9
:1021B00085C090E2899F9001112481E090E002C0E7
:1021C000880F991F4A95E2F7822B932B9A6876C065
:1021D0009C2F8827846F906A71C08C2F0E94670B98
:1021E0008F7190E0982F8827906268C08C2F8F7035
:1021F0000E94670BFE0194E0F695E7959A95E1F74A
:10220000EF70F0E0FE2FEE27F06A8F70806E9F0176
:10221000282BC90153C09927906650C080E090E0F8
:102220004DC081E890E44AC083E890E447C082EE64
:1022300094E444C089EE94E441C08AEE94E43EC044
:1022400085EB94E43BC086EB94E438C083EB94E4E4
:1022500035C084EB94E432C087EB94E42FC08CEC5F
:1022600094E42CC08DEC94E429C083E895E426C066
:102270008AE895E423C082E995E420C084E995E4E6
:102280001DC081E296E41AC083E296E417C084E29E
:1022900096E414C085E296E411C086E296E40EC08E
:1022A00087E296E40BC08FE694E408C080E794E4EC
:1022B00005C08AE296E402C080EE90E0DF91CF9103
:1022C000089580E290E09093130180931201809131
:1022D000F301811111C01092B9008CE08093B80015
:1022E00081E08093F3012FEF83ED90E32150804054
:1022F0009040E1F700C0000080E40E94201390931A
:10230000130180931201892B09F040C080E00E94E4
:10231000F9129093130180931201892BB9F580E093
:102320000E94F9129093130180931201892B71F589
:102330008FE30E94F9129093130180931201892B6D
:1023400029F584E98093BC0080E40E9420139093D7
:10235000130180931201892BC9F48CE00E94F912B9
:102360009093130180931201892B81F480E00E94E5
:10237000F9129093130180931201892B39F48FE3A2
:102380000E94F912909313018093120184E98093C3
:10239000BC0080911201089556985E9825982D985A
:1023A00026982E9827982F988FEF90E09093890089
:1023B0008093880090938B0080938A0090938D0087
:1023C00080938C00259A2D9A2FEF80E792E0215080
:1023D00080409040E1F700C00000269A2E9A2FEF2F
:1023E00080E792E0215080409040E1F700C000007B
:1023F000279A2F9A2FEF80E792E02150804090405B
:10240000E1F700C0000025982D982FEF80E792E0BB
:10241000215080409040E1F700C0000026982E989F
:102420002FEF80E792E0215080409040E1F700C01C
:10243000000027982F9856985E9825982D982698F2
:102440002E9827982F98089584B1807F84B985B1FC
:10245000807F85B98AB1837F8AB98BB1837F8BB93D
:102460003E984698089580B38C7080BB81B3836F8B
:1024700081BB0895AF92BF92CF92DF92EF92FF920D
:102480000F931F93CF93DF938091120190911301CB
:10249000892B91F08091F2018F5F8093F20181117D
:1024A0000BC00E94611190E0909313018093120180
:1024B000892B11F40E94CC110BE212E022E3E22EF0
:1024C00022E0F22E6801C0E0D0E097E0A92EAC0E29
:1024D0008C2F0E94A90B8A2D0E94A90B8C2F0E9481
:1024E000F80BF6019081981721F08083BB24B394F8
:1024F00001C0B12C8A2D0E94F80BF701908198172A
:1025000019F0808381E001C080E0B82ADB290E94B5
:102510002412CF5FFFEFCF1ADF0A8FEFE81AF80A15
:10252000C73099F60E94791C6AEF70E00E949327E9
:102530009C01682F8091F101882309F44CC010920E
:10254000F101E0912502F0912602DF011E9690E054
:102550007BEF8AEFE82EF12C80818B3FA9F0482F8A
:1025600050E0681728F06901C41AD50AA60106C010
:102570006701C41AD50AA601420F531F4F305105F7
:1025800014F0708301C091E03196EA17FB0721F740
:102590009093F101D11102C091111FC0A0912502A9
:1025A000B09126028091F101EFE3F2E02EE02E0FD0
:1025B0003081E80199918E014C914B3F29F43917F4
:1025C00019F06C93908381E0119631962E13F0CF21
:1025D0008093F10102C0D111E1CF81E0DF91CF9171
:1025E0001F910F91FF90EF90DF90CF90BF90AF9031
:1025F0000895CF93DF938093BB0084E88093BC0061
:102600000E94791CEC019091BC0097FD0AC00E94C9
:10261000791C8C1B9D0B84369105A8F38EEF9FEFE0
:102620000CC02091B900287F81E090E0283211F49D
:1026300080E090E0919581959109DF91CF91089587
:102640000F931F93CF93DF93C82F1092BC0084EA9F
:102650008093BC000E94791C8C019091BC0097FD76
:102660000AC00E94791C801B910B84369105A8F347
:102670008EEF9FEF2AC09091B900987F983041F07B
:102680009091B900987F903119F08FEF9FEF1DC0A6
:10269000C093BB0084E88093BC000E94791CEC01CD
:1026A0009091BC0097FD08C00E94791C8C1B9D0B6B
:1026B00084369105A8F3DCCF8091B900887F8831FA
:1026C00011F0803411F780E090E0DF91CF911F91FD
:1026D0000F910895CF93DF93EC0180EEFE010995F1
:1026E00081EEFE01DF91CF910994CF92DF92FF92AC
:1026F0000F931F93CF93DF931F92CDB7DEB7F82EC2
:102700008B0199830E949418998181111CC0CF2C50
:10271000D92E01151105B1F08091E80085FD0AC0A0
:102720008091E8008E778093E8000E9494188823B7
:1027300081F309C0F60181916F018093F10001508E
:102740001109E7CF80E00F90DF91CF911F910F919A
:10275000FF90DF90CF9008951F93CF93DF93CDB775
:10276000DEB7AA970FB6F894DEBF0FBECDBFECE17F
:10277000F2E088E08E0F9091F10091938E13FBCFE1
:1027800080911D02833009F460C030F4813071F013
:10279000823009F49CC0B3C08A3009F488C08B3001
:1027A00009F46BC0893009F0AAC020C080911C02D6
:1027B000813A09F0A4C08091E800877F8093E80007
:1027C0008091200290912102892B21F460E288EF10
:1027D00091E003C060E080E090E070E00E941A1990
:1027E0008091E8008B778093E80089C080911C027B
:1027F000813209F084C080912002909121020297D9
:1028000008F07DC08091E800877F8093E800809188
:10281000E80082FD05C080911A028111F8CF6FC0D7
:102820002091F3008091F20090E0922B029729F41E
:102830008091F1008B7F813021F48091F1008093B1
:10284000F7018091E8008B7756C080911C02813A95
:1028500009F055C08091200290912102892B09F046
:102860004EC08091E800877F8093E8008091E80067
:1028700080FFFCCF8091110139C080911C02813210
:10288000F1F58091200290912102892BC1F5809170
:10289000E800877F8093E8000E94C61880911E029E
:1028A000809311011092F5010E94A32528C0809108
:1028B0001C02813221F58091E800877F8093E80037
:1028C0000E94C61880911F028093F60118C0809163
:1028D0001C02813AA1F48091E800877F8093E80090
:1028E0008091E80080FFFCCF8091F6018093F10099
:1028F0008091E8008E778093E8000E94C61880914E
:10290000E80083FFD6C180911C0290911D02492FDF
:1029100050E04A30510508F0CCC1FA01E057FF4FB2
:102920000C94BB27803821F0823809F0C2C108C05E
:102930008091180290911902992389F082600FC04A
:10294000809120028F70873008F0B3C18093E90036
:102950008091EB0085FB882780F91092E900909127
:10296000E800977F9093E8008093F1001092F100C7
:1029700074C1282F2D7F09F09CC1882319F0823063
:1029800061F097C180911E02813009F092C19330AD
:1029900009F080E0809319022EC080911E028111FF
:1029A0002AC0809120028F702FEF280F263008F068
:1029B00080C18093E9002091EB0020FF1CC0933080
:1029C00021F48091EB00806214C09091EB00906143
:1029D0009093EB0021E030E0A90102C0440F551FA5
:1029E0008A95E2F74093EA001092EA008091EB00AA
:1029F00088608093EB001092E9008091E800877F67
:102A00002FC1811156C110911E021F778091E300E2
:102A10008078812B8093E3008091E800877F80930A
:102A2000E8000E94C6188091E80080FFFCCF8091EA
:102A3000E30080688093E300111102C082E001C0CE
:102A400083E080931A0235C18058823008F031C18A
:102A500080911E0290911F028C3D53E0950779F5FD
:102A600083E08A838AE289834FB7F894DE01139664
:102A700020E03EE051E2E32FF0E050935700E49174
:102A800020FF03C0E295EF703F5FEF708E2F90E064
:102A9000EA3010F0C79601C0C0968D939D932F5FCA
:102AA000243149F74FBF8091E800877F8093E80089
:102AB0006AE270E0CE0101960E941A19BDC04091F1
:102AC000200250912102292F332723303105B9F0FC
:102AD0006CF42130310509F4FBC02230310509F0D6
:102AE000E8C08BE390E0ECE5F6E054C0213231051C
:102AF00009F433C02232310509F43CC0DAC0992709
:102B000081309105D1F05CF4892B09F0D2C0EFED52
:102B1000F6E0E4918E2F90E0EFEDF6E038C08230E1
:102B2000910599F0039709F0C4C0E9EAF6E0E49151
:102B30008E2F90E0E9EAF6E02AC0E7ECF6E0E491B7
:102B40008E2F90E0E7ECF6E022C0EFEAF6E0E491A9
:102B50008E2F90E0EFEAF6E01AC04115510509F416
:102B6000BCC04130510509F0A4C089E090E0E7E81D
:102B7000F6E010C04115510509F4B4C041305105CB
:102B800009F097C081E790E0EBEAF5E003C0009719
:102B900009F48FC02091E800277F2093E80020915E
:102BA0002202309123022817390708F4C90140E0B6
:102BB000009789F120911A02222309F43DC02530A3
:102BC000D9F12091E80023FD37C02091E80022FDD3
:102BD0002FC02091E80020FFEBCF4091F30020911F
:102BE000F20030E0342B009759F02830310540F4E2
:102BF00044914093F100319601972F5F3F4FF3CFFF
:102C000041E02830310509F040E02091E8002E77BE
:102C10002093E800CDCF4111CDCF0AC080911A0298
:102C2000882351F0853041F08091E80083FD04C095
:102C30008091E80082FFF2CF8091E8008B7780934B
:102C4000E80037C08038A9F58091E800877F80933D
:102C5000E80080911B028093F1008091E8008E775C
:102C60008093E8000E94C61824C0811122C01091F0
:102C70001E021230F0F48091E800877F8093E80014
:102C800010931B020E94C618111106C08091E30028
:102C900087FD02C081E001C084E080931A0242E017
:102CA00061EC81E00E94E51842E261EC82E00E9462
:102CB000E5188091E80083FF1AC08091E800877FC3
:102CC0008093E8008091EB0080628093EB000FC05E
:102CD00082E190E0E7E9F6E05DCF89E090E0EEE6A2
:102CE000F6E058CF80E490E0ECE1F6E053CFAA960E
:102CF0000FB6F894DEBF0FBECDBFDF91CF911F910D
:102D000008951F920F920FB60F9211242F933F93A5
:102D10004F935F936F937F938F939F93AF93BF93E3
:102D2000CF93DF93EF93FF93C091E900CF70809131
:102D3000EC00D82FD17080FDD0E81092E90080918E
:102D4000F000877F8093F00078940E94AC1310927B
:102D5000E9008091F00088608093F000CD2BCF7067
:102D6000C093E900FF91EF91DF91CF91BF91AF91B7
:102D70009F918F917F916F915F914F913F912F9193
:102D80000F900FBE0F901F901895E8EDF0E0808136
:102D90008E7F80831092E2001092DA001092E100A0
:102DA000A0EEB0E08C9181608C9380818F778083DE
:102DB00019BCA7EDB0E08C918E7F8C9380818F7EC3
:102DC00080831092F4010895CF92DF92EF92FF92E8
:102DD0000F931F93CF93DF93C8EDD0E088818F7E50
:102DE0008883E7EDF0E080818160808384E082BFAA
:102DF00081E08093F40188818E7F888302EE10E069
:102E0000F80110821092DA0081EEC82ED12CF60162
:102E1000108288818F778883888180688883888101
:102E20008F7D888319BC10921A0210921B02109297
:102E300019021092180290EEE92EF12CF701808110
:102E40008B7F808388818160888342E060E080E0BE
:102E50000E94E518F60180818E7F8083F8018081D1
:102E600081608083808188608083F70180818E7F8C
:102E70008083888180618883DF91CF911F910F913A
:102E8000FF90EF90DF90CF9008951F920F920FB6B2
:102E90000F9211242F933F934F935F936F937F93E0
:102EA0008F939F93AF93BF93EF93FF938091E10034
:102EB00082FF09C08091E20082FF05C08091E1009D
:102EC0008B7F8093E1008091DA0080FF2AC080919F
:102ED000D80080FF26C08091DA008E7F8093DA00D0
:102EE0008091D90080FF18C080E189BD82E189BD51
:102EF00009B400FEFDCF81E080931A028091F401B5
:102F000081110FC00E94C5160E94E4168091E20054
:102F100084608093E20005C019BC10921A021092DE
:102F2000F4018091E10080FF17C08091E20080FFF2
:102F300013C08091E2008E7F8093E2008091E200D6
:102F400080618093E2008091D80080628093D800F5
:102F500019BC85E080931A028091E10084FF34C09F
:102F60008091E20084FF30C080E189BD82E189BDAB
:102F700009B400FEFDCF8091D8008F7D8093D800EA
:102F80008091E1008F7E8093E1008091E2008F7E4E
:102F90008093E2008091E20081608093E200809162
:102FA0001B02882311F084E007C08091E30087FDB5
:102FB00002C081E001C083E080931A021092F50103
:102FC0000E94A3250E94B6228091E10083FF27C0C2
:102FD0008091E20083FF23C08091E100877F80938E
:102FE000E10082E080931A0210921B028091E100BE
:102FF0008E7F8093E1008091E2008E7F8093E200DB
:103000008091E20080618093E20042E060E080E035
:103010000E94E5188091F00088608093F000FF9195
:10302000EF91BF91AF919F918F917F916F915F9140
:103030004F913F912F910F900FBE0F901F901895B9
:10304000CF93DF9300D01F92CDB7DEB79C01909154
:103050002402911105C080911A02843049F504C000
:10306000923011F0943021F584E089833B832A83E8
:1030700082E08093E9008FEF9091E800815095FD08
:1030800006C095ED9A95F1F700008111F5CF80917A
:10309000E80085FF0DC040E050E063E070E0CE0145
:1030A00001960E9475138091E8008E778093E80066
:1030B0000F900F900F90DF91CF910895CF93DF93F2
:1030C00000D01F92CDB7DEB720911A02243031F51F
:1030D00023E02983805891099B838A8382E080932F
:1030E000E9008FEF9091E800815095FD06C095EDC5
:1030F0009A95F1F700008111F5CF8091E80085FFE6
:103100000DC040E050E063E070E0CE0101960E9407
:1031100075138091E8008E778093E8000F900F90F0
:103120000F90DF91CF9108952091E4003091E50058
:1031300095E64091EC00842F817040FF22C0809181
:10314000E80080FD1CC080911A02882391F0853030
:1031500091F08091EB0085FD10C04091E40050910A
:10316000E5004217530729F39A01915011F784E0C3
:10317000089582E0089583E0089581E0089580E055
:1031800008954091E80042FFDECF089580911C022F
:1031900087FF11C08091E80082FD05C080911A026E
:1031A0008111F8CF11C08091E8008B770BC080911E
:1031B0001A02882349F08091E80080FFF8CF8091BF
:1031C000E8008E778093E8000895982F973058F59F
:1031D0009093E900981739F07091EC002091ED0080
:1031E0005091F00003C0242F762F50E021FF19C02A
:1031F0003091EB003E7F3093EB003091ED003D7F4E
:103200003093ED003091EB0031603093EB00709320
:10321000EC002093ED005093F0002091EE0027FF8A
:1032200007C09F5FD3CF8F708093E90081E008953E
:1032300080E008952091220230912302261737075B
:1032400048F06115710539F42091E8002E7720933C
:10325000E80001C0B90140E061157105A9F12091B4
:103260001A02222309F443C0253009F442C02091F8
:10327000E80023FD40C02091E80022FD32C02091EB
:10328000E80020FFE9CF4091F3002091F20030E008
:10329000342BFC01CF016115710559F0283031053F
:1032A00040F481918093F100615071092F5F3F4F8D
:1032B000F1CF41E02830310509F040E02091E800ED
:1032C0002E772093E800C8CF4111C9CF0AC0809162
:1032D0001A02882361F0853061F08091E80083FD57
:1032E0000AC08091E80082FFF2CF80E0089582E07A
:1032F000089583E0089581E00895CF93DF93CDB7DB
:10330000DEB72C970FB6F894DEBF0FBECDBF84B7E3
:10331000877F84BF0FB6F894A8958091600088617C
:1033200080936000109260000FBE80E8809361007F
:103330001092610085B7806885BF85B7806885BFBA
:103340000E94C5160E94E4168091E200846080937A
:10335000E200789480911A028823A1F01091E9008C
:103360001F709091EC00892F817090FD80E8182BE0
:103370001092E9008091E80083FD0E94AC131F7059
:103380001093E90082E084BD93E095BD9AEF97BD6C
:1033900080936E000E94611190E0909313018093DE
:1033A00012010E9424120E943312ABE2B2E0EFE35A
:1033B000F2E09EE0D92EDE0E11921D92DE12FCCFBD
:1033C0008EE090E00E94C127809325029093260210
:1033D000FC010E962BEF2193E817F907E1F70E9405
:1033E000111D811102C00E941C1D8CE090E00E9402
:1033F0004B2790E0A0E0B0E0809327029093280252
:10340000A0932902B0932A0289EA8093800089E080
:103410008093810024982C983F988AB18F7C8AB938
:103420006E98479A8BB180638BB9769A0E94CC11C3
:103430000E94111D811102C00E941C1D82E090E0BB
:103440000E944B2780934E0284E090E00E944B271D
:1034500090E090933A028093390283E090E00E94DA
:103460004B27682F70E080E090E00E94BA1F8091A7
:103470003B02811138C080914E02816080934E02E0
:103480000E94111D811104C00E941C1D0E94360D56
:1034900088E090E00E945327609363027093640277
:1034A00080936502909366026E7F71F40E94360DE0
:1034B00088E090E00E945327609363027093640257
:1034C00080936502909366020E94EF0C109269024D
:1034D0008091630280FF04C060E086950E949D0E8B
:1034E00081E080933B0284E191E090933D028093E0
:1034F0003C0283EEE82E86E0F82E80911A02853099
:1035000009F047C080911A02843021F110923E02E6
:1035100020E488E190E00FB6F894A89580936000CD
:103520000FBE2093600083B7817F846083BF83B721
:10353000816083BF7894889583B78E7F83BF0FB6F1
:10354000F894A89580916000886180936000109243
:1035500060000FBE80911902882309F4CECF0E942B
:10356000611190E090931301809312010E94241244
:103570000E943312EFE3F2E01192DE12FDCF0E94BF
:103580003A12EFE3F2E081918111FDC0DE12FBCF30
:10359000B4CF0E943A12EFE4F2E0AFE3B2E000E011
:1035A00010E0302F2D9141914227B9F180E090E059
:1035B00050E0682F5A01082E02C0B594A7940A94CF
:1035C000E2F7A0FE26C089833A8381E090E05C01A7
:1035D00002C0AA0CBB1C6A95E2F7822F90E08A21F8
:1035E0009B2121E0892B09F420E02B830E94791C88
:1035F0008160782F9D838C8349815A816B818D8175
:103600000E94B421F801E15BFD4F8081A826A082D1
:103610001AC001968630910561F60F5F1F4F0E307C
:10362000110509F0BECF8FEF8E838F8318860E941D
:10363000791C8160782F9A8789874E815F816885A0
:103640008A850E94B42110914D020E94B62218175B
:1036500021F00E94B62280934D0280916902882356
:1036600009F44BCF80916802E0916302E695E81B74
:10367000E0935F02823049F4F0E0EF50F94FE491BB
:103680000E2F10E020EA31E248C0863049F4F0E025
:10369000E251F94FE4910E2F10E020E931E23DC0F4
:1036A000893051F4E695F0E0E551F94FE4910E2FA1
:1036B00010E024E231E231C08F3051F4E695F0E0C1
:1036C000E851F94FE4910E2F10E024EB30E225C0D1
:1036D000853149F4F0E0EB51F94FE4910E2F10E001
:1036E00028E530E21AC0883179F0833231F4F701ED
:1036F000059114912EE431E210C0843251F404EFAC
:1037000011E02BEE3FE109C008EE13E023E230E2C6
:1037100004C000ED17E02EEC3FE1809160028823A9
:10372000A9F0109260022B873C870E94791CA801A7
:1037300040955095840F951F90935E0280935D0293
:1037400010926202109261023C852B8580915D028D
:1037500090915E022B873C870E944F1C2B853C85F5
:103760008017910708F4C9CEE0915D02F0915E02E6
:103770000E0F1F1F10935E0200935D028DE592E015
:10378000F9010995BACE80E189BD82E189BD09B40C
:1037900000FEFDCF8091D8008F7D8093D80080916E
:1037A000E00082608093E0008091E00081FDFCCF2A
:1037B000A4CE08958091F7010895CF93DF932091CF
:1037C0002402211103C020911A0202C0223011F0FC
:1037D0002430E1F520911101222339F020913902A2
:1037E00027FF03C060E222E002C068E021E02093EE
:1037F000E9002FEF3091E800215035FD06C035ED8E
:103800003A95F1F700002111F5CF2091E80025FF4E
:103810001DC0EC0180911101811105C040E050E014
:1038200068E070E003C070E040E050E0CE010E942C
:1038300075138091E8008E778093E80080E2FE01A6
:10384000A8EFB1E001900D928A95E1F7DF91CF9159
:10385000089578941F920F920FB60F9211248F93B0
:103860009F93AF93BF938091060390910703A0911C
:103870000803B09109030196A11DB11D80930603B1
:1038800090930703A0930803B0930903BF91AF91EE
:103890009F918F910F900FBE0F901F901895CF9210
:1038A000DF92EF92FF920F931F932FB7F8944091FE
:1038B00006035091070360910803709109032FBF1D
:1038C0006A017B01EE24FF248C0120E030E0C01669
:1038D000D106E206F30610F4415051099A01281B63
:1038E000390BC9011F910F91FF90EF90DF90CF909E
:1038F00008952FB7F8948091060390910703A09143
:103900000803B09109032FBF08951F920F920FB6BD
:103910000F9211248F939F93AF93BF9380913E0298
:10392000811113C08091060390910703A0910803B1
:10393000B09109034196A11DB11D80930603909398
:103940000703A0930803B0930903BF91AF919F9120
:103950008F910F900FBE0F901F901895209111011D
:10396000222321F02091390227FD04C0FC01329668
:10397000089619C0262F2695269526952E31C0F437
:10398000FC01E20FF11D677081E090E001C0880F3B
:103990006A95EAF78095928189238283089531960A
:1039A000E817F90729F020812613F9CF1082F7CF05
:1039B000089520911101222321F02091390227FD41
:1039C00005C0FC0132962FEF30E019C0262F269556
:1039D000269526952E3120F5FC01E20FF11D67702A
:1039E00081E090E001C0880F6A95EAF79281892B07
:1039F000828308952F3F39F03F5F363041F0419187
:103A00004613F8CF0DC04111F7CF232FF5CF2F3F2D
:103A100039F0FC01E20FF11D27FDFA95628308954C
:103A2000089580E090E00E94592721E08D3E9E4F4E
:103A300009F020E0822F08956DEE7EEF80E090E0A7
:103A40000E947D2760E082E090E00E945F2760E0B6
:103A500083E090E00E945F2710920203109203031C
:103A6000109204031092050360E084E090E00E944D
:103A70005F2760E085E090E00E945F2760E086E0DD
:103A800090E00E945F276FEF87E090E00E945F2741
:103A900040E050E0BA0188E090E00E94712760E0C9
:103AA0008DE090E00E945F2740E050E0BA0188E19D
:103AB00090E00E94712760E087E190E00E945F271C
:103AC00040E050E0BA018FE090E00E94712740E0B2
:103AD00050E0BA0183E190E00C94712780910103DA
:103AE0008111109201030895909100038091F501D6
:103AF000892B2091FF02982F922B90936A0280913C
:103B000001038823D9F0892B80936A0280911101E7
:103B1000882331F08091390287FF02C08EE101C015
:103B200086E0ECE6F2E090E0815028F0219122233B
:103B3000D9F39F5FF9CF91110E946E1DE0913C0275
:103B4000F0913D023097A9F080911101882359F03E
:103B50008091390287FF07C080916A0280936B02CF
:103B600085E080936A020280F381E02D8AE692E08C
:103B700009940895BF92CF92DF92EF92FF920F9334
:103B80001F93CF93DF938C01C0900203D090030367
:103B9000E0900403F09005038091FA029091FB02FB
:103BA000A091FC02B091FD02C82AD92AEA2AFB2A78
:103BB000CFE1D0E0D701C6010C2E04C0B695A79581
:103BC000979587950A94D2F780FF07C0BC2EB8015D
:103BD0008C2F0E94040F019719F4219758F7B12CEC
:103BE0008B2DDF91CF911F910F91FF90EF90DF9080
:103BF000CF90BF900895CF93DF93EC010E94BA1D40
:103C0000BE010E94040FDF91CF910895292F220F4A
:103C1000920F990F890F682F669566956695982F74
:103C2000977085E0689FB001112440E050E080E08B
:103C3000FA01E60FF71FED53FD4F208130E0092E0A
:103C400002C0369527950A94E2F721703327042E97
:103C500001C0220F0A94EAF7822B4F5F5F4F453075
:103C6000510531F70895292F220F920F990F890FCF
:103C7000A82FA695A695A695877051E001C0550F6F
:103C80008A95EAF785E0A89FD001112420E030E072
:103C900070E0F901EA0FFB1FED53FD4F4081CB01AE
:103CA000022E02C0969587950A94E2F781709927B3
:103CB000819584278523842780832F5F3F4F25307C
:103CC000310539F70895CF92DF92EF92FF920F936B
:103CD0001F936B017C01AC016627772741155105C5
:103CE0006105710511F080E103C0B701A60180E014
:103CF000052F162F272F3327011511052105310513
:103D000019F0885FB901A8018A019B01F4E036959A
:103D1000279517950795FA95D1F7011511052105F6
:103D2000310519F08C5FB901A8018A019B01E2E01D
:103D30003695279517950795EA95D1F70115110541
:103D40002105310519F08E5FB901A80176956795B7
:103D500057954795452B462B472B09F08F5F569873
:103D60005E9825982D9826982E9827982F98482F5A
:103D700050E0FA013197E730F105E0F4E656FF4FE5
:103D80000C94BB27259A2D9A20C0269A2E9A2CC0D7
:103D9000279A2F9A38C0259A2D9A269A2E9A42C091
:103DA000259A2D9A04C0259A2D9A269A2E9A279AFA
:103DB0002F9A49C08230C1F018F4813031F043C0ED
:103DC000833009F1843071F13EC08091C2028111CB
:103DD00062C00E94DF0E60E081E00E949D0E20E044
:103DE0004FEF6FEF80E02CC08091C202811153C071
:103DF0000E94DF0E60E081E00E949D0E20E04FEF08
:103E00006FEF86E51DC08091C202811144C00E94FF
:103E1000DF0E60E081E00E949D0E20E04FEF6FEF2B
:103E20008CEA0EC08091C202811135C00E94DF0E63
:103E300060E081E00E949D0E20E04FEF6FEF87ED84
:103E40000E94010E28C08091C202811124C088E026
:103E500090E00E9453276093630270936402809302
:103E6000650290936602862F60FF13C08160809385
:103E7000630286950E94E80E8091630286950E94F7
:103E8000E80E21E040916602609165028091640233
:103E9000D7CF0E941E0DC092FA02D092FB02E09290
:103EA000FC02F092FD021F910F91FF90EF90DF90C6
:103EB000CF900C9495250F931F9341E050E060E064
:103EC00070E004C0440F551F661F771F8A95D2F714
:103ED00040955095609570958091FA029091FB0203
:103EE000A091FC02B091FD028A019B0108231923D5
:103EF0002A233B23C901B8011F910F910C94631E23
:103F00002091FE02809582238093FE02982F977065
:103F100079F430E0482F082E000C550B2417350794
:103F200039F08595859585950E945B1F1092FE025C
:103F300008950F931F9341E050E060E070E004C0EB
:103F4000440F551F661F771F8A95D2F78091FA029A
:103F50009091FB02A091FC02B091FD028A019B01AD
:103F6000082B192B2A2B3B2BC901B8011F910F914C
:103F70000C94631E60930203709303038093040305
:103F8000909305030C9495258091C1029091900225
:103F9000891719F08F5F8770FBCF089508958823E4
:103FA00019F05198599A02C0519A59985098589AB4
:103FB00095E09A95F1F70000509A589895E09A95F7
:103FC000F1F70000882311F0519A599885E08A95FD
:103FD000F1F700000895EF92FF920F931F93CF9394
:103FE000DF937C01CDE0D3E000E010E0F7018481B5
:103FF000073011051CF4882339F002C0811104C078
:104000009E014091660202C09E0140E060916502FF
:10401000809164020E94450D0F5F1F4F24960F3060
:10402000110521F70E94510CF701248130E02F5F28
:104030003F4F217033272483DF91CF911F910F9140
:10404000FF90EF900895EF92FF920F931F93CF93FD
:10405000DF93EC012C813D812F5F3F4F217033278F
:104060003D832C838DE0E82E83E0F82E10E005E5FB
:10407000812F86954C815D81480F511D842F817061
:1040800097014091660260916502809F802D112406
:104090000E94450D1F5F84E0E80EF11C1F3041F7C0
:1040A000DF91CF911F910F91FF90EF900C94510CE5
:1040B0000F931F93CF93DF9380E090E0FC01E35FC9
:1040C000FC4F11821082128204968C339105B1F755
:1040D000C0E0D0E00FE010E0CE01B8010E94A727B9
:1040E000FC0180910B03082E000C990BEE0FFF1FB3
:1040F000EE0FFF1FC817D907A4F080911F01082EEB
:10410000000C990B8C179D0764F09F01235F3C4FB7
:104110004091660260916502809164020E94450DA3
:1041200005C0E35FFC4F1182108212822196CF30CE
:10413000D10591F60E94510C80911E0190910B03C4
:10414000980F90930B0320911F01280F20931F01BC
:10415000121614F49E301CF0819580931E01DF919D
:10416000CF911F910F910895AF92BF92CF92DF929E
:10417000EF92FF920F931F93CF93DF93FC01828105
:1041800080FF03C0BB24BA9402C0BB24B3942DE0CB
:10419000E22E23E0F22E0FE013E0C0E0D0E0F801C1
:1041A00031971082F7011082F801108294E0C92E35
:1041B000D12CA12C80910A038A0D87FD815F082EE6
:1041C000000C990BC817D90791F4809166028C9D59
:1041D000A0018D9D500D11245595479555954795F6
:1041E000970160916502809164020E94450DAB0CBD
:1041F000F1E0CF1AD108F1F6219684E0E80EF11C27
:104200000C5F1F4FCF30D10551F60E94510C8091A9
:104210000A0391E0B91206C0811102C08EE007C006
:10422000815005C090E00196BE010E94A7278093AF
:104230000A03DF91CF911F910F91FF90EF90DF90D4
:10424000CF90BF90AF900895EF92FF921F93CF93BE
:10425000DF93EC018DE0E82E83E0F82E10E08C81F6
:1042600097014091660260916502810F0E94450DA1
:104270001F5E84E0E80EF11C1F3F89F70E94510C7D
:104280008A819C8180FF02C09F5F01C091509C8306
:10429000DF91CF911F91FF90EF9008950F931F939F
:1042A000CF93DF9300D000D0CDB7DEB78C018091E3
:1042B0000C0381110AC09E012F5F3F4F4FEF6FEF3C
:1042C0000E94450D8A8180930C03F801848181301E
:1042D00051F028F0823061F440910C030AC08091C3
:1042E0000C0340E007C060910C0340E080E003C095
:1042F00040E080E060E00E94D30CF801248130E0CF
:10430000C901019663E070E00E94A72784830F90A3
:104310000F900F900F90DF91CF911F910F91089503
:10432000CF93DF93EC01E3E6F2E0438162818C817D
:104330000E94E60D8C818F5F8C83DF91CF91089571
:10434000CF93DF93EC01EC81F0E0EB50F94F449117
:10435000E3E6F2E0628181810E94E60D8C818F5F4D
:104360008C83DF91CF910895EF92FF920F931F936B
:10437000CF93DF93CDB7DEB767970FB6F894DEBF64
:104380000FBECDBF4B8B5C8B6D8B7E8B8F8B0E8965
:104390001F8901151105C1F15F3F11F44F3FA1F1D4
:1043A000E42EF12CA1E0B0E0042E01C0AA0F0A9483
:1043B000EAF7852F90E0662319F020915E0306C08E
:1043C0009C01215B3C4FF90120812A232223A9F083
:1043D00046E0489F9001499F300D1124F701E20FFC
:1043E000F31FEE0FFF1FEB5BFE4F40815181FC017D
:1043F000E15BFC4F9081A92B06C0FC01E15BFC4F07
:10440000A0958081A823A08386E0FE013D96DF0170
:10441000982F1D929A95E9F74D875E876F87198BC4
:10442000088BDE01179601900D928A95E1F7CE0177
:1044300007960E94CB23811137C086E0FE01379694
:10444000DE01119601900D928A95E1F7FF81E885D2
:104450006A857B856115710539F1EF3F11F4FF3FE6
:1044600019F12091900230E0C901019687709927D7
:104470004091C10250E08417950779F1F983EA83EE
:104480007D836C8396E0929FD001939FB00D1124A1
:10449000AF56BD4FFE01319601900D929A95E1F70E
:1044A000809390020E94C41F16E08091C1029091F7
:1044B0009002891711F1189FC00111248F569D4F4A
:1044C0000E94CB238823C9F08091C10290E001961D
:1044D000877099278093C102E8CF1092F5010E945E
:1044E000A325109290021092C102EAE8F2E086E061
:1044F000DF011D928A95E9F7D7CF67960FB6F8943A
:10450000DEBF0FBECDBFDF91CF911F910F91FF9006
:10451000EF90089520914D0330914E038217930739
:1045200071F090934E0380934D03E0913C02F09123
:104530003D02309721F00084F185E02D0994089523
:1045400020914B0330914C038217930771F09093A5
:104550004C0380934B03E0913C02F0913D02309775
:1045600021F00680F781E02D09940895E0913C0246
:10457000F0913D02309721F00190F081E02D0994F7
:1045800080E008950F931F93CF93DF93C62FD42F0E
:10459000022FFC0182818823C9F06093EF010E9401
:1045A000791C90934A038093490380E28C0F8830F2
:1045B00008F050C0C77081E001C0880FCA95EAF7C3
:1045C000DF91CF911F910F910C94C1251091EF01B4
:1045D000161330C08091490390914A030E944F1CEA
:1045E000883C910538F5C0E2CD0F1D17B9F080E287
:1045F000810F883040F4177081E001C0880F1A9550
:10460000EAF70E94B625C83048F481E09D2F9770E4
:1046100001C0880F9A95EAF70E94C125802F0E9459
:104620002726C830B8F4D77081E001C0880FDA952A
:10463000EAF70AC080E28C0F883060F4C77081E02E
:1046400001C0880FCA95EAF7DF91CF911F910F91B2
:104650000C94B625DF91CF911F910F910895CF93C0
:10466000DF93D82FC8E08D2F80780E94CF1FDD0FF9
:10467000C150C9F780E00E94CF1F85E08A95F1F70D
:10468000000085E08A95F1F7000080E0DF91CF918E
:10469000089580918F0282958F7009F054C08091A7
:1046A0008C02882309F44FC08091C102A09190022E
:1046B00060918A0270918B0240918D0250918E021E
:1046C000B6E08A1709F43FC090E041155105C1F1E9
:1046D0007F3F11F46F3FA1F1B89FF001B99FF00D3A
:1046E0001124EF56FD4F218172132AC020816213DD
:1046F00027C02281211124C023813481241735074A
:1047000010F421503109241B350B283C3105C0F42D
:1047100020918F022F70206120938F0226E0289F26
:10472000F001299FF00D1124EA56FD4F80818F7012
:10473000806180838AE892E00E941A040C94C41F6E
:1047400001968770BECF08950E94FB1D292F2F7000
:1047500092959F70E92FF0E03297EE30F105B8F4B2
:10476000EF55FF4F0C94BB27803F99F018F4803E23
:1047700070F40FC0843F59F40CC0803E50F0813F6C
:1047800031F407C0822F869586958695089580E03E
:10479000089581E00895BF92CF92DF92EF92FF9249
:1047A0000F931F93CF93DF93CDB7DEB761970FB60B
:1047B000F894DEBF0FBECDBF8C0185E0F801DE01AD
:1047C0001D9601900D928A95E1F7D8013C911196C2
:1047D0002C9111971296EC9012971396CD90DC9035
:1047E000149750918A0260918B0280918D02909172
:1047F0008E02009709F44FC16F3F19F45F3F09F42F
:104800004AC1B0908C02BB2009F4ECC040918F02E9
:10481000C816D90628F0F601E81BF90BCF0104C031
:10482000809590958C0D9D1DFF24F394883C9105F7
:1048300048F0F12C407F09F09FC08AE892E00E9486
:104840001A0421C1842F807F09F044C0621312C072
:10485000531310C0E1100EC04F70406140938F029F
:104860008AE892E00E941A0480918F02D80115967E
:104870008C932EC0CD2819F12F3F11F43F3FF9F052
:10488000FE2CE1101CC08091C1024091900256E0C4
:10489000841709F458C090E0589FF001599FF00D1B
:1048A0001124EF56FD4F6181261306C06081361337
:1048B00003C06281611103C001968770E9CFFE2CAD
:1048C000EE2009F421C180918F02816080938F02D4
:1048D000F12C1AC162130AC0531308C0E11006C0BC
:1048E00080918F02D80115968C93B0C03D872E879A
:1048F0008D859E850E94A4238823D1F1EE20C1F1ED
:1049000020918F02822F82958F7090E0029774F031
:1049100080918A0290918B0298878F831986DB861B
:10492000CA862C87CE0107960E941A0486E0F801F9
:10493000AAE8B2E001900D928A95E1F70E9449231E
:10494000FF24F394E1C03D872E878D859E850E94CC
:10495000FB1D292F22952F7030E0223031050CF0FD
:10496000C7C09F7009F0C1C0805E883008F4CCC019
:10497000C8010E941A04E4CF621314C0531312C07A
:10498000E11010C080918F02F8018583C8010E9458
:104990001A0486E0EAE8F2E0DF011D928A95E9F761
:1049A000FB2CB2C03D872E878D859E850E94A42357
:1049B0008823F1F2EE20E1F220918F02822F82957E
:1049C0008F7090E002970CF4B1CF80918A029091A1
:1049D0008B029A8389831B82DD82CC822E83CE0157
:1049E0000196A2CFC816D90638F0C81AD90AB8EC71
:1049F000CB16D10450F007C0809590958C0D9D1D6D
:104A0000883C910510F0F12C3EC0FE2CEE2009F4FC
:104A1000AFCF621327C0531325C020918F0220FD12
:104A200018C0822F82958F70482F50E04115510594
:104A300081F0F80125834F30510541F08F5F982FA9
:104A40009295907F822F8F70892B8583C8010E9459
:104A50001A0486E0F801AAE8B2E001900D928A9566
:104A6000E1F752C03D872E878D859E850E94A42345
:104A700081115CCF80918F02816080938F02C80189
:104A80000E941A0441C0EAE8F2E086E0DF011D92CC
:104A90008A95E9F739C0EE2009F46ACF3D872E8761
:104AA0008D859E850E94A423F82E882309F460CF6B
:104AB00086E0F801AAE8B2E001900D928A95E1F74C
:104AC00080918A0290918B020E94FB1D92959F70AB
:104AD000963041F480915E0391E0892780935E03D4
:104AE00090935D030E9449230FC081113DCF0CC0FC
:104AF000243031050CF03CCF9F7009F435CFF8011C
:104B00009581907F09F030CF8F2D61960FB6F89484
:104B1000DEBF0FBECDBFDF91CF911F910F91FF90F0
:104B2000EF90DF90CF90BF90089510920003109205
:104B3000FF020E94741D80E090E00E94A02280E0AD
:104B400090E00C948A2280911101882331F08091A9
:104B5000390287FF02C08EE101C086E0ECE6F2E098
:104B6000DF011D928A95E9F70C949525882341F081
:104B700080959091F50189238093F5010C94741D23
:104B80000895882339F09091F501892B8093F501E0
:104B90000C94741D0895882309F458C0682F823836
:104BA00069F40E94B62281FF51C069E38AE692E06F
:104BB0000E94D91C0E94741D69E30EC0833891F4D1
:104BC0000E94B62280FF42C063E58AE692E00E941E
:104BD000D91C0E94741D63E58AE692E00E94AE1C17
:104BE0000C94741D843869F40E94B62282FF2EC092
:104BF00067E48AE692E00E94D91C0E94741D67E473
:104C0000EBCF8CEF860F813A38F380E2860F883045
:104C100070F4677081E090E001C0880F6A95EAF750
:104C200080959091F50189238093F501D9CF8BE58B
:104C3000860F833020F480E090E00C94A022685A24
:104C4000673120F480E090E00C948A220895CF939D
:104C5000C82F0E943A26C93349F42FEF83EC99E01C
:104C6000215080409040E1F700C000008C2FCF9190
:104C70000C94CB25882309F40DC1682F8238B1F438
:104C80000E94B62281FD06C169E38AE692E00E9495
:104C9000D91C0E94741D2FEF81EE94E021508040BA
:104CA0009040E1F700C0000069E317C08338D9F4F1
:104CB0000E94B62280FDEEC063E58AE692E00E9483
:104CC000D91C0E94741D2FEF81EE94E0215080408A
:104CD0009040E1F700C0000063E58AE692E00E94A0
:104CE000AE1C0C94741D8438B1F40E94B62282FD6F
:104CF000D1C067E48AE692E00E94D91C0E94741D2C
:104D00002FEF81EE94E0215080409040E1F700C009
:104D1000000067E4E2CF8CEF860F813A28F48AE640
:104D200092E00E94D91CDDCF80E2860F883068F4C3
:104D3000677081E090E001C0880F6A95EAF7909172
:104D4000F501892B8093F501CCCF8BE5860F83305D
:104D500070F4653A29F0663A31F083E890E005C0D6
:104D600081E890E002C082E890E00C94A02288E5FF
:104D7000860F873108F08EC0683A09F445C0693A59
:104D800009F445C06A3A09F445C06B3A09F445C0D4
:104D90006C3A09F445C06B3B09F445C06C3B09F41F
:104DA00045C06D3A09F445C0603B09F445C06E3A10
:104DB00009F445C06F3A09F445C0613B09F445C0A8
:104DC000623B09F445C0633B09F445C0643B09F408
:104DD00045C0653B09F445C0663B09F445C0673BE7
:104DE00009F445C0683B09F445C0693B09F445C076
:104DF0006D3B09F445C06E3B09F445C06A3B09F4BC
:104E000045C080E090E044C082EE90E041C089EE71
:104E100090E03EC08AEE90E03BC085EB90E038C069
:104E200086EB90E035C083EB90E032C084EB90E0FD
:104E30002FC087EB90E02CC08CEC90E029C08DEC6B
:104E400090E026C083E891E023C08AE891E020C08A
:104E500082E991E01DC084E991E01AC081E292E00C
:104E600017C083E292E014C084E292E011C085E2B0
:104E700092E00EC086E292E00BC087E292E008C0AA
:104E80008FE690E005C080E790E002C08AE292E001
:104E90000C948A220895F999FECF92BD81BDF89AAB
:104EA000992780B50895A6E1B0E044E050E00C9465
:104EB0008527A8E1B0E042E050E00C948527262F3A
:104EC000F999FECF92BD81BDF89A019700B4021600
:104ED00039F01FBA20BD0FB6F894FA9AF99A0FBEAE
:104EE00008950396272F0E9460270E945F27252F91
:104EF0000E946027242F0C9460270196272F0E9480
:104F000060270C945F27DC01CB01FC01F999FECFEF
:104F100006C0F2BDE1BDF89A319600B40D92415041
:104F20005040B8F70895AA1BBB1B51E107C0AA1F48
:104F3000BB1FA617B70710F0A61BB70B881F991F3A
:104F40005A95A9F780959095BC01CD01089597FBDE
:104F5000072E16F4009407D077FD09D00E949327FE
:104F600007FC05D03EF4909581959F4F089570956C
:104F700061957F4F0895EE0FFF1F0590F491E02D8E
:104F80000994CF93DF938230910510F482E090E092
:104F9000E0916103F091620320E030E0C0E0D0E0F6
:104FA000309711F14081518148175907C0F04817D7
:104FB000590761F482819381209719F09B838A833A
:104FC0002BC0909362038093610326C021153105A5
:104FD00019F04217530718F49A01BE01DF01EF01DF
:104FE0000280F381E02DDCCF2115310509F1281B6A
:104FF000390B2430310590F412968D919C911397C2
:105000006115710521F0FB019383828304C09093A5
:10501000620380936103FD01329644C0FD01E20FFB
:10502000F31F81939193225031092D933C933AC001
:1050300020915F0330916003232B41F42091020102
:10504000309103013093600320935F0320910001AE
:10505000309101012115310541F42DB73EB7409142
:10506000040150910501241B350BE0915F03F09181
:105070006003E217F307A0F42E1B3F0B2817390734
:1050800078F0AC014E5F5F4F2417350748F04E0FA4
:105090005F1F5093600340935F038193919302C01D
:1050A000E0E0F0E0CF01DF91CF9108950F931F93DF
:1050B000CF93DF93009709F48CC0FC0132971382E1
:1050C000128200916103109162030115110581F4B0
:1050D00020813181820F931F20915F033091600303
:1050E0002817390779F5F0936003E0935F0371C0E7
:1050F000D80140E050E0AE17BF0750F412962D9152
:105100003C911397AD012115310509F1D901F3CF78
:105110009D01DA013383228360817181860F971F9D
:105120008217930769F4EC0128813981260F371F14
:105130002E5F3F4F318320838A819B8193838283BB
:10514000452B29F4F0936203E093610342C0139668
:10515000FC93EE931297ED01499159919E01240F12
:10516000351FE217F30771F480819181840F951F39
:10517000029611969C938E938281938113969C93B1
:105180008E931297E0E0F0E0D80112968D919C91F9
:105190001397009719F0F8018C01F6CF8D919C912F
:1051A00098012E5F3F4F820F931F20915F03309134
:1051B00060032817390769F4309729F410926203C5
:1051C0001092610302C01382128210936003009355
:1051D0005F03DF91CF911F910F910895FC01415022
:1051E000504030F001900616D1F73197CF01089565
:0A51F000882799270895F894FFCF4F
:1051FA0000006303200001191A1B1C1D1E1F202119
:10520A0022012000DA1BDD1BD91B5E1820180102BF
:10521A000001020202020606060909090909090F24
:10522A000F0F0F0F0F151515181919191919191923
:10523A001919192324000D010D020D030D040D0582
:10524A000D000C010C020C030C040C050C000B01E4
:10525A000B020B030B040B050B000A010A020A03DB
:10526A000A040A050A0009010902090309040905D1
:10527A0009000801080208030804080508000701D4
:10528A0007020703070407050700060106020603CB
:10529A0006040605060005010502050305040505C1
:1052AA0005000401040204030404040504000301C4
:1052BA0003020303030403050300020102020203BB
:1052CA0002040205020001010102010301040105B1
:0E52DA000100000100020003000400050000B6
:00000001FF
