:100000000C94C8050C94E5050C94E5050C94E505E5
:100010000C94E5050C94E5050C94E5050C94E505B8
:100020000C94E5050C94E5050C94310F0C94730EBB
:100030000C94AE1E0C94E5050C94E5050C94E505B6
:100040000C94E5050C94E5050C94E5050C94E50588
:100050000C94E5050C943B100C94E5050C94E50517
:100060000C94E5050C94E5050C94E5050C94E50568
:100070000C94E5050C94E5050C94E5050C94E50558
:100080000C94E5050C94E5050C94E5050C94E50548
:100090000C94E5050C94E5050C94E5050C94E50538
:1000A0000C94E5050C94E5050C94E5058E088E0886
:1000B000C108C1082C09490A490A490A4A09BE0966
:1000C000CF09CF098B0CB20C5B0EB20C5B0EFE0C91
:1000D000210D5B0E160E260E6A246F2479246D24E2
:1000E0007224772475242126242627262A262D26C5
:1000F0003026332605010980A101850319012AB79D
:1001000000150126B700950175108100C0050C0986
:1001100001A101850419012AA002150126A002955A
:100120000175108100C005010906A10185060507BA
:1001300019E029E7150025019508750181020507D9
:10014000190029EF1500250195F0750181020508B8
:100150001901290595057501910295017503910114
:10016000C00660FF0961A1010962150026FF009524
:1001700020750881020963150026FF009520750887
:100180009102C005010906A101050719E029E7153B
:100190000025019508750181029501750881010509
:1001A00007190029FF150026FF0095067508810034
:1001B0000508190129059505750191029501750339
:1001C0009101C009025B00030100A0FA09040000CC
:1001D000010301010009211101000122400007056E
:1001E0008103080001090401000203000000092145
:1001F00011010001222200070582032000010705EA
:10020000030320000109040200010300000009218A
:1002100011010001226D0007058403200001120175
:100220000002000000089732764901000102000137
:1002300020034500720067006F0044006F007800E3
:10024000200045005A00200047006C006F00770036
:10025000000028035A0053004100200054006500AC
:10026000630068006E006F006C006F00670079002B
:1002700020004C00610062007300000004030904C8
:1002800035002B003100E100000F00001E0034009B
:100290000400330031004E001F003600120014002D
:1002A000E0004C002000370008000D00E2002A00AA
:1002B0002100130018000E00E3004B0022001C0078
:1002C0000C001B0000004A0029002F000000015113
:1002D00000004D0002533000000001510000A90051
:1002E00023000900070005000000AE0024000A00FA
:1002F0000B0010005000AA002500060017001A008D
:1003000051002C0026001500110019005200280091
:1003100027000F0016001D004F00A8002E00380017
:100320002D00E500000F0000460001000100010063
:10033000010000003A00010001000100010001007D
:100340003B000100010001000100CA5C3C0001000B
:100350000100E1000100CB5C3D0001000100E20072
:10036000010001003E0001000100E3000000C45C48
:1003700003530100000001000000C35C0100010004
:100380000000010000006A003F00010001000100C0
:100390000000B15D40000100500001000100690053
:1003A00041005200510001000100C65C4200010002
:1003B0004F0001000100C75C430001000100010083
:1003C000010001004400450001000100010000009F
:1003D000005C0100010001000100000001000100BB
:1003E0000100010001000100010001000100010005
:1003F00001000100010001000100010001000100F5
:1004000001000100010001000100010001000100E4
:1004100001000100000001000100010000000100D6
:1004200000000100010001000000010000000100C7
:1004300001000100010001000000010001005F0057
:100440005C00590062000100540060005D005A0029
:1004500062000100550061005E005B006300010066
:100460002A00560057005800580001000100010002
:10047000010001000553000001000100010001001E
:10048000045100001E00140004001D0001000100C2
:100490001F001A0016001B000100010020000800C8
:1004A00007000600010001002100150009001900E5
:1004B00001000100220017000A00050000000100F1
:1004C0000100010000000100000001000100010026
:1004D000000001000000010023001C000B001100BF
:1004E00000000100240018000D00100001000100B0
:1004F00025000C000E00360001000100260012004D
:100500000F003700010001002700130033003800FE
:10051000010001002E0001002D000100010000007B
:100520004600010001000100010000003A00010046
:1005300001000100010001003B0001000100010079
:10054000010001003C000100010001000100010068
:100550003D00010001000100010001003E0001001A
:100560000100010000000100010001000000010085
:100570000000010001000100000001000000010076
:100580003F000100010001000000010040000100E7
:100590000100010001000100410001000100010013
:1005A0000100010042000100010001000100010002
:1005B000430001000100010001000100440045006A
:1005C000010001000100000001002B000100E1001A
:1005D000E10100001E00140004001D0001000100E4
:1005E0001F001A0016001B00010001002000080077
:1005F0000700060001000100210015000900190094
:1006000001000100220017000A000500000001009F
:100610002900570000005600000001000100010001
:1006200000000100000001000100010001000100C4
:1006300000000100010001000100010001000100B3
:1006400001000100010001000100010001000100A2
:100650000100010001000100010001000100010092
:100660000100010001000100010001000100000083
:100670000001010101010101010102020202020265
:100680000202020303030303030303040404040438
:1006900004040505050505060606060607070707FF
:1006A0000708080808090909090A0A0A0B0B0B0CB4
:1006B0000C0C0D0D0D0E0E0E0F0F0F101011111151
:1006C00012121313141415151616171718181919D2
:1006D0001A1A1B1B1C1D1D1E1E1F20202122222337
:1006E0002424252626272829292A2B2C2D2D2E2F78
:1006F00030313232333435363738393A3B3C3D3E8F
:100700003F404142434445464748494A4C4D4E4F7D
:1007100050515354555658595A5B5D5E5F6162643F
:10072000656668696B6C6D6F7072737577787A7BCC
:100730007D7E8082838587888A8C8E8F9193959623
:10074000989A9C9EA0A2A3A5A7A9ABADAFB1B3B543
:10075000B7BABCBEC0C2C4C6C9CBCDCFD1D4D6D81F
:10076000DBDDDFE2E4E7E9EBEEF0F3F5F8FAFDFFBD
:1007700000443454007464840055456500857595C3
:100780000036264600665676009686A6003727472E
:100790000077678700382848008878980039294909
:1007A00000695979009989A9003A2A4A006A5A7A57
:1007B000003B2B4B006B5B7B004C3C5C007C6C8CEF
:1007C000005D4D6D008D7D9D003E2E4E006E5E7E67
:1007D000014434540174648401554565018575955F
:1007E0000136264601665676019686A601372747CA
:1007F00001776787013828480188789801392949A5
:1008000001695979019989A9013A2A4A016A5A7AF2
:10081000013B2B4B016B5B7B014C3C5C017C6C8C8A
:10082000015D4D6D018D7D9D013E2E4E016E5E7E02
:1008300000000000000000000000000000000000B8
:1008400000000000000000000000000000000000A8
:100850000000000000000000000000000000000098
:100860000000000000000000000000000000000088
:100870000000000000000000000000000000000078
:100880000000000000000000000000000000000068
:100890000000000000000000000000000000000058
:1008A0000000000000000000000000000000000048
:1008B0000000000000000000000000000000000038
:1008C00000FFFF00FFFF00FFFF00FFFF00FFFF0032
:1008D000FFFF00FFFF00FFFF00FFFF00FFFF00FF23
:1008E000FF00FFFF00FFFF00FFFF00FFFF00FFFF13
:1008F00000FFFF00FFFF00FFFF00FFFF00FFFF0002
:10090000FFFF00FFFF00FFFF00FFFF00FFFF00FFF2
:10091000FF00FFFF00FFFF00FFFF00FFFF00FFFFE2
:1009200000FFFF00FFFF00FFFF00FFFF00FFFF00D1
:10093000FFFF00FFFF00FFFF00FFFF00FFFF00FFC2
:10094000FF00FFFF00FFFF00FFFF00FFFF00FFFFB2
:1009500056FFFF56FFFF56FFFF56FFFF56FFFF569D
:10096000FFFF56FFFF56FFFF56FFFF56FFFF56FFE4
:10097000FF56FFFF56FFFF56FFFF56FFFF56FFFFD4
:1009800056FFFF56FFFF56FFFF56FFFF56FFFF566D
:10099000FFFF56FFFF56FFFF56FFFF56FFFF56FFB4
:1009A000FF56FFFF56FFFF56FFFF56FFFF56FFFFA4
:1009B00056FFFF56FFFF56FFFF56FFFF56FFFF563D
:1009C000FFFF56FFFF56FFFF56FFFF56FFFF56FF84
:1009D000FF56FFFF56FFFF56FFFF56FFFF56FFFF74
:1009E000ACFFFFACFFFFACFFFFACFFFFACFFFFAC09
:1009F000FFFFACFFFFACFFFFACFFFFACFFFFACFFA6
:100A0000FFACFFFFACFFFFACFFFFACFFFFACFFFF95
:100A1000ACFFFFACFFFFACFFFFACFFFFACFFFFACD8
:100A2000FFFFACFFFFACFFFFACFFFFACFFFFACFF75
:100A3000FFACFFFFACFFFFACFFFFACFFFFACFFFF65
:100A4000ACFFFFACFFFFACFFFFACFFFFACFFFFACA8
:100A5000FFFFACFFFFACFFFFACFFFFACFFFFACFF45
:100A6000FFACFFFFACFFFFACFFFFACFFFFACFFFF35
:100A7000D7FFFFD7FFFFD7FFFFD7FFFFD7FFFFD776
:100A8000FFFFD7FFFFD7FFFFD7FFFFD7FFFFD7FF3E
:100A9000FFD7FFFFD7FFFFD7FFFFD7FFFFD7FFFF2E
:100AA000D7FFFFD7FFFFD7FFFFD7FFFFD7FFFFD746
:100AB000FFFFD7FFFFD7FFFFD7FFFFD7FFFFD7FF0E
:100AC000FFD7FFFFD7FFFFD7FFFFD7FFFFD7FFFFFE
:100AD000D7FFFFD7FFFFD7FFFFD7FFFFD7FFFFD716
:100AE000FFFFD7FFFFD7FFFFD7FFFFD7FFFFD7FFDE
:100AF000FFD7FFFFD7FFFFD7FFFFD7FFFFD7FFFFCE
:100B00002BFFFF2BFFFF2BFFFF2BFFFF2BFFFF2BED
:100B1000FFFF2BFFFF2BFFFF2BFFFF2BFFFF2BFF09
:100B2000FF2BFFFF2BFFFF2BFFFF2BFFFF2BFFFFF9
:100B30002BFFFF2BFFFF2BFFFF2BFFFF2BFFFF2BBD
:100B4000FFFF2BFFFF2BFFFF2BFFFF2BFFFF2BFFD9
:100B5000FF2BFFFF2BFFFF2BFFFF2BFFFF2BFFFFC9
:100B60002BFFFF2BFFFF2BFFFF2BFFFF2BFFFF2B8D
:100B7000FFFF2BFFFF2BFFFF2BFFFF2BFFFF2BFFA9
:100B8000FF2BFFFF2BFFFF2BFFFF2BFFFF2BFFFF99
:100B900011241FBECFEFDAE0DEBFCDBF12E0A0E030
:100BA000B1E0E6E9FFE502C005900D92AA35B10774
:100BB000D9F724E0AAE5B2E001C01D92A43FB20734
:100BC000E1F70E94C1200C94C92F0C940000A5E20B
:100BD000B0E0EDEEF5E00C94952BFC018081918165
:100BE00023813481232B31F09F3F31F491E08F3FFB
:100BF00019F403C091E001C090E090FD77C47F013B
:100C000085E0DE01919601900D928A95E1F7D7017A
:100C100012962C9189A19AA1222349F00E9497262D
:100C2000182F682F89A19AA10E94072703C00E944C
:100C3000D326182F69A17AA1812F0E94C1108C019F
:100C40009091E604F7018281992309F44DC0811146
:100C500005C2E0915C02E330A0F481E08E0F809346
:100C60005C02F0E0EE0FFF1FEC54FB4FD7018D91BB
:100C70009C919183808382E08983CE0101960E94BA
:100C8000D828BFEFE3EDF0E3B150E040F040E1F7EA
:100C900000C0000080915C02833009F0DFC1109237
:100CA0005C02EAEBF4E0A4EBB4E080EC94E0318188
:100CB00011962C91119732132EC030812C91321342
:100CC0002AC0329612968E179F0789F784E089838F
:100CD00081E08093E7048EEF8A831092E604CE01D0
:100CE00001960E94D828BAC19091E7049923C1F0D7
:100CF000882311F086E001C087E08983D7018C91B9
:100D00008A8311968C918B838EEF8C83CE01019612
:100D10000E94D82805C083E089831092E704DBCFC6
:100D2000D70112968C910F3ABDE51B07D1F58823A8
:100D300009F43EC090911E0381E0890F8770987F6F
:100D4000853020F4892B80931E0302C090931E03EC
:100D500080911E038770BFEF8B9FC0011124959572
:100D6000879595958795992790938900809388001A
:100D700090938B0080938A0090938D0080938C00D9
:100D800040911E0350911F03609120037091210335
:100D90008FE090E00E94702C80911D030E945424EB
:100DA000E8C0003BEDE51E0709F09EC08111ADC013
:100DB0008091670282720B3CFCE51F0709F483C037
:100DC00098F5063C9CE5190709F469C0B8F4043CA1
:100DD000BCE51B0709F459C008F05CC0033CFCE506
:100DE0001F0709F04EC19091EA0481E089278093A2
:100DF000EA0410921E018091E90443C0083C2CE5EE
:100E0000120709F456C008F44FC0093CACE51A07B4
:100E100009F454C00A3CBCE51B0709F032C141E5A6
:100E20005EE16EE57EE15DC0003DECE51E0709F484
:100E300068C098F40D3C2CE5120709F44EC008F484
:100E400047C00E3CACE51A0709F459C00F3CBCE59D
:100E50001B0709F016C185E055C0073DECE51E07EC
:100E600038F4023DFCE51F0708F0F8C081E14AC0F4
:100E70000F352DE5120709F4F1C003C19FEF9093E0
:100E8000EF0481608093E904E9C049E95EE163EA27
:100E90007EE127C043EA5EE169E97EE122C045E8E0
:100EA0005EE16FE87EE11DC04FE85EE165E87EE14E
:100EB00018C04BE65EE168E77EE113C048E75EE1FB
:100EC0006BE67EE10EC04EE55EE161E57EE109C0C4
:100ED0004BE65CE169E77CE104C049E75CE16BE675
:100EE0007CE10E94581FBAC0033CFCE51F0761F17A
:100EF000013BEDE51E07E9F5882309F4AFC081E069
:100F000001C08CE00E949528A9C080911E0383FB3C
:100F1000222720F991E0922790FB83F980931E030A
:100F2000992329F040E060E080E00E947E18409123
:100F30001E0350911F0360912003709121038FE0E5
:100F400090E00E94702C15C0882309F487C090910E
:100F5000EF048091E9049F3F09F090CF1092EF04D5
:100F600081608093E90440E060E080E00E947E18A8
:100F700075C0D70112968C91882309F419CF0C35CE
:100F80008DE5180709F464C060F40115ACE51A0793
:100F9000A9F00F3DBCE51B0709F073C00E94631266
:100FA0004CC00E35EDE51E0709F44AC008F452C0E6
:100FB000093A2DE5120709F440C063C01092670298
:100FC0000E94A4278FEF94E3ACE081509040A040B2
:100FD000E1F700C00000F89481E08093E00080E237
:100FE0008093D8001092C900EFE1FEE43197F1F749
:100FF00000C000001DBA109268001CBC10BE1FBAD1
:1010000010927A0010926E0010926F001092710090
:10101000109272001092C9001092BC0014B817B858
:101020001AB81DB810BA1092BC0015B818B81BB881
:101030001EB811BA0C94003F11C00E943C240EC08F
:101040008091620282FB882780F991E0892703C0A2
:1010500081E001C080E00E94581313C08091ED022E
:10106000877009F443C2D70112968C91882309F442
:101070003DC28091620282FF39C282E00E943B132E
:1010800035C2F701828100811181882349F0C801AE
:101090000E949726D82E682FC8010E94072704C0F7
:1010A000C8010E94D326D82EB8018D2D0E94C110F0
:1010B0000E94DA10B82E192F982EF7010281A58010
:1010C000A2949FE0A9228091ED028770B9F00023DD
:1010D000A9F0812F807F803421F080E28B0D883051
:1010E00068F08091620282FF09C082E00E943B1397
:1010F0008091ED028770DD24D3948111D12CC12E13
:10110000C2948FE0C8228C2D90E08C30910508F0BD
:10111000C0C1FC01EA5AFF4F0C94952E812F807FAD
:101120001F70882311F01295107F0023B9F011234E
:1011300009F49DC180E28B0D883010F0911006C03B
:1011400080916702182B1093670205C080910E03EF
:10115000182B10930E030E94E61289C18B2D0E945A
:10116000C927112309F495C180E28B0D883080F1E5
:10117000992071F1109580910E03182310930E039E
:101180002AC0812F807F1F70803211F01295107F4E
:101190008B2D992021F0F1E09F16D9F147C0809165
:1011A000620282FD1BC0002369F0112339F0809197
:1011B0006702182B109367020E94E61280E00E94DB
:1011C000F52767C180E00E94C927112309F461C196
:1011D000812F0E94DF120E94E6125BC1002381F082
:1011E00080910F03AA2051F021E0A21207C0182B12
:1011F000181709F44EC110930F034BC1812B10C077
:10120000AA2021F081E0A81609F443C10E94D91256
:101210001FC0002341F091E09A1508F43AC1812FD4
:101220000E94BF2736C1A11034C112C0002319F09B
:10123000AA20A9F31CC1AA2059F0893309F026C1BC
:10124000AFEFB7EEE3E0A150B040E040E1F71CC1E2
:10125000812F0E94B8271DC1812F869586958370A6
:1012600019F0813061F015C1002321F08B2D912FF1
:10127000937002C080E090E00E94151F10C100230F
:1012800021F08B2D912F937002C080E090E00E949E
:10129000FF1E05C1812F8370A9F50111FEC04B2DE2
:1012A000429546954770440F440F8B2D8F7090E008
:1012B0009C01042E01C0220F0A94EAF7B4FE08C074
:1012C0008FE090E001C0880F4A95EAF7809501C051
:1012D00080E0169516951370123069F088F490919D
:1012E0001003113019F0822B892302C0922B892B15
:1012F0000E947F27D2C0822B909110038927F8CFBC
:10130000822BF6CF002319F0812F817001C08695C2
:10131000882309F4C2C04B2D429546954770440F6F
:10132000440F8B2D8F7090E09C01042E01C0220F82
:101330000A94EAF7B4FE08C08FE090E001C0880F7D
:101340004A95EAF7809501C080E0169516951370CE
:10135000123059F078F490911D03113019F0822B5E
:10136000892309C0922B892B06C0822B90911D03E3
:10137000892701C0822B0E943C278FC01F70002349
:1013800039F0812F0E9473278B2D0E94BF2785C0C3
:101390008B2D0E94B827812F0E9466277EC08B2D3F
:1013A000F2EF9F1669F1F91538F020EF921659F017
:1013B00091EF991601F157C0A3EF9A1641F1B4EFDE
:1013C0009B16A9F050C0002369F0A11062C01F71E4
:1013D00081E090E001C0880F1A95EAF790911D0313
:1013E00089271FC0E1E0EA1508F453C0F0CF8091CF
:1013F000620282FD19C0002329F0812F8F7126C05F
:101400000023D9F3812F8F710E94662742C00023E9
:1014100039F01F7181E001C0880F1A95EAF701C009
:1014200080E00E943C2735C0002399F01F71812F76
:101430000E9473278091620282FF07C0F8E01F9F1D
:10144000C001112483608093ED02812F0E947327D5
:1014500020C081E00E943B1321E02A15D0F482E0F5
:101460000E943B1316C0002321F0AA2031F28B2DDD
:10147000A6CEAA2039F2893349F48FEF97EEA3E084
:1014800081509040A040E1F700C000008B2D0E94E9
:10149000C92788EF8C0D843010F40E942B1FDD20AB
:1014A000A9F08091ED0280FD11C0F70112828595AF
:1014B000859585950E947327C7010E94E705809155
:1014C000ED028595859585950E94662785E0F70153
:1014D000DE01119601900D928A95E1F709811A813A
:1014E000C8010E94D326B8010E94C110A596EBE066
:1014F0000C94B12B80918D0287FF11C08091E80080
:1015000082FD05C08091E8048111F8CF11C080915F
:10151000E8008B770BC08091E804882349F0809124
:10152000E80080FFF8CF8091E8008E778093E80094
:101530000895982F973068F59093E900981739F03F
:101540007091EC002091ED005091F00003C0242F29
:10155000762F50E021FD02C09F5FECCF3091EB0071
:101560003E7F3093EB003091ED003D7F3093ED00F6
:101570003091EB0031603093EB007093EC002093DE
:10158000ED005093F0002091EE0027FDE5CF80E0C4
:1015900008958F708093E90081E00895209193026F
:1015A000309194022617370748F06115710539F418
:1015B0002091E8002E772093E80001C0B901FC01DA
:1015C00020E06115710579F18091E8048823F1F13B
:1015D0008530F1F18091E80083FD3CC08091E80006
:1015E00082FD2EC08091E80080FFEBCF2091F300B8
:1015F0008091F20090E0922B6115710551F08830D6
:10160000910538F421912093F10061507109019600
:10161000F3CF21E0089709F020E08091E8008E7771
:101620008093E800CECF2111CFCF0AC08091E8048B
:10163000882361F0853061F08091E80083FD0AC065
:101640008091E80082FFF2CF80E0089582E0089563
:1016500083E0089581E008950895089580916902D6
:101660000895809363027093650260936402809191
:10167000E8048430F9F48093E9008FEF9091E8005A
:10168000815095FD06C095ED9A95F1F70000811106
:10169000F5CF8091E80085FF0DC040E050E063E0A9
:1016A00070E083E692E00E94AE288091E8008E7799
:1016B0008093E8000895BC0184E00E94310B0895F6
:1016C000BC0183E00E94310B0895CF93DF932091FA
:1016D0000A01222339F02091610227FF03C060E252
:1016E00024E002C068E021E02093E9002FEF309170
:1016F000E800215035FD06C035ED3A95F1F70000C0
:101700002111F5CF2091E80025FF1DC0EC0180914B
:101710000A01811105C040E050E068E070E003C0BC
:1017200070E040E050E0CE010E94AE288091E800D9
:101730008E778093E80080E2FE01AAE6B2E0019095
:101740000D928A95E1F7DF91CF910895AAE2B0E07A
:10175000ECEAFBE00C949D2BEDE8F2E085E992E0E9
:101760002091F10021938E179F07D1F780918E026F
:10177000833009F463C030F4813071F0823009F4B1
:101780009FC0B6C08A3009F48BC08B3009F46EC09C
:10179000893009F0ADC020C080918D02813A09F0F6
:1017A000A7C08091E800877F8093E8008091910234
:1017B00090919202892B21F460E28AE692E003C0C4
:1017C00060E080E090E070E00E94CE0A8091E80046
:1017D0008B778093E8008CC080918D02813209F074
:1017E00087C08091910290919202009719F0029720
:1017F00009F07EC08091E800877F8093E8008091A7
:10180000E80082FD05C08091E8048111F8CF70C026
:101810002091F3008091F20090E0922B029731F436
:101820008091F100813011F0863021F48091F10037
:10183000809369028091E8008B7756C080918D0279
:10184000813A09F055C08091910290919202892BC2
:1018500009F04EC08091E800877F8093E800809176
:10186000E80080FFFCCF80910A0139C080918D0291
:101870008132F1F58091910290919202892BC1F50C
:101880008091E800877F8093E8000E947A0A809127
:101890008F0280930A01109267020E94A42728C039
:1018A00080918D02813221F58091E800877F8093BD
:1018B000E8000E947A0A809190028093680218C022
:1018C00080918D02813AA1F48091E800877F809316
:1018D000E8008091E80080FFFCCF8091680280934F
:1018E000F1008091E8008E778093E8000E947A0AE8
:1018F0008091E80083FFDFC180918D0290918E027C
:10190000492F50E04A30510508F0D5C1FA01EE598F
:10191000FF4F0C94952E803821F0823809F0CBC10E
:1019200008C080918A0290918B02992389F082608D
:101930000FC0809191028F70873008F0BCC18093F6
:10194000E9008091EB0085FB882780F91092E9007F
:101950009091E800977F9093E8008093F1001092B7
:10196000F10070C1282F2D7F09F0A5C1882319F03F
:10197000823061F0A0C180918F02813009F09BC15B
:10198000933009F080E080938B022EC080918F020B
:1019900081112AC0809191028F702FEF280F26307D
:1019A00008F089C18093E9002091EB0020FF1CC062
:1019B000933021F48091EB00806214C09091EB0091
:1019C00090619093EB0021E030E0A90102C0440F48
:1019D000551F8A95E2F74093EA001092EA00809141
:1019E000EB0088608093EB001092E9008091E800A2
:1019F000877F8093E8000E947A0A5DC181115BC1F4
:101A000010918F021F778091E3008078812B809363
:101A1000E3008091E800877F8093E8000E947A0AC3
:101A20008091E80080FFFCCF8091E3008068809384
:101A3000E300111102C082E001C083E08093E8045A
:101A40003AC18058823008F036C120918F0230911F
:101A500090022C3D53E0350779F583E08A838AE2D2
:101A600089834FB7F894DE01139620E03EE051E2FF
:101A7000E32FF0E050935700E49120FF03C0E2957C
:101A8000EF703F5FEF708E2F90E0EA3010F0C79656
:101A900001C0C0968D939D932F5F243149F74FBFAE
:101AA0008091E800877F8093E8006AE270E0CE01D1
:101AB00001960E94CE0AB4C0809191029091920248
:101AC000432F552743305105A9F068F441305105A3
:101AD00009F400C14230510509F0EDC08BE590E0FA
:101AE000E3ECF1E04BC04132510529F1423251059E
:101AF00089F1E1C0C901992781309105A1F058F021
:101B0000029709F0D8C0E0E3F2E0E4918E2F90E074
:101B1000E0E3F2E030C0ECE7F2E0E4918E2F90E0F9
:101B2000ECE7F2E028C0E2E5F2E0E4918E2F90E0ED
:101B3000E2E5F2E020C08330910508F0BCC0880FD8
:101B4000991FFC01E55DFE4F0190F081E02D89E0D9
:101B500090E014C08330910508F0ADC0FC01EE0F99
:101B6000FF1FEB5DFE4F0190F081E02DDC01AE5DCB
:101B7000BE4F8C9190E0009709F49DC02091E80041
:101B8000277F2093E8002091930230919402281738
:101B9000390708F4C90140E0009789F12091E80471
:101BA000222309F43DC02530D9F12091E80023FD1E
:101BB00037C02091E80022FD2FC02091E80020FFCF
:101BC000EBCF4091F3002091F20030E0342B0097EE
:101BD00059F02830310540F444914093F10031969A
:101BE00001972F5F3F4FF3CF41E02830310509F0D7
:101BF00040E02091E8002E772093E800CDCF4111FE
:101C0000CDCF0AC08091E804882351F0853041F09F
:101C10008091E80083FD04C08091E80082FFF2CF4C
:101C20008091E8008B778093E80045C0803809F008
:101C300042C08091E800877F8093E80080918C0209
:101C40008093F1008091E8008E77D3CE811133C06C
:101C500080918F02909190029927029764F580916C
:101C6000E800877F8093E80010918F0210938C0228
:101C70000E947A0A111106C08091E30087FD02C01C
:101C800081E001C084E08093E80442E061EC81E0FF
:101C90000E94990A42E261EC84E00E94990A42E2C1
:101CA00061EC82E00E94990A42E260EC83E00E94CB
:101CB000990A8091E8048091E80083FF10C0809128
:101CC000E800877F8093E8008091EB00806280933A
:101CD000EB0005C082E190E0EEE1F2E04FCFAA9682
:101CE000E3E00C94B92B1F920F920FB60F921124C0
:101CF0002F933F934F935F936F937F938F939F9314
:101D0000AF93BF93CF93DF93EF93FF93C091E9001D
:101D1000CF708091EC00D82FD17080FDD0E8109268
:101D2000E9008091F000877F8093F00078940E9412
:101D3000A60B1092E9008091F00088608093F0007B
:101D4000CD2BCF70C093E900FF91EF91DF91CF9140
:101D5000BF91AF919F918F917F916F915F914F91C3
:101D60003F912F910F900FBE0F901F901895E8EDA7
:101D7000F0E080818E7F80831092E2001092DA0082
:101D80001092E100A0EEB0E08C9181608C93808194
:101D90008F77808319BCA7EDB0E08C918E7F8C93F8
:101DA00080818F7E8083109266020895A0E0B0E06B
:101DB000ECEDFEE00C94982BC8EDD0E088818F7E8E
:101DC0008883E7EDF0E080818160808384E082BFDA
:101DD00081E08093660288818E7F888302EE10E026
:101DE000F80110821092DA0081EEC82ED12CF60193
:101DF000108288818F778883888180688883888132
:101E00008F7D888319BC1092E80410928C02109286
:101E10008B0210928A0290EEE92EF12CF70180815C
:101E20008B7F808388818160888342E060E080E0EE
:101E30000E94990AF60180818E7F8083F80180815B
:101E400081608083808188608083F70180818E7FBC
:101E50008083888180618883CDB7DEB7E8E00C9409
:101E6000B42B1F920F920FB60F9211242F933F9312
:101E70004F935F936F937F938F939F93AF93BF9392
:101E8000EF93FF938091E10082FF09C08091E2000F
:101E900082FF05C08091E1008B7F8093E1008091FB
:101EA000DA0080FF2AC08091D80080FF26C0809190
:101EB000DA008E7F8093DA008091D90080FF18C00D
:101EC00080E189BD82E189BD09B400FEFDCF81E0DA
:101ED0008093E8048091660281110FC00E94B70EC2
:101EE0000E94D60E8091E20084608093E20005C0DB
:101EF00019BC1092E804109266028091E10080FF04
:101F000017C08091E20080FF13C08091E2008E7FB5
:101F10008093E2008091E20080618093E2008091F2
:101F2000D80080628093D80019BC85E08093E804D3
:101F30008091E10084FF30C08091E20084FF2CC0DA
:101F400080E189BD82E189BD09B400FEFDCF8091A9
:101F5000D8008F7D8093D8008091E1008F7E8093A0
:101F6000E1008091E2008F7E8093E2008091E200A8
:101F700081608093E20080918C02882311F084E0DC
:101F800007C08091E30087FD02C081E001C083E0CB
:101F90008093E8048091E8048091E10083FF27C0EA
:101FA0008091E20083FF23C08091E100877F8093CE
:101FB000E10082E08093E80410928C028091E100BD
:101FC0008E7F8093E1008091E2008E7F8093E2001B
:101FD0008091E20080618093E20042E060E080E076
:101FE0000E94990A8091F00088608093F000FF9130
:101FF000EF91BF91AF919F918F917F916F915F9181
:102000004F913F912F910F900FBE0F901F901895F9
:102010002091E4003091E50095E64091EC00842F9A
:10202000817040FF23C08091E80080FD1DC0809139
:10203000E804882399F0853099F08091EB0085FDC4
:1020400011C04091E4005091E5002417350729F3B1
:10205000915011F09A01E1CF84E0089582E0089553
:1020600083E0089581E0089580E008954091E800BC
:1020700042FFDDCF089578941F920F920FB60F9212
:1020800011248F939F93AF93BF9380915D029091A2
:102090005E02A0915F02B09160020196A11DB11D88
:1020A00080935D0290935E02A0935F02B093600202
:1020B000BF91AF919F918F910F900FBE0F901F9086
:1020C00018959C014FB7F89480915D0290915E0243
:1020D000A0915F02B09160024FBF821B930B0895E5
:1020E0002FB7F89480915D0290915E02A0915F02FB
:1020F000B09160022FBF089580E008959091610231
:1021000092FF0DC0282F2871283019F4877F846032
:1021100006C0282F2471243011F48B7F886093FF30
:102120000DC0282F2871283119F4877E846106C0DC
:10213000282F2471243111F48B7E88612091620252
:1021400020FF0DC0382F3871383019F4877F816037
:1021500006C0382F3171313011F48E7F886021FF35
:102160000DC0282F2871283119F4877E816106C09F
:10217000282F2171213111F48E7E886194FD877E94
:1021800008957E30A0F4663090F494E5899FF001C4
:10219000112486E0789FE00DF11D1124E60FF11D5A
:1021A000EE0FFF1FE058FD4F85919491089580E058
:1021B00090E00895CF93DF938238910569F1B0F4F0
:1021C0008133910509F46FC048F48932910509F40F
:1021D00065C08A32910509F46BC08AC085339105C8
:1021E00009F457C089339105B9F082C0833E910547
:1021F00071F138F4803E9105B1F0823E910511F104
:1022000077C0863E9105B9F1873E9105C9F1843EBC
:10221000910509F06DC024C02091610220FD53C0DA
:1022200021FD51C065C08091610280FD46C0809152
:10223000620280FF48C08091610284FD3FC183EE4D
:1022400090E03EC18091610282FF3AC0F4CF80915C
:10225000610282FD35C08091620280FD34C0EBCF07
:102260008091620281FF35C08091610284FD26C1A8
:1022700087EE90E025C18091610283FF27C0F4CFF3
:102280008091610283FD22C08091620281FD21C0A4
:10229000EBCF8091610285FD1FC021C0809161025A
:1022A00085FD1DC019C08091610286FD1BC01DC047
:1022B0008091610286FD19C015C089E390E000C1DC
:1022C00082EE90E0FDC080EE90E0FAC086EE90E0F5
:1022D000F7C084EE90E0F4C089E290E0F1C085E3BD
:1022E00090E0EEC08AE290E0EBC081E390E0E8C0CD
:1022F000811532E5930708F069C0811541E594071F
:1023000028F0982F8827816F906ADAC0883E91055F
:1023100068F5803E910508F0D3C0883A9105B8F47D
:10232000853A910548F0855AE82FF0E0EF5CFE4FC2
:10233000808190E09064C4C08130910509F4BBC0F5
:1023400008F4BCC08430910508F4B8C0B9C08F3B14
:10235000910508F0B3C0885AE82FF0E0EE0FFF1F98
:10236000EC5CFE4F808191819464AAC0811520E5C8
:102370009207F0F09C0174E0369527957A95E1F785
:10238000922F9370482F437021E030E002C0220F5B
:10239000331F4A95E2F73C68392B8F70982F96953A
:1023A000969540E2949FC0011124822B932B88C004
:1023B000811530E4930718F09F70906A81C09C01EA
:1023C0003A9521153F4108F47BC078C0EC01C11556
:1023D00086E5D807E8F5C11525E5D20748F08C2F2A
:1023E0000E947E108F7190E0982F8827906268C0BD
:1023F000C11534E5D30728F09C2F8827846F906A95
:102400005FC0AE01437055272C2F26952695C11528
:10241000D34578F481E090E002C0880F991F4A9577
:10242000E2F740E2249F90011124822B932B9C68B9
:1024300047C081E090E002C0880F991F4A95E2F7FB
:1024400040E2249F90011124822B932B9A6838C07C
:10245000C1152AE5D207F8F4C11539E5D30790F084
:102460008C2F8F700E947E1094E0D695C7959A9518
:10247000E1F7CF70D0E0DC2FCC27D0699E01282B6C
:10248000C9011EC0C11548E5D407C0F09C2F88279C
:10249000806F906A15C0CE0190568115904270F4FD
:1024A0008D2F8F710E947E10282F2F71CE019927BA
:1024B0009062922B05C081E090E002C080E090E045
:1024C000DF91CF91089568EE7EEF80E090E00E946A
:1024D0007C2C60E082E090E00E945E2C60E083E073
:1024E00090E00E945E2C1092100360E084E090E087
:1024F0000E945E2C64E082E290E00E945E2C60E02C
:1025000085E090E00E945E2C60E086E090E00E9412
:102510005E2C6FEF87E090E00E945E2C40E050E080
:10252000BA0188E090E00E94702C60E08DE090E0BD
:102530000E945E2C40E050E0BA0188E190E00E94E9
:10254000702C60E087E190E00E945E2C40E050E05B
:10255000BA018CE190E00E94702C60E070E080E2B3
:1025600090E00E947C2C40E050E0BA0188E190E0CD
:102570000E94702C10921E0310921F0310922003D1
:102580001092210384E080931E0340911E0350911A
:102590001F0360912003709121038FE090E00E945F
:1025A000702C40E050E0BA0183E190E00E94702C72
:1025B000089580910F03811110920F030895809563
:1025C0009091670289238093670208959091670232
:1025D00080910E03982B9093950280910F0388238E
:1025E000D9F0892B8093950280910A01882331F0DC
:1025F0008091610287FF02C08EE101C086E0E7E9B9
:10260000F2E090E0815028F021912223D9F39F5FDE
:10261000F9CF91110E94D91240E250E06EEE72E0C3
:1026200085E992E00E94BC2F892B21F180E2E5E947
:10263000F2E0AEEEB2E001900D928A95E1F7E09102
:102640008104F09182043097A9F080910A018823D7
:1026500059F08091610287FF07C0809195028093B5
:10266000960286E0809395020280F381E02D85E951
:1026700092E0099508952091ED0280958223809340
:10268000ED02982F977099F430E0482F082E000C37
:10269000550B2417350759F09091620292FF07C03D
:1026A0008595859585950E9466271092ED0208957F
:1026B000CF93C0916202C2FB992790F9981791F0CD
:1026C00080FBC2F9C09362026091610284E090E0F5
:1026D0000E945E2C6C2F82E290E00E945E2C82E0D1
:1026E0000E943B13CF9108958091EC029091BB0220
:1026F000891719F08F5F8770FBCF08950F931F9391
:10270000CF93DF938091BA0282958F7009F05AC0FF
:102710008091B702882309F455C08091EC02109192
:10272000BB026091B5027091B602C091B802D0911F
:10273000B90291E06F3F09F090E0292F06E0811780
:1027400009F440C0209721F07F3F21F030E003C022
:1027500031E001C0322F90E030FD31C0089FF00120
:10276000099FF00D1124DF01A454BD4F11963C9137
:102770001197371324C03C91361321C012963C9117
:10278000129731111CC013964D915C9114974C1BFC
:102790005D0B483C510598F48091BA028F708061BE
:1027A0008093BA02EF53FD4F80818F7080618083E8
:1027B00085EB92E00E94E7050E94741303C0019626
:1027C0008770BDCFDF91CF911F910F910895A1E147
:1027D000B0E0EDEEF3E10C94952B8C0185E0F8016F
:1027E000DE011D9601900D928A95E1F7F801E280D5
:1027F0009091B5026091B6024091B8025091B90231
:102800004115510531F06F3F31F481E09F3F19F4DC
:1028100003C081E001C080E0F82FF1709F2E80FDA1
:102820001BC1F80130812181C380D48085EBA82EA3
:1028300082E0B82EF090B702F601E41BF50BFF2002
:1028400009F4C7C08091BA02E83CF10508F092C0D3
:10285000482F407F09F051C0621311C093130FC07D
:10286000FE2CE1100CC08F7080618093BA02C5010C
:102870000E94E7058091BA02F80185832AC1C1143C
:10288000D10431F02F3F31F481E03F3F19F403C010
:1028900081E001C080E080FD03C081E08E2502C0A0
:1028A00080E090E0F82FF170FF2E80FF1CC0809137
:1028B000EC024091BB0256E0841709F4E8C090E0B6
:1028C000589FF001599FF00D1124E454FD4F618190
:1028D000261306C06081631303C06281E61203C041
:1028E00001968770E9CFFE2CEE2009F4F2C08091AA
:1028F000BA0281608093BA0249C0621306C0931382
:1029000004C0E11002C0F80186C0C8010E948427FB
:10291000882351F1EE2041F12091BA02822F829555
:102920008F7090E0029774F08091B5029091B6029A
:1029300098878F831986DB86CA862C87CE010796F7
:102940000E94E70586E0F801A5EBB2E001900D9248
:102950008A95E1F70E947E130AC06217C9F0C80188
:102960000E94842781111EC0C8010E94E705FF2430
:10297000F394AFC0482F407F81F785EB92E00E942F
:10298000E70586E0F50111928A95E9F7F12CA1C0DF
:102990009313E5CFE110E3CFF8018583C8010E94CE
:1029A000E70554C0EE2001F32091BA02822F8295F0
:1029B0008F7090E0029734F28091B5029091B60248
:1029C0009A8389831B82DD82CC822E83CE0101967D
:1029D000B7CFE83CF105D0F5FE2CEE2029F26213CA
:1029E00027C0931325C02091BA0220FD18C0822F62
:1029F00082958F70482F50E04115510581F0F80104
:102A000025834F30510541F08F5F982F9295907F2D
:102A1000822F8F70892B8583C8010E94E70586E08D
:102A2000F801A5EBB2E001900D928A95E1F751C053
:102A3000C8010E948427811185CF8091BA028160EC
:102A40008093BA02C8010E94E70543C086E0F50101
:102A500011928A95E9F73DC0EE2009F485CFC801AF
:102A60000E948427F82E882309F47ECF86E0F8019F
:102A7000A5EBB2E001900D928A95E1F78091B50245
:102A80009091B6020E94C6260E947E1322C03D8706
:102A90002E878D859E850E94C626292F22952F7010
:102AA000223028F49F7039F0811105C00BC024300A
:102AB00028F49F7049F4805E883020F0C8010E949D
:102AC000E7059F2CF92C05C0F8019581907F99F7B7
:102AD000F9CF8F2D6196EBE00C94B12BA0E0B0E024
:102AE000E4E7F5E10C94972B8091190190911A017C
:102AF000892BA1F0809111038F5F809311038111C5
:102B00000DC00E94FC2490E090931A01809319015B
:102B1000892B21F40E9473250E94CB1F08E814E042
:102B20007801B12CC0E087E0C82ECC0E8C2F0E941B
:102B3000E3258C2D0E94E3258C2F0E9446268F735F
:102B4000F7019081891721F08083DD24D39401C09F
:102B5000D12C8C2D0E9446268F73F70197818917FF
:102B600019F0878381E001C080E0D82ABD280E9447
:102B70003726CF5FFFEFEF1AFF0AC730A1F6C091EB
:102B80001503CC23C9F10E947010209113033091DA
:102B90001403AC01421B530B9A01909314038093CE
:102BA00013034F3F510509F020F4452B09F4A1C050
:102BB00002C02FEF30E01092150310921203E09143
:102BC0008604F0918704AF01425F5F4F90E030E0F0
:102BD0008081882341F0281718F010829C2F03C0B1
:102BE000821B80833C2F3196E417F50789F73093D9
:102BF0001503909312037DC0BB2009F471C00E949D
:102C000070109093140380931303E0918604F09165
:102C1000870480911503A6E9B4E09F01225F3F4F2E
:102C20004EE1E80199918E015C91591731F0508184
:102C3000511103C040839C9381E031961196E217B5
:102C4000F30779F7809315032091E6048091170329
:102C5000909118032223C9F1892B31F425982D98DE
:102C600026982E9827982F988091170390911803F3
:102C70009170892B79F480911603882319F0269896
:102C80002E9802C0269A2E9A9091160381E08927E9
:102C90008093160380911703909118038130984711
:102CA00050F01092E60480911D030E94542410926B
:102CB000180310921703809117039091180301963F
:102CC000909318038093170318C0892BB1F01092CA
:102CD00018031092170380911D030E9454240DC005
:102CE00080E090911203992309F4AECF81118DCF2A
:102CF00086CFB1108ACF81E0F4CF8B2DCDB7DEB770
:102D0000E9E00C94B32B0F931F9310E0F801EE0F42
:102D1000FF1FE653FE4F9081905797FD9195000F4E
:102D2000111FF801E553FE4FE081F0E0B097DF019D
:102D3000AA0FBB1F8D010E0F1F1F2003D001219F63
:102D4000B00D1124E8E3F0E0E91BF10997FDF395DC
:102D50009F01220F331F89010E0F1F1F4003900197
:102D6000419F300D11242A0F3B1F37FF02C021580D
:102D70003F4F220F232F221F330B620F1F910F9102
:102D800008950F931F93522F10E0F801EE0FFF1FCD
:102D9000E553FE4FE081F0E0B097EE0FFF1F9F017B
:102DA0005203D001539FB00D1124000F111FF801E1
:102DB000E653FE4F008110E000571109000F111F6C
:102DC00040039001419F300D11242A0F3B1F37FF14
:102DD00002C021583F4F220F232F221F330B620FB7
:102DE0001F910F9108950F931F93522F10E0F80138
:102DF000EE0FFF1FE553FE4FE081F0E0B0979F011B
:102E00005203D001539FB00D1124000F111FF80180
:102E1000E653FE4F008110E0005711094003900176
:102E2000419F300D11242A0F3B1F37FF02C021584C
:102E30003F4F220F232F221F330B620F1F910F9141
:102E40000895EF920F931F9393E0099F800111243F
:102E5000159507956E2D600F1F910F91EF900895B6
:102E6000A22F50E0FA01EE0FFF1FE553FE4F9081B5
:102E7000905297FD9195440F551FFA01E653FE4F6E
:102E80003081232F30E02A1B3109290F311D97FD96
:102E90003A95620F0895E42FF0E0EE0FFF1FE5531F
:102EA000FE4F6081621B0895E42FF0E0EE0FFF1FDC
:102EB000E653FE4F6081621B0895E42FF0E0EE0FB1
:102EC000FF1FE653FE4F408134EE439F412D1124F6
:102ED000E82FF0E050E0445E5F4FDA01A21BB10939
:102EE0009D01B7FF03C031952195310993E0220F71
:102EF000331F9A95E1F7AF01421B530B9A0157FF1D
:102F000002C020E030E0582F259F212D1124822F70
:102F10000895E42FF0E0EE0FFF1FE653FE4F4081CF
:102F200034EE439F412D1124E72FF0E050E0445E42
:102F30005F4FDA01A21BB1099D01B7FF03C03195B4
:102F40002195310993E0220F331F9A95E1F7AF01E4
:102F5000421B530B9A0157FF02C020E030E0279F2D
:102F6000212D1124722F0895FC019B01009721F45B
:102F700077FF2BC080E80895AC0197FF04C0442779
:102F80005527481B590BB901640F751F37FD0CC03D
:102F9000241B350BC901A5E0880F991FAA95E1F7FD
:102FA0000E94812E80E20CC0CB0165E0880F991F42
:102FB0006A95E1F7BA01621B730B0E94812E80E6CD
:102FC000861BF7FF03C08195089580E00895EF9276
:102FD0000F93CF93DF93D72FC82FC9010E19BA01D2
:102FE0000E94B417602F681B7D2F8C2FDF91CF912B
:102FF0000F91EF9008950F93CF93DF93D72FC82FA2
:10300000C901BA010E94B417682F600F7D2F8C2F61
:10301000DF91CF910F910895EF920F931F93CF936C
:10302000DF93D62FC72F182FC9010E19010FBA0130
:103030000E94B417081B202F219F212D1124822FBD
:103040006D2F7C2FDF91CF911F910F91EF900895FD
:10305000EF920F931F93CF93DF93D62F172FC82F85
:10306000C9010E19070FBA010E94B417702F781BFF
:10307000719F712D11246D2F8C2FDF91CF911F9196
:103080000F91EF900895FF920F931F93CF93DF93CB
:10309000F62ED72F182FC901C12FC01BBA010E94CD
:1030A000B417982F990F890FC81B2C2F219F212D02
:1030B0001124822F6F2D7D2FCDB7DEB7E5E00C9464
:1030C000B72BFF920F931F93CF93DF93F62E172FFB
:1030D000D82FC901C72FC01BBA010E94B417982F5F
:1030E000990F890F7C2F781B719F712D11246F2DE3
:1030F0008D2FCDB7DEB7E5E00C94B72B0E94C51C31
:1031000008950E94871C0895EAEEF4E081E380832D
:1031100080911F0190912001A091210181839283D0
:10312000A3838CE384838FEF858346E050E06CE1DA
:1031300070E0CF010E944E2C1092E9040895482FB0
:10314000982F46FD9095E92FEF739F7046FD9F5F86
:10315000E295EF70EE0FF0E0EE59FE4F2181299FCE
:10316000802D212D112482958F702295207F822B16
:103170003081982F930F892F47FD819580580895AE
:10318000BC018230910508F40895613E8EE1780714
:1031900048F49B0195E0369527959A95E1F748E02C
:1031A000420F01C04FEF91E0242F30E0290F311D75
:1031B00035952795229FF001239FF00DF00D1124E6
:1031C0006E177F0718F44FEF420F04C02F3F39F0FE
:1031D00091E0920F491740F78FEF890F08958FEF15
:1031E00008950F93CF93DF93D72FC82F47FD4195B5
:1031F000E8E3F0E0CF01841B910947FD9395889F98
:10320000B001899F700D700D1124229FC001239F72
:10321000900D900D1124860F971F0E94C018682FE3
:10322000660F860F682F600F7D2F8C2FDF91CF9157
:103230000F91089520E030E0869F212D969F200D6C
:10324000311D1124C9010895A0E0B0E0EAE2F9E1DE
:103250000C94982BF62E472FE82FF0E0711106C042
:10326000E059F94F8491782F682F73C0272F30E0F1
:10327000E059F94FE491FE2F0E2F10E056E0659FC4
:10328000C0011124CFEFD0E0BE010E947A2B5BEA8F
:103290005603C001579F900D11248F0D911D8F0D66
:1032A000911D982F990F980F7E01E21AF30AE09E64
:1032B000D001E19EB00DF09EB00D11248B2F499FDF
:1032C000A0011124452F55277E01E41AF50AE09E3E
:1032D000A001E19E500DF09E500D11246E01C91AFF
:1032E000D108C29E7001C39EF00CD29EF00C112436
:1032F0002F2D3327C21BD30BC09F9001C19F300DD0
:10330000D09F300D1124932F6230710591F048F455
:1033100061157105E1F061307105B9F49E2FE52F5B
:1033200016C06430710569F040F06630710579F0BF
:103330000CC09E2FEB2F832F0AC0EB2F8F2F952FC2
:1033400006C09B2F8E2FE32F02C09B2F852F7E2F31
:10335000692FCDB7DEB7E8E00C94B42BA0E0B0E065
:10336000E4EBF9E10C94972BC82F80910C018C139E
:103370000DC02091EA04237030E040910B0150E031
:1033800081E02417350719F480E001C081E08170E5
:1033900080931D018091EF0490911C01981739F0E2
:1033A00080931C0140E060E080E00E947E18CC30F9
:1033B00029F484E597E10E942B2A39C0CD3008F02A
:1033C00097C1C53009F447C008F06FC1C23009F099
:1033D00085C080911B01D82FDD0FDD0FD80FA5E030
:1033E000EA2EED0E20E32E1510F4F0E3EF2E0091FF
:1033F000EC041091ED04F090EB046F2D702F812FF1
:103400000E942419D62EC72EB82E6091EE046F0D9F
:10341000702F812F0E942419162F072FF82EDE15EA
:1034200008F48CC081E03FE23E1508F485C090911D
:103430001B019F5F90931B01811148C282E0809322
:103440001E0180911D01811141C2C1113FC283E063
:1034500080931E013BC280911B01D82FDD0FDD0F31
:10346000D80F15E01D0F113308F010E3F090EB04B6
:103470000091EC04E090ED046091EE046695669591
:1034800066958091E2049091E3040E941A190E94CB
:103490009F18805887FD8195880F282F3E2D239FE8
:1034A000212D1124822F6F2D702F0E942419062F99
:1034B000F72EE82ED11790F5ED2FF0E0DF01A65D95
:1034C000BD4F8C9190911C01982331F02E2D402FEF
:1034D0006F2DCF010E948118DF5FECCFC33008F061
:1034E00056C0CC2301F1C13009F058C080911B01B6
:1034F000D82FDD0FDD0FD80F15E01D0F113308F0A9
:1035000010E36091EB047091EC048091ED040E9453
:103510002419062FF72EE82ED11738F181E0103349
:1035200008F485CF09C080911D01882329F040E06F
:1035300060E080E00E947E1880E079CF8D2F90E0DF
:10354000FC01E65DFD4F308120911C01232359F0E1
:1035500030FF04C02F2D412F602F03C02B2D4D2D88
:103560006C2D0E948118DF5F5ACFED2FF0E0DF0154
:10357000A65DBD4F8C9190911C01982331F02E2DAA
:10358000402F6F2DCF010E948118DF5FC5CF809142
:103590001B01C33049F0C43009F44AC080911B01BB
:1035A0008F5F80931B014ACFD82FDD0FDD0FD80F1F
:1035B000E5E0FE2EFD0E80E38F1510F470E3F72E8C
:1035C000D090EC04C090ED042091EE0460E4E62E6F
:1035D0003E2D329F312D1124E32EDF1518F50D2FCE
:1035E00010E0F801E65DFD4F908180911C01892378
:1035F000B9F0F801EE0FFF1FE553FE4F8081829571
:103600008F706091EB048E9D600D11247D2D8C2DAB
:103610000E942419462F282F672FC8010E94811865
:10362000DF5FDBCF81E09FE29F1508F000CF84CF02
:10363000D82FDD0FDD0FD80F15E01D0F113308F067
:1036400010E3D090EC04C090ED042091EE0400E46F
:10365000029F012D1124D11708F060CFED2EF12C1F
:10366000F701E65DFD4F908180911C018923D9F01F
:10367000F701EE0FFF1FE653FE4F6081069FB0017A
:10368000112445E0759567954A95E1F78091EB0423
:10369000680F7D2D8C2D0E942419462F282F672F0F
:1036A000C7010E948118DF5FD6CFC83051F481E690
:1036B00098E104C0CB30B8F483E498E10E94D529A6
:1036C000B6CEC93058F4C63019F489E897E173CE04
:1036D000C73009F063CF8DE597E16DCECA3051F761
:1036E00088E298E102C08CE098E10E9459299FCEBF
:1036F000C23119F487EE97E1F8CFC331E8F4CF3047
:1037000019F481E297E1F1CFC03158F4CD3019F4CA
:103710008BE497E150CECE3009F040CF80E397E1C3
:103720004ACEC03119F481EF98E1C8CFC13109F018
:1037300035CF8BEF97E1C2CFC53129F483E896E10D
:103740000E94042974CEC63158F4C33119F483EFB2
:1037500096E1F6CFC43109F021CF81EC96E1F0CFAC
:10376000C73109F040C080911D0181111EC06091D8
:10377000EE0420E1620F08F46FEF8091E204909173
:10378000E3040E941A1965E070E00E947A2B892BED
:1037900009F0D2CE0E94112C60E370E00E94812ECD
:1037A00060911C010E945F1FC7CE80911B01082FF2
:1037B000000F000F080FD5E0D00FD13308F0D0E391
:1037C00010E0ED2EF12C0E151F0544F460911C0144
:1037D000C8010E945F1F0F5F1F4FF5CF81E0D033FC
:1037E00008F425CEA9CEC73108F03CC080911D0158
:1037F00081111EC06091EE0420E1620F08F46FEFAA
:103800008091E2049091E3040E941A196AE070E04A
:103810000E947A2B892B09F08FCE0E94112C60E335
:1038200070E00E94812E60911C010E94831F84CE53
:1038300080911B01082F000F000F080FD5E0D00F5B
:10384000D13308F0D0E310E0ED2EF12C0E151F055A
:103850000CF0C4CF60911C01C8010E94831F0F5F50
:103860001F4FF4CFCF3F09F099CE8091E2049091A1
:10387000E304A091E404B091E50488279C70AA2792
:10388000BB272AE0B695A795979587952A95D1F7F6
:1038900082309105A105B10571F083309105A10534
:1038A000B10569F040E00197A105B10511F060E0B4
:1038B00008C064E102C044E160E080E003C044E18C
:1038C00064E184E10E947E1882E0C2CDCDB7DEB70C
:1038D000E9E00C94B32BEAEEF4E0248130E1231B01
:1038E00008F420E024838091E90481608093E90456
:1038F0000895EAEEF4E0248130E1230F08F42FEF7D
:1039000024838091E90481608093E9040895A4E010
:10391000B0E0EDE8FCE10C949B2B8033910588F539
:10392000122F042FF62EBC01660F771F660F771F2C
:103930006059784F44E050E0CE0101960E94212C5E
:10394000898183704A81282F30E050E9859FC0012A
:103950001124875C9C4FFC01E40FF11DB497F082A9
:103960004B81FC01E40FF11DB49700834C81840F5F
:10397000911DFC01B4971083F901E95CFC4F81E0D3
:1039800080832496E5E00C94B72BFF920F931F934E
:10399000CF93DF93182F062FF42EC0E0D0E02F2D09
:1039A000402F612FCE010E94871C2196C033D10584
:1039B000B1F7CDB7DEB7E5E00C94B72B0F931F93AB
:1039C000CF93DF93082F000FEB0114E21093230332
:1039D000E4E2F3E0DE018D91819383E0E433F807C4
:1039E000D1F724E630E041E150E063E273E0802F5C
:1039F0000E94552B105F6096143B41F7DF91CF91E9
:103A00001F910F91089580913703882329F069E36E
:103A100073E084E70E94DE1C109237038091380324
:103A2000882329F069EC73E087E70E94DE1C10927E
:103A300038030895E3E2F3E06083418324E630E055
:103A400042E050E0BF01880F0E94552B0895A0E08E
:103A5000B0E0EDE2FDE10C94992B262F30E0A901B6
:103A600043585B4F7A01FA019081911107C0F70129
:103A70001082CDB7DEB7E7E00C94B52BD82EF2E17B
:103A80006F9FE001112400E010E0F801EC0FFD1F32
:103A9000E75AFB4F4081602F8D2D0E941A1D0F5F4A
:103AA0001F4F0231110589F7E2CFCF93DF93C82F63
:103AB0004BE06DEF0E941A1D40E06AE08C2F0E94DF
:103AC0001A1D8FE39CE90197F1F700C0000040E068
:103AD00060E08C2F0E941A1D40E061E08C2F0E9454
:103AE0001A1D40E066E08C2F0E941A1D40E06DEF29
:103AF0008C2F0E941A1DD0E040E06D2F8C2F0E9469
:103B00001A1DDF5FD231C1F740E06D2F8C2F0E946C
:103B10001A1DDF5FD432C1F740E06D2F8C2F0E9459
:103B20001A1DDF5FD43BC1F74BE06DEF8C2F0E9475
:103B30001A1D41E06AE08C2F0E941A1D40E06DEFD3
:103B40008C2F0E941A1DDF91CF910895A4E0B0E060
:103B5000ECEAFDE10C94922B0E94852A84E70E94F6
:103B6000551D87E70E94551D00E717E072E1772E8B
:103B7000E8E0CE2ED12CEE24E394F12C662463945D
:103B800044E050E0B801CE0101960E94212C2A8128
:103B900030E0C9018497AB80B12C44E2A41AB1088B
:103BA000EC81F0E0B497AC0197FF02C0495F5F4F32
:103BB00063E0559547956A95E1F72981237030E0D8
:103BC000729EB001739E700D1124675A7B4F4B019A
:103BD000840E911CB6010E94812ED70102C0AA0F4B
:103BE000BB1F8A95E2F7CD01D4019C91892B8C9360
:103BF000C501B7FC079653E0959587955A95E1F76F
:103C0000729EA001739E500D1124475A5B4F4A01CA
:103C1000880E911CC501B6010E94812EA70102C029
:103C2000440F551F8A95E2F7CA01D4019C91892B54
:103C30008C93CF01F7FD079643E0959587954A95BC
:103C4000E1F7729EA001739E500D1124475A5B4FFD
:103C50005A01A80EB11CCF01B6010E94812EF701B6
:103C600002C0EE0FFF1F8A95E2F7CF01D5019C91AC
:103C7000892B8C93F901E358FB4F60820C5F1F4F37
:103C8000B8E000331B0709F07BCF60E084E70E94B7
:103C9000271D61E087E70E94271D2496EEE00C9423
:103CA000AE2BEAEEF4E0438120E1421B08F440E051
:103CB0008181628190E00E94752A0895EAEEF4E025
:103CC000438120E1420F08F44FEF8181628190E04F
:103CD0000E94752A0895EAEEF4E0628120E1621BF9
:103CE00008F460E08181438190E00E94752A089584
:103CF000EAEEF4E0628120E1620F08F46FEF818167
:103D0000438190E00E94752A0895EAEEF4E08181F3
:103D100090E04381628108970E94752A0895EAEE37
:103D2000F4E0818190E04381628108960E94752AC7
:103D300008958091EA0486958695815009F487E17B
:103D40000E94952808958091EA04869586958F5F54
:103D5000883108F081E00E94952808951F920F9203
:103D60000FB60F9211248F939F93AF93BF938091BF
:103D70008504811113C080915D0290915E02A09133
:103D80005F02B09160024196A11DB11D80935D025A
:103D900090935E02A0935F02B0936002BF91AF91D7
:103DA0009F918F910F900FBE0F901F9018952091AB
:103DB0000A012223C9F02091610227FF15C0262F96
:103DC0002695269526952E31C8F4FC01E20FF11DAB
:103DD000677081E090E001C0880F6A95EAF78095EE
:103DE0009281892382830895FC01069622816213C1
:103DF00001C012823196E817F907C1F708952091A2
:103E00008304309184042817390771F09093840457
:103E100080938304E0918104F0918204309721F033
:103E20000084F185E02D0995089520917F0430915B
:103E300080042817390771F09093800480937F04E1
:103E4000E0918104F0918204309721F00680F7819F
:103E5000E02D09950895E0918104F0918204309756
:103E600029F00190F081E02D0995089580E00895F2
:103E7000CF93DF930E94112C66E070E00E94812EA8
:103E8000D82F0E94112C6EE070E00E94812EC82F66
:103E90006D2F782F80E00E94C1100497C59718F409
:103EA0008D2F9C2F02C00E94381FDF91CF91089563
:103EB000882311F0FA0101C0FB01099508951F93B1
:103EC000CF93DF93FC01E65DFD4F20816223B9F0C3
:103ED000EC010E94112C182F0E94112C8F77782F43
:103EE00020E8720F08F47FEF612F8091ED040E94AB
:103EF0002419462F282F672FCE010E948118DF91A9
:103F0000CF911F910895A0E0B0E0E9E8FFE10C94A3
:103F1000992BEC01FC01E65DFD4F9081692349F18D
:103F2000D090EC040091ED041091EB04E12EF12C03
:103F30000E94112C282FC7018C549F4F68E671E016
:103F40000E94812E8E199F0997FD0396959587955E
:103F5000959587952370612F289F600D11247D2DE5
:103F6000802F0E942419462F282F672FCE010E94F0
:103F70008118CDB7DEB7E7E00C94B52B8091EA0449
:103F8000837011F410921E018091EA048C7F81608D
:103F90008093EA0408950E94A61D80E090E00E94AC
:103FA000482C883E9E4F21F00E9463120E94841884
:103FB00046E050E06CE170E08AEE94E00E942A2C2A
:103FC0001092E9048091EA048C7F11F40E94841815
:103FD00008950F931F93CF938FB7F89440915D028C
:103FE00050915E0260915F02709160028FBF4093BA
:103FF000190350931A0360931B0370931C03809161
:104000002203811108C0C091EA048C2F837019F03B
:10401000C695C69501C0C0E080911E018130A1F017
:1040200038F0823009F471C0833009F47BC0A5C038
:1040300010921B014093E2045093E3046093E40464
:104040007093E50481E06BC08C2F0E94AE19CC23E5
:1040500009F493C080911E0383FD8FC080911D03DE
:1040600090E0A0E0B0E0AC01BD01F4E0769567958A
:1040700057954795FA95D1F7411551056105710599
:1040800021F4AC01BD0180E001C084E08A019B0104
:10409000E2E03695279517950795EA95D1F7011532
:1040A00011052105310519F08E5FB901A80176953A
:1040B000679557954795452B462B472B09F08F5F02
:1040C000833091F038F4813061F08230A9F482E0DD
:1040D00090E00CC0843069F0853071F485E090E0A8
:1040E00005C081E090E002C083E090E00E947E2461
:1040F00044C084E090E0FACF8091EF0481113DC08C
:1041000040E060E00E947E1838C0C0930C018091AE
:10411000EA04837080930B010E94031D83E0809367
:104120001E012BC08091E904882351F046E050E045
:104130006CE170E08AEE94E00E944E2C1092E9044B
:104140004091E2045091E3046091E4047091E5042D
:104150002FB7F89480915D0290915E02A0915F026A
:10416000B09160022FBF841B950BA60BB70B4A972B
:10417000A105B10510F010921E01CF911F910F9172
:104180000895CF93DF93CDB7DEB7CC55D1090FB6E5
:10419000F894DEBF0FBECDBF85B7806885BF85B7F9
:1041A000806885BF84B7877F84BF0FB6F894A895D1
:1041B00080916000886180936000109260000FBE63
:1041C00090E080E80FB6F8948093610090936100CE
:1041D0000FBE8CE790E190935B0280935A020E949D
:1041E000B70E0E94D60E8091E20084608093E200B8
:1041F00078948091E8048823A1F01091E9001F7061
:104200009091EC00892F817090FD80E8182B10921E
:10421000E9008091E80083FD0E94A60B1F701093B7
:10422000E90082E084BD93E095BD9AEF97BD80934D
:104230006E000E94FC2490E090931A018093190173
:104240000E9437260E947D26E8E8F4E0A6E9B4E063
:1042500011921D9224E0E639F207D1F78EE090E04A
:104260000E949B2E8093860490938704FC010E96F7
:104270001192E817F907E1F789EA8093800089E055
:104280008093810024982C983F988AB18F7C8AB9BA
:104290006E98479A8BB180638BB9769A8FE090E0E5
:1042A0000E94422C60931E0370931F03809320038F
:1042B0009093210367708FEF689FB001112475956B
:1042C0006795759567957727709389006093880047
:1042D00070938B0060938A0070938D0060938C00C4
:1042E0000E94732580E090E00E94482C883E9E4FFB
:1042F00011F00E94631282E090E00E943A2C8093B9
:10430000A40484E090E00E943A2C182F82E290E00E
:104310000E943A2C212F30E0382B309362022093F8
:10432000610283E090E00E943A2C0E947F278091F6
:104330001D030E9454240E94CB1F0E94BE1F0E9496
:10434000BE1F8091E90481608093E9048DE091E0D3
:10435000909382048093810428E1C22ED12CEE2414
:10436000E394BB24B3948091E804853009F071C0D4
:1043700080E4F82E93E0992E00E112E18091E804A8
:10438000853009F05EC08091E804843009F436C0BD
:104390000E94E91F8091220381110DC00E94AE1975
:1043A00010920C018091EA04837080930B010E94AB
:1043B000031D90921E01B0922203109285040FB645
:1043C000F894A895C09260000FBEF092600083B789
:1043D000817F846083BF83B7816083BF7894889531
:1043E00083B78E7F83BF0FB6F894A8958091600045
:1043F000886180936000109260000FBE80918B02F4
:10440000882309F4BBCF0E94FC2490E090931A010A
:10441000809319010E9437260E947D26E6E9F4E088
:10442000119224E0E43AF207D9F70E946E15E6E90A
:10443000F4E08191811155C184E0E43AF807C9F7AD
:104440009DCF109267020E94A4270E942B1F1092FA
:1044500022030E946E15882359F08FB7F89440917B
:104460005D0250915E0260915F02709160028FBFA9
:10447000A5EAB4E0E6E9F4E000E010E0302F219195
:104480009D919227A1F180E0FF24F394492F4F21C1
:1044900051F164968FAF649765963FAF65972F2172
:1044A00081E009F480E066968FAF66970E947010F5
:1044B0008160782F68969FAF8EAF689764964FADF6
:1044C000649765965FAD659766966FAD66976896DB
:1044D0008FAD68970E948923F801EB55FB4F8081CF
:1044E000F826F0822AC08F5FFF0C863079F60F5FC6
:1044F0001F4F0E30110509F0C1CF8FEF69968FAFB6
:1045000069976A968FAF6A976B961FAE6B970E94FA
:1045100070108160782F6D969FAF8EAF6D97699602
:104520004FAD69976A965FAD6A976B966FAD6B9763
:104530006D968FAD6D970E9489230E94E91F0E949E
:104540002B1F9091B30489138093B3048091E804E6
:10455000843009F008CF83E08093E9008091E8007F
:1045600082FF01CF8091E80085FF22C00E940810E1
:1045700081111CC000E210E04E01E1E28E0E911CA0
:1045800008C08091F100F40181934F01015011099D
:1045900069F08091E80085FDF4CF8091E8008B7789
:1045A0008093E8000E940810882399F391E001C0ED
:1045B00090E08091E8008B778093E800992309F4DC
:1045C000D2CE89A18130E1F150F1823021F08430E6
:1045D00009F47BC0C8CE8BA19AA19093B4048093B8
:1045E000B5048DA19CA19093B6048093B7048FA1CC
:1045F0009EA19093B8048093B90442E150E063E235
:1046000070E0CE018F5B9F4F0E942A2C84E089834B
:10461000E092E7048EEF8A831092E6040CC01982C0
:104620008CE0EAE6F1E0DE01129601900D928A95A7
:10463000E1F78EEF8D87CE0101960E94D82893CEA8
:104640000AEB14E00E94381FF801819391938F01C7
:10465000F4E0003C1F07B1F7E9828091BA048A8335
:104660008091BB048B838091BC048C838091BD04BA
:104670008D838091BE048E838091BF048F838EEFE3
:104680008887E092E604CE0101960E94D82842E194
:1046900050E063E270E0CE0101960E942A2CFE01F8
:1046A000319682E183301CF09189928B01C0128A8D
:1046B000815031978F3FB1F742E150E063E270E003
:1046C000CE0101960E944E2C4ECE8091E7048823A5
:1046D00009F449CE80E00E943C278AA10E947327FA
:1046E00042CE09BD19BD09B400FEFDCF8091D800AE
:1046F0008F7D8093D8008091E00082608093E000FD
:104700008091E00081FDFCCF109267020E94A427F7
:1047100035CEA7E1B0E0EFE8F3E20C949D2B4B8B94
:104720005C8B6D8B7E8B8F8B611110920E0386E0FC
:104730009E01235F3F4FD901E82F1D92EA95E9F7CB
:1047400095E0FE017396D90101900D929A95E1F7DB
:104750009C894E895F897B897D879E876F87598B6E
:10476000488BF901DE01179601900D928A95E1F7C9
:10477000CE0107960E94E71381113EC086E0FE013C
:104780003796DE01119601900D928A95E1F7FF812F
:10479000E8856A857B856115710531F0EF3F31F45D
:1047A00081E0FF3F19F403C081E001C080E080FD9B
:1047B00023C02091BB0230E0C90101968770992780
:1047C0004091EC0250E08417950779F1F983EA8370
:1047D0007D836C8396E0929FD001939FB00D11244E
:1047E000A454BD4FFE01319601900D929A95E1F7C8
:1047F0008093BB020E94741316E08091EC029091AA
:10480000BB02891709F1189FC001112484549D4FE0
:104810000E94E7138823C1F08091EC0290E001969A
:10482000877099278093EC02E8CF109267020E946C
:10483000A4271092BB021092EC02E5EBF2E086E0B6
:10484000DF011D928A95E9F76796E3E00C94B92B96
:10485000982F92959F7019F0892F24E001C020E0D5
:10486000982F9695969511F02E5F892F982F9695F3
:1048700009F02F5F822F0895109267020E94A427EB
:104880002FEF84E39CE0215080409040E1F700C08E
:1048900000009AE088E10FB6F894A8958093600034
:1048A0000FBE90936000FFCFCF93C82F0E942824A3
:1048B00056985E9825982D9826982E9827982F9888
:1048C00090E0FC013197E730F105A8F4E459FF4F7F
:1048D0000C94952E259A2D9A0EC0259A2D9A269ADB
:1048E0002E9A09C0259A2D9A04C0259A2D9A269AA7
:1048F0002E9A279A2F9A8C2FCF910895A0E0B0E09E
:10490000E4E8F4E20C948F2B20E9289F7001299FA2
:10491000F00C1124C0E0D0E000E010E067018FEF60
:10492000C81AD80A570182E0A80EB11CF701EC0F93
:10493000FD1FE05DF74F6491F601EC0FFD1FE05D98
:10494000F74F7491F501EC0FFD1FE05DF74F849177
:10495000611107C0711105C0811103C020E040E062
:104960003CC00E942419962E372E882E6091ED04AB
:1049700070E080E090E00E94862D20E030E04FE77C
:1049800053E40E94E52C2B013C01682D70E080E08F
:1049900090E00E94882DA30192010E94142E0E9493
:1049A000572D862E692D70E080E090E00E94882DC2
:1049B000A30192010E94142E0E94572D962E632D62
:1049C00070E080E090E00E94882DA30192010E9497
:1049D000142E0E94572D282D492DC8010E948118A0
:1049E0000F5F1F4F2396C039D10509F09FCFCDB778
:1049F000DEB7E1E10C94AB2B80E290E090931A01DA
:104A0000809319018091C00481110EC00E94852AF3
:104A100081E08093C0042FEF83ED90E3215080402C
:104A20009040E1F700C0000064E670E080E40E947E
:104A30008B2A90931A0180931901892B09F04EC09B
:104A400064E670E080E00E94002B90931A0180934E
:104A50001901892B09F042C064E670E080E00E94F1
:104A6000002B90931A0180931901892BB9F564E604
:104A700070E08FE30E94002B90931A01809319013C
:104A8000892B61F50E94762B64E670E080E40E9439
:104A90008B2A90931A0180931901892BF9F464E60B
:104AA00070E08CE00E94002B90931A018093190112
:104AB000892BA1F464E670E080E00E94002B9093C3
:104AC0001A0180931901892B49F464E670E08FE3A1
:104AD0000E94002B90931A01809319010E94762B5B
:104AE000809119010895CF93DF9356985E98259889
:104AF0002D9826982E9827982F98C8E8D0E08FEF09
:104B000090E099838883AAE8B0E011969C938E93F5
:104B1000ECE8F0E091838083259A2D9A2FEF80E7CF
:104B200092E0215080409040E1F700C00000269ABA
:104B30002E9A2FEF80E792E0215080409040E1F7DD
:104B400000C00000279A2F9A2FEF80E792E02150B3
:104B500080409040E1F700C0000025982D982FEF8D
:104B600080E792E0215080409040E1F700C00000D3
:104B700026982E982FEF80E792E0215080409040B9
:104B8000E1F700C0000027982F9880911E038770DE
:104B90002FEF829FC0011124959587959595879554
:104BA00099279983888311969C938E939183808310
:104BB00056985E9825982D9826982E9827982F9885
:104BC000DF91CF910895CF93E82F873080F58091C2
:104BD000190190911A01892B09F047C0CE2F64E684
:104BE00070E080E40E948B2A90931A01809319014F
:104BF000892BD1F464E670E082E10E94002B90934F
:104C00001A0180931901892B79F481E090E001C0A9
:104C1000880FCA95EAF764E670E080950E94002B41
:104C200090931A01809319010E94762B1EC090E088
:104C3000FC013797E730F105C0F4ED58FF4F0C94B5
:104C4000952E209A289811C0219A29980EC0229A50
:104C50002A980BC0239A2B9808C0529A5A9805C0DC
:104C6000539A5B9802C03E9A4698CF910895209837
:104C700028982198299822982A9823982B98529816
:104C80005A9853985B983E9846980895CF938730EA
:104C900040F58091190190911A01892B59F564E62C
:104CA00070E081E40E948B2A90931A01809319018D
:104CB000892B11F0C0E011C084E690E00E94302BF7
:104CC00097FF05C090931A0180931901F3CFC82F65
:104CD000C09510921A01109219010E94762B8C2F08
:104CE0000AC09FB18FB1807F869586959370892B7E
:104CF000809501C080E0CF9108958098889A81982E
:104D0000899A84988C9A85988D9A86988E9A879895
:104D10008F9A089580E090E00E94151F80E090E057
:104D20000E94FF1E10920E030E94E6120895CF9279
:104D3000DF92FF920F931F93CF93DF936C0100914B
:104D40001D0380911003082BC7E0D0E010E0C801DC
:104D50000C2E02C0959587950A94E2F780FD04C059
:104D60002197A8F7F12C09C0FC2EB6018C2F0E94C8
:104D7000C1100E94DA10019799F38F2DDF91CF9126
:104D80001F910F91FF90DF90CF900895CF93DF9305
:104D9000EC010E949726BE010E94C1100E94DA1009
:104DA000DF91CF910895292F9E3078F5863068F5F0
:104DB00090E036E0239F800D911D1124682F6770CD
:104DC00023E0969587952A95E1F7FC01EE0FFF1FEA
:104DD000E80FF91FEF53FB4F40E050E080E02191D6
:104DE00030E0062E02C0369527950A94E2F721702E
:104DF0003327042E01C0220F0A94EAF7822B4F5F5B
:104E00005F4F4330510559F7089580E00895292FE9
:104E10009E3088F5863078F590E036E0239F800D4F
:104E2000911D1124282F277051E001C0550F2A959C
:104E3000EAF723E0969587952A95E1F7FC01EE0FB6
:104E4000FF1FE80FF91FEF53FB4F20E030E070E049
:104E50004081CB01022E02C0969587950A94E2F715
:104E60008170819584278523842781932F5F3F4F0D
:104E70002330310569F70895A0E2B0E0E2E4F7E2FB
:104E80000C949D2B0E945424182F8091E7048823B2
:104E9000A9F02FEF80E792E0215080409040E1F7A9
:104EA00000C0000085E08983812F0E9428248A8326
:104EB0008EEF8B83CE0101960E94D82810931D039C
:104EC0000E948A26A096E3E00C94B92B21E030E002
:104ED00001C0220F8A95EAF7209580911D03822355
:104EE0000E943C27089521E030E001C0220F8A95FE
:104EF000EAF780911D03822B0E943C27089580933E
:104F000010030E948A260895FC01808191810E94ED
:104F1000C62692959F70963079F010F4925001C099
:104F20009A50923068F4803F69F018F4883E40F45B
:104F300009C0843F29F406C0883E20F0813F11F06B
:104F400080E0089581E0089580910A01882331F07E
:104F50008091610287FF02C08EE101C086E0E7E92F
:104F6000F2E0DF011D928A95E9F70E948A260895F2
:104F7000882321F00E94DF120E94E6120895882300
:104F800039F090916702892B809367020E94E612A4
:104F90000895882349F1682F8CEF860F813A28F411
:104FA00085E992E00E94D71E0CC080E2860F88300F
:104FB00058F4677081E001C0880F6A95EAF70E9493
:104FC000DF120E94E61208958BE5860F833028F4E5
:104FD00080E090E00E94151F0895685A673120F420
:104FE00080E090E00E94FF1E0895CF93882309F48B
:104FF0009AC0C82F8CEF8C0F813A08F05EC0809168
:105000000A018823E1F08091610287FF18C0EC2F2C
:10501000E695E695E695F0E0EB56FD4F8281282F68
:1050200030E04C2F477081E090E002C0880F991F5C
:105030004A95E2F782239323892B59F411C0E7E9BB
:10504000F2E08191C81729F082E0ED39F807C9F73D
:1050500007C06C2F85E992E00E94D71E0E94E612DD
:1050600080910A018823C9F08091610287FF15C0F1
:10507000AC2FA695A695A695B0E0AB56BD4FC770D0
:1050800081E090E001C0880FCA95EAF712969C91E2
:105090001297892B12968C9320C0A7E9B2E0EFEF0C
:1050A00080E09D91C917C9F0EF3F19F4911101C03B
:1050B000E82F8F5F8630A9F72DC080E28C0F8830F3
:1050C00078F4C77081E090E001C0880FCA95EAF7D4
:1050D00090916702892B809367020E94E61223C099
:1050E000EBE5EC0FE33040F4F0E0EF5CFE4F808145
:1050F00090E00E94151F17C0C85AC731A0F4EC2FCA
:10510000F0E0EE0FFF1FEC5CFE4F808191810E946A
:10511000FF1E09C0EF3F09F30E2E000CFF0BEB56EC
:10512000FD4FC283DACFCF9108959091EA04937036
:10513000A1F0811102C0946007C0883110F09C6515
:1051400003C0880F880F982B9093EA0410921E01D9
:105150008091E90481608093E9040895EF92FF92C1
:105160000F931F93CF93DF937C018B010E94081054
:10517000811119C0E70101151105A1F08091E80026
:1051800085FD0AC08091E8008E778093E8000E9438
:105190000810882381F307C089918093F1000150A2
:1051A0001109E9CF80E0CDB7DEB7E6E00C94B62B6D
:1051B000CF932091E804243029F5C091E900CF7005
:1051C0003091EC00232F217030FD20E8C22B22E02B
:1051D0002093E9002091E80020FF11C040E050E05A
:1051E00060E270E00E94AE28882321F01092E6046D
:1051F0001092E7048091E8008E778093E800CF70EA
:10520000C093E900CF910895A0E0B0E0EAE0F9E2B0
:105210000C94952B6C0180911B01C82FCC0FCC0FE7
:10522000C80F15E01C0F113308F010E36091EE0475
:10523000669566958091E2049091E3040E941A19A4
:10524000D82F80E48D0F0E949F1890E8F92EF80E59
:105250008D2F0E949F1820E8922E980EC11700F5FE
:10526000AC2EB12CF501E65DFD4F908180911C01C3
:105270008923A1F06091EB047091EC048091ED041E
:10528000ED2E0C2F292D4F2DF60109950E94241982
:10529000462F282F672FC5010E948118CF5FDECFD0
:1052A00081E0103308F080E0CDB7DEB7EBE00C947E
:1052B000B12B6F927F928F929F92AF92BF92CF92BB
:1052C000DF92EF920F931F93CF93DF933C01809176
:1052D0001B01C82FCC0FCC0FC80FD5E0DC0FD1338A
:1052E00008F0D0E36091EE0466958091E20490911D
:1052F000E3040E941A19182FCD1708F044C08C2E11
:10530000912CF401E65DFD4F908180911C01892371
:10531000C1F1F401EE0FFF1FE653FE4FC080D12C08
:1053200080E7C81AD108F401EE0FFF1FE553FE4FC6
:10533000A080B12CE0E2AE1AB108CC9C9001CD9CCB
:10534000300D300D1124AA9CC001AB9C900D900D26
:105350001124820F931F0E94C018082F6091EB0444
:105360007091EC048091ED04E12E9501A601F3010A
:1053700009950E942419462F282F672FC4010E94E7
:105380008118CF5FB9CF81E0D03308F080E0DF91A2
:10539000CF911F910F91EF90DF90CF90BF90AF9082
:1053A0009F908F907F906F900895A0E0B0E0EBED1C
:1053B000F9E20C94982B6C0180911B01C82FCC0F43
:1053C000CC0FC80FD5E0DC0FD13308F0D0E36091EB
:1053D000EE0466958091E2049091E3040E941A190C
:1053E000182FCD1778F5EC2EF12CF701E65DFD4F67
:1053F000908180911C01892319F1F701EE0FFF1FA5
:10540000E553FE4F208130E020523109F701EE0FC5
:10541000FF1FE653FE4F408150E040575109609115
:10542000EB047091EC048091ED04012FF6010995D5
:105430000E942419462F282F672FC7010E94811828
:10544000CF5FCFCF81E0D03308F080E0CDB7DEB7BB
:10545000E8E00C94B42BA0E0B0E0E1E3FAE20C94B5
:10546000992B8C0180911B01C82FCC0FCC0FC80F3A
:10547000D5E0DC0FD13308F0D0E36091EE046695FF
:10548000669521E0620F08F46FEF8091E20490913D
:10549000E3040E941A19D82ECD17F0F4EC2EF12C4B
:1054A000F701E65DFD4F908180911C01892391F009
:1054B0006091EB047091EC048091ED042D2D4C2F44
:1054C000F80109950E942419462F282F672FC7013C
:1054D0000E948118CF5FE0CF81E0D03308F080E0F8
:1054E000CDB7DEB7E7E00C94B52B9091EA0493704A
:1054F00059F08093EB046093EC044093ED048091A9
:10550000E90481608093E90408951092B9008CE069
:105510008093B8000895A0E0B0E0E1E9FAE20C94CD
:10552000952BB82EEB010E9470106C01C431D1058F
:1055300058F0CF3F8FEFD80759F0CE0164E170E00B
:105540000E947A2B7B0107C0EE24E394F12C03C068
:1055500025E0E22EF12C84E8A82E94EA992E1092F0
:10556000BC009092BC000E9470108C018091BC0025
:1055700087FD08C00E947010801B910B8E159F053F
:10558000A8F32AC08091B900887F883041F08091CB
:10559000B900887F803119F00FEF1FEF1FC0B09264
:1055A000BB00A092BC000E9470108C018091BC00D6
:1055B00087FD08C00E947010801B910B8E159F05FF
:1055C000A8F30AC08091B900887F883111F0803437
:1055D00019F700E010E00EC00EEF1FEFCF3F8FEF86
:1055E000D80709F4BCCFC6010E9461108C179D0733
:1055F00008F4B5CFC801CDB7DEB7EBE00C94B12B02
:105600000F931F93CF93DF93EB018093BB0084E84C
:105610008093BC000E9470108C018091BC0087FDBB
:105620000EC0CF3F8FEFD807C1F30E947010801BD0
:10563000910B8C179D0788F38EEF9FEF0CC0209184
:10564000B900287F81E090E0283211F480E090E0FA
:10565000919581959109DF91CF911F910F910895B7
:105660000F931F93CF93DF93EC0184E88093BC00EA
:105670000E9470108C018091BC0087FD0EC0CF3F4E
:105680008FEFD807C1F30E947010801B910B8C170D
:105690009D0788F38EEF9FEF03C08091BB0090E0E1
:1056A000DF91CF911F910F910895A0E0B0E0EBE55D
:1056B000FBE20C94982B6B018A017901B9010E94DD
:1056C0008B2AE6010C0D1D1DC017D10741F424E9FA
:1056D0002093BC00CDB7DEB7E8E00C94B42B97FD67
:1056E000F6CFB70189910E94002BEECF84E9809319
:1056F000BC000895AA1BBB1B51E107C0AA1FBB1F1A
:10570000A617B70710F0A61BB70B881F991F5A954D
:10571000A9F780959095BC01CD0108952F923F92F5
:105720004F925F926F927F928F929F92AF92BF92B1
:10573000CF92DF92EF92FF920F931F93CF93DF935D
:10574000CDB7DEB7CA1BDB0B0FB6F894DEBF0FBEBA
:10575000CDBF09942A88398848885F846E847D8407
:105760008C849B84AA84B984C884DF80EE80FD8009
:105770000C811B81AA81B981CE0FD11D0FB6F8947F
:10578000DEBF0FBECDBFED0108958F929F92AF9205
:10579000BF92CF92DF92EF92FF92CF93DF93EC0113
:1057A000688179818A819B816115710581059105E7
:1057B00021F464E279ED8BE597E02DE133EF41E0F0
:1057C00050E00E94822C49015A019B01AC01A7EADA
:1057D000B1E40E94A12C6B017C01ACEEB4EFA501F9
:1057E00094010E94AF2CDC01CB018C0D9D1DAE1DE0
:1057F000BF1DB7FF03C00197A109B04888839983F3
:10580000AA83BB839F77DF91CF91FF90EF90DF90CA
:10581000CF90BF90AF909F908F9008950E94C52B1E
:10582000089580E091E00E94C52B0895A0E0B0E0CB
:105830008093000190930101A0930201B0930301B2
:105840000895FB01DC0102C005900D9241505040CB
:10585000D8F70895DC01CB01FC01F999FECF06C011
:10586000F2BDE1BDF89A319600B40D92415050401E
:10587000B8F70895F999FECF92BD81BDF89A99279E
:1058800080B50895A6E1B0E044E050E00C942C2CE3
:10589000A8E1B0E042E050E00C942C2CDC01A40F15
:1058A000B51F4150504048F0CB01840F951F2E91F9
:1058B0000E945F2C41505040D0F70895262FF9994F
:1058C000FECF92BD81BDF89A019700B4021639F05F
:1058D0001FBA20BD0FB6F894FA9AF99A0FBE089530
:1058E0000396272F0E945F2C0E945E2C252F0E947A
:1058F0005F2C242F0C945F2C0196272F0E945F2C85
:105900000C945E2C052E97FB1EF400940E94992C9B
:1059100057FD07D00E94B42C07FC03D04EF40C9422
:10592000992C50954095309521953F4F4F4F5F4FA3
:10593000089590958095709561957F4F8F4F9F4FFB
:1059400008950E94D62CA59F900DB49F900DA49F02
:10595000800D911D11240895B7FF0C94A12C0E9475
:10596000A12C821B930B0895A1E21A2EAA1BBB1B2C
:10597000FD010DC0AA1FBB1FEE1FFF1FA217B3071B
:10598000E407F50720F0A21BB30BE40BF50B661F31
:10599000771F881F991F1A9469F7609570958095F5
:1059A00090959B01AC01BD01CF010895A29FB0016C
:1059B000B39FC001A39F700D811D1124911DB29F43
:1059C000700D811D1124911D08950E94F92C0C94D5
:1059D000DA2D0E94D32D58F00E94CC2D40F029F4EE
:1059E0005F3F29F00C94C32D51110C940E2E0C9492
:1059F000C92D0E94EB2D68F39923B1F3552391F340
:105A0000951B550BBB27AA2762177307840738F02D
:105A10009F5F5F4F220F331F441FAA1FA9F335D08A
:105A20000E2E3AF0E0E832D091505040E695001C3E
:105A3000CAF72BD0FE2F29D0660F771F881FBB1FF8
:105A4000261737074807AB07B0E809F0BB0B802DD6
:105A5000BF01FF2793585F4F3AF09E3F510578F002
:105A60000C94C32D0C940E2E5F3FE4F3983ED4F3B8
:105A7000869577956795B795F7959F5FC9F7880FD6
:105A8000911D9695879597F90895E1E0660F771F28
:105A9000881FBB1F621773078407BA0720F0621BB9
:105AA000730B840BBA0BEE1F88F7E09508950E94E4
:105AB000F32D88F09F5798F0B92F9927B751B0F080
:105AC000E1F0660F771F881F991F1AF0BA95C9F782
:105AD00014C0B13091F00E940D2EB1E008950C94E5
