:100000000C942E040C944B040C944B040C944B0451
:100010000C944B040C944B040C944B040C944B0424
:100020000C944B040C944B040C94CF2D0C94A12EE7
:100030000C9405240C944B040C944B040C944B042A
:100040000C944B040C944B040C944B040C944B04F4
:100050000C944B040C946D240C944B040C944B04A2
:100060000C944B040C944B040C944B040C944B04D4
:100070000C944B040C944B040C944B040C944B04C4
:100080000C944B040C944B040C944B040C944B04B4
:100090000C944B040C944B040C944B040C944B04A4
:1000A0000C944B040C944B040C944B04A304A60432
:1000B000A904AC04AF04B104B404F407F9070308BD
:1000C000F707FC070108FF073C093E0949094009F9
:1000D00042094409460948094B094D094F095A0983
:1000E000510953095509570959095C0965196519D9
:1000F00097199719CE19EE19571BB51B301AB51B56
:10010000DD1ADD1A4E1BB51BB51BAF1BEA1AEA1A26
:10011000EA1AEA1AEA1AEA1AEA1AEA1AEA1AEA1ABF
:10012000EA1AEA1AEA1AEA1AEA1AEA1AFB1A081B7F
:100130000F1B161B201B401C401C521C521C491C30
:10014000521C521C521C401C401C4E1C521C521C67
:100150004E1C0E2F352F2730352F2730812FA42FFF
:100160002730FA2F093007634236B79BD8A71A39D0
:10017000685618AEBAAB558C1D3CB7CC5763BD6DF5
:10018000EDFD753EF6177231BF000000803F05A8F7
:100190004CCDB2D44EB93836A9020C50B9918688EC
:1001A000083CA6AAAA2ABE000000803F6572676FBD
:1001B000646F785F657A2F63643435343137313852
:1001C0006131383033383539643135204020302EB4
:1001D000362E3133362D33332D6733303265373297
:1001E0002D6469727479000000F0A135002B003194
:1001F00000E100310000001E003400040033003133
:10020000004E001F00360012001400E0004C0020D9
:1002100000370008000D00E2002A0021001300183A
:10022000000E00E3004B0022001C000C001B00002D
:10023000004A0029002F000000015100004D00027B
:10024000533000000001510000A9002300090007FD
:100250000005000000AE0024000A000B0010005052
:1002600000AA002500060017001A0051002C0026E5
:10027000001500110019005200280027000F001679
:10028000001D004F00A8002E0038002D00E50031B1
:100290000000004600010001000100010000003ADA
:1002A00000010001000100010001003B000100010C
:1002B0000001000100C95C3C0001000100E00001F8
:1002C00000CA5C3D0001000100E200010001003EA7
:1002D0000001000100E3000000C35C0353010000C3
:1002E0000001000000C25C010001000000010000EC
:1002F000006A003F000100010001000000DF5C40D7
:10030000000100500001000100690041005200514D
:100310000001000100C55C420001004F0001000126
:1003200000C65C430001000100010001000100441F
:100330000045000100010001000000005C01000117
:1003400000010001000000010001000100010001A6
:100350000001000100010001000100010001000195
:100360000001000100010001000100010001000185
:100370000001000100010001000100010001000076
:100380000001000100010000000100000001000167
:100390000001000000010000000100010001000157
:1003A0000001000000010001005F005C00590062D4
:1003B000000100540060005D005A00620001005519
:1003C0000061005E005B00630001002A00560057D8
:1003D0000058005800010001000100010001000167
:1003E0000000000100010001000100010000001EEA
:1003F00000140004001D00010001001F001A001677
:10040000001B000100010020000800070006000199
:10041000000100210015000900190001000100225F
:100420000017000A000500000001000100010000A3
:1004300000010000000100010001000000010000B7
:1004400000010023001C000B00110000000100242B
:100450000018000D0010000100010025000C000E26
:1004600000360001000100260012000F00370001D5
:100470000001002700130033003800010001002EA6
:100480000001002D0001000100000000000000003C
:100490000000002A2B2800000000000000000000DF
:1004A00000000000000029000000002C1E34202164
:1004B0002224342627252E362D3738271E1F2021AB
:1004C00022232425263333362E37381F040506070A
:1004D00008090A0B0C0D0E0F101112131415161724
:1004E00018191A1B1C1D2F3130232D350405060742
:1004F00008090A0B0C0D0E0F101112131415161704
:1005000018191A1B1C1D2F3130354C00000000003B
:1005100000000000000000000000000000000000DB
:1005200000000000000000000000000001010101C7
:1005300001010001010101000000000000000000B5
:1005400000000000000100010001010101010101A2
:10055000010101010101010101010101010101018B
:100560000101010101010000000101000000000083
:10057000000000000000000000000000000000007B
:10058000000000000000010101010000047F3F1F86
:10059000643214643214783C1E1E140A056801F09B
:1005A00000B40078005A00000000000001010101C1
:1005B000010101010102020202020202020203031E
:1005C00003030303030304040404040405050505ED
:1005D00005060606060607070707080808080909AA
:1005E000090A0A0A0A0B0B0B0C0C0C0D0D0D0E0E52
:1005F0000F0F0F10101111111212131314141515DF
:1006000016161717181819191A1A1B1C1C1D1D1E4F
:100610001F1F2020212222232425252627272829A1
:100620002A2B2B2C2D2E2F2F3031323334353636CA
:100630003738393A3B3C3D3E3F40414243444647D0
:1006400048494A4B4C4D4F50515253555657585AA2
:100650005B5C5E5F606263646667696A6C6D6E7046
:100660007173747678797B7C7E8081838486888AB6
:100670008B8D8F91929496989A9B9D9FA1A3A5A7ED
:10068000A9ABADAFB1B3B5B7B9BBBDBFC1C4C6C8E7
:10069000CACCCFD1D3D6D8DADCDFE1E4E6E8EBEDA3
:1006A000F0F2F5F7FAFCFF040330000000160345F2
:1006B00000720067006F0044006F00780020004562
:1006C000005A00000016034500720067006F0044E6
:1006D000006F007800200045005A00000004030964
:1006E0000409026D00040100A0FA090400000103DE
:1006F00001010009211101000122400007058103C9
:1007000008000A0904010001030102000921110186
:100710000001224D000705820308000A09040200B7
:100720000103000000092111010001223600070524
:10073000830308000A0904030001030000000921E3
:100740001101000122390007058403200001120174
:10075000100100000008EDFE071301000102030173
:1007600005010906A101050719E029E71500250182
:10077000950875018102050819012905950575017E
:1007800091029501750391010507190029F71500DC
:10079000250195F875018102C005010980A1018537
:1007A000021601002603001A81002A8300751095A5
:1007B000018100C0050C0901A10185031601002675
:1007C0009C021A01002A9C02751095018100C00547
:1007D000010902A1010901A1000509190129051555
:1007E00000250195057501810295017503810105BB
:1007F00001093009311581257F95027508810609A7
:10080000381581257F950175088106050C0A380287
:100810001581257F950175088106C0C0050109066F
:10082000A101050719E029E71500250195087501C3
:1008300081029501750881010508190129059505B1
:10084000750191029501750391010507190029FFB2
:10085000150026FF00950675088100C011241FBEF3
:10086000CFEFDAE0DEBFCDBF11E0A0E0B1E0E2E51E
:10087000F8E602C005900D92A83EB107D9F723E033
:10088000A8EEB1E001C01D92AD3BB207E1F70E94B6
:10089000F42A0C9427340C94000080B38C7080BB35
:1008A00081B3836F81BB089584B1807F84B985B1A2
:1008B000807F85B98AB1837F8AB98BB1837F8BB9F9
:1008C0003E9846980895CF93E82F873090F5809111
:1008D000000190910101892B09F048C0CE2F64E6F8
:1008E00070E080E40E94FA0590930101809300017A
:1008F000892BD1F464E670E082E10E945106909366
:10090000010180930001892B79F481E090E001C01E
:10091000880FCA95EAF764E670E080950E94510658
:10092000909301018093000184E690E0CF910C94B4
:10093000A60690E0FC013797E730F105B8F4EA5AD3
:10094000FF4F0C94CC33209A289810C0219A2998F4
:100950000DC0229A2A980AC0239A2B9807C0529A4F
:1009600001C0539A5B9802C03E9A4698CF91089571
:10097000CF93873008F041C0809100019091010130
:10098000892B09F043C064E670E080E40E94FA0518
:100990009093010180930001892B11F0C0E027C0E2
:1009A00064E670E083E10E94510690930101809318
:1009B0000001892B99F764E670E081E40E94FA0552
:1009C0009093010180930001892B41F784E690E028
:1009D0000E94810697FF05C090930101809300015A
:1009E000DDCFC82FC095109201011092000184E65E
:1009F00090E00E94A6068C2F0AC09FB18FB1807F25
:100A0000869586959370892B809501C080E0CF9163
:100A10000895089508950C940A050E94380790E0FF
:100A200090930101809300010E9454040E944D04A0
:100A300029EE31E0EDE3F2E04EE04E0F119280E05E
:100A400090E0D901A80FB91F1C920196863091053C
:100A5000C1F72A5F3F4F4E13F1CF0C946C080E94F0
:100A6000380790E090930101809300010E945404A4
:100A70000E944D04EDE3F2E08EE08E0F11928E1392
:100A8000FDCF089526E0829FC0011124FC01E751AB
:100A9000FE4F20E030E080E041E050E0908199237B
:100AA00019F09150908307C0BA01022E01C0660F61
:100AB0000A94EAF7862B2F5F3F4F31962630310597
:100AC00069F7089596E0699FB001112420E030E0B5
:100AD00090E04FE0FC01022E02C0F595E7950A94E4
:100AE000E2F7E0FF06C0F901E60FF71FE751FE4FFE
:100AF00040832F5F3F4F2630310561F70895CF9235
:100B0000DF92EF92FF920F931F93CF93DF93809129
:100B1000000190910101892B91F08091E8018F5F94
:100B20008093E80181110BC00E94380790E09093F8
:100B3000010180930001892B11F40E94CA068DE304
:100B4000C82E82E0D82E94E4E92E92E0F92EC0E07F
:100B50008C2F0E94630407E00C0F802F0E94630417
:100B60008C2F0E944205182F8C2F0E94B804F6018A
:100B70009081D12FD095D9238123D82B6C2F8D2F05
:100B800089270E946205F601D1936F01802F0E9490
:100B90004205182F802F0E94B804F7019081D12FB1
:100BA000D095D9238123D82B602F8D2F89270E94A0
:100BB0006205F701D1937F010E945404CF5FC730D3
:100BC00039F60E94780881E0DF91CF911F910F9153
:100BD000FF90EF90DF90CF900895E82FF0E0E35C76
:100BE000FD4F8081089508951092B9008CE08093A4
:100BF000B8000895EF92FF920F931F93CF93DF9366
:100C0000182FEB011092BC0084EA8093BC000E9474
:100C100037247C019091BC0097FD0EC0CF3F8FEF31
:100C2000D807C1F30E9437248E199F098C179D079E
:100C300088F38EEF9FEF2EC09091B900987F983087
:100C400041F09091B900987F903119F08FEF9FEFAC
:100C500021C01093BB0084E88093BC000E9437241D
:100C60008C019091BC0097FD0CC0CF3F8FEFD8074F
:100C7000C1F30E943724801B910B8C179D0788F3CA
:100C8000D8CF8091B900887F883111F08034F1F697
:100C900080E090E0DF91CF911F910F91FF90EF9056
:100CA00008950F931F93CF93DF93EB018093BB00C5
:100CB00084E88093BC000E9437248C019091BC0092
:100CC00097FD0EC0CF3F8FEFD807C1F30E943724A6
:100CD000801B910B8C179D0788F38EEF9FEF0CC044
:100CE0002091B900287F81E090E0283211F480E063
:100CF00090E0919581959109DF91CF911F910F918E
:100D000008950F931F93CF93DF93EC0184E88093B2
:100D1000BC000E9437248C019091BC0097FD0EC04E
:100D2000CF3F8FEFD807C1F30E943724801B910B70
:100D30008C179D0788F38EEF9FEF03C08091BB0057
:100D400090E0DF91CF911F910F9108950F931F9322
:100D5000CF93DF93EC0184E98093BC000E94372499
:100D60008C019091BC0094FF0EC0CF3F8FEFD8074D
:100D7000C1F30E943724801B910B8C179D0788F3C9
:100D80008EEF9FEF02C080E090E0DF91CF911F9146
:100D90000F91089556985E9825982D9826982E982C
:100DA00027982F988FEF90E0909389008093880088
:100DB00090938B0080938A0090938D0080938C0099
:100DC000259A2D9A2FEF80E792E0215080409040A5
:100DD000E1F700C00000269A2E9A2FEF80E792E0FC
:100DE000215080409040E1F700C00000279A2F9AE0
:100DF0002FEF80E792E0215080409040E1F700C063
:100E0000000025982D982FEF80E792E02150804038
:100E10009040E1F700C0000026982E982FEF80E761
:100E200092E0215080409040E1F700C000002798F8
:100E30002F9856985E9825982D9826982E98279842
:100E40002F98089589EA8093800089E0809381003B
:100E500024982C983F988AB18F7C8AB96E98479ACB
:100E60008BB180638BB9769A0E94CA060C940905EF
:100E700080E290E0909301018093000180914B0209
:100E800081110EC00E94F40581E080934B022FEF88
:100E900083ED90E3215080409040E1F700C00000D6
:100EA00064E670E080E40E94FA059093010180936B
:100EB0000001892B09F050C064E670E080E00E94D8
:100EC00051069093010180930001892B09F044C0E1
:100ED00064E670E080E00E945106909301018093E7
:100EE0000001892BC9F564E670E08FE30E9451068A
:100EF0009093010180930001892B71F584E690E0C5
:100F00000E94A60664E670E080E40E94FA059093D1
:100F1000010180930001892BF9F464E670E08CE014
:100F20000E9451069093010180930001892BA1F446
:100F300064E670E080E00E94510690930101809386
:100F40000001892B49F464E670E08FE30E945106AA
:100F5000909301018093000184E690E00E94A60630
:100F6000809100010895611108C0FC0182818823ED
:100F700021F08CEA91E00E94690880E090E00895F9
:100F80008E3D2CE5920721F08F3D9C4541F010C02D
:100F9000FB018281882369F00E94362307C0FB0190
:100FA0008281882331F081E00E94771180E00895EA
:100FB00081E00895CF92DF92EF92FF926B017C0166
:100FC0000E946E2256985E9825982D9826982E9805
:100FD00027982F9890E0FC013197E730F105A8F4AD
:100FE000E35AFF4F0C94CC33259A2D9A0EC0259AC4
:100FF0002D9A269A2E9A09C0259A2D9A04C0259AD0
:101000002D9A269A2E9A279A2F9AC701B601FF90F9
:10101000EF90DF90CF90089581E008950C94C00781
:10102000CF93282F30E0F901E557FB4FC491F90128
:10103000E55FFA4F2491222359F081EE0E94A21716
:101040008C2F0E94A2178C2F0E94BB1881EE04C027
:101050008C2F0E94A2178C2FCF910C94BB180F934A
:101060001F93CF93DF93EC01062FFE018491882319
:1010700059F19E012F5F3F4F813041F4E901F901A1
:101080001491812F0E94A217812F0DC0823031F45C
:10109000E901F90184910E94A2170AC0833031F45A
:1010A000E901F90184910E94BB1802C00E94100856
:1010B0002196802F8823C9F2EFE9FFE03197F1F7FD
:1010C00000C000008150F6CFDF91CF911F910F91AA
:1010D000089560E00C942F080E94BE22811106C082
:1010E0000E94C922811102C00E9436230C9422075B
:1010F0000C940B05282F2F7041F0822F90E02A309E
:1011000010F44D9608950697089587E290E00895AB
:1011100008950C9488080C94890808950E942E1C48
:101120000E948D082FEF84E39CE021508040904086
:10113000E1F700C000000C949324FF920F931F93DB
:10114000CF93DF938C01FC01C081D1818091960205
:10115000811113C08281882349F0CE010E94612150
:10116000F82E682FCE010E94042104C0CE010E94F7
:101170003421F82EBE018F2D04C0CE010E946121C2
:10118000BE010E94500BEC01B8010E940E0888239A
:1011900009F47EC2B801CE010E94B90D882309F47A
:1011A00077C2CB3CFCE5DF0741F4F801828188235C
:1011B00009F46EC20E946E0F6BC2CC3C8CE5D8075E
:1011C00008F013C1C33C9CE5D90761F4F8018281A2
:1011D000882309F45DC20E9432228272F1F00E94DB
:1011E000841156C2C43CECE5DE07D0F0F8018281E0
:1011F000C73CFCE5DF0709F4CDC008F0DDC0C53C05
:10120000ECE5DE0709F4CCC008F0D0C0882309F46F
:101210003FC20E943222827211F30E947A1138C2B8
:10122000C531FCE5DF0708F07EC0C2308CE5D80789
:1012300008F452C0F8018281882309F459C00E9441
:10124000BE22811102C00E9436230E94DB2290E060
:101250009093AF038093AE03FE01E350FC45E2316F
:10126000F10530F4EC59FF4F8091AE030C94CC3370
:101270008091AE03816027C0826025C0846023C056
:10128000806121C080621FC080641DC080681BC057
:101290008460886018C08E7F16C08D7F14C08B7FDD
:1012A00012C08F7E10C08F7D0EC08F7B0CC08F77D9
:1012B0000AC08B7F877F07C087FB222720F991E038
:1012C000922790FB87F98093AE038091AE030E9432
:1012D000DF220E942E1CDCC1C1159CE5D90781F0DC
:1012E000C130DC45A9F081E0809351028093520225
:1012F000C801DF91CF911F910F91FF900C940C08C2
:10130000F8018281882309F4C3C10E948E08C0C1FC
:10131000F8018281882309F4BBC180913503816083
:1013200080933503B5C1C631FCE5DF0739F50E946E
:101330003222282FF801828140910F015091100133
:10134000882379F02A7A91E009F490E090934C0296
:10135000911102C069E201C065E3CA010E949423B1
:101360000AC080914C02811102C069E201C065E3AC
:10137000CA010E949F230E94FF218AC1C23CDC4512
:1013800009F0B1CFF8018281882309F481C10E945C
:1013900013127EC1882309F47BC10E94D41078C146
:1013A000882309F475C10E949D1072C1882309F435
:1013B0006FC10E94B5106CC1C93C9CE5D90731F4DE
:1013C000882309F465C10E94F81062C1CA3CDC455B
:1013D00030F4882309F45CC10E94E61059C18823C7
:1013E00009F456C10E94131153C1C33DFCE5DF0748
:1013F00049F4F8018281882309F44AC188E10E94F6
:10140000771146C1C43D8CE5D80708F087C0F801C4
:101410008281CF3CFCE5DF07A1F4882309F438C1C1
:101420000E94600F663071058105910540F00E94B1
:10143000600F683071058105910508F4EECE86E0F5
:10144000DECFC03D9CE5D90730F5CD3CECE5DE07AD
:1014500029F4882309F41CC181E0D1CFCE3CDC45BE
:1014600030F4882309F414C10E94830F11C188232A
:1014700009F40EC10E94600F62307105810591056B
:1014800040F00E94600F653071058105910508F4F8
:10149000C4CE82E0B4CFC13D9CE5D907A1F4882336
:1014A00009F4F6C00E94600F6F3071058105910547
:1014B00040F00E94600F643171058105910508F4C8
:1014C000ACCE8FE09CCFC23DDC45A0F4882309F46C
:1014D000DFC00E94600F693071058105910540F001
:1014E0000E94600F6E3071058105910508F495CE5C
:1014F00089E085CF882309F4CBC00E94600F653155
:1015000071058105910540F00E94600F67317105FA
:101510008105910508F481CE85E171CFC73DFCE5D9
:10152000DF0781F5F8018281882361F01092520271
:101530000E9437249093500280934F0280E20E94D1
:101540002319A6C00E94322281FF05C081E080934A
:101550005102809352028091520281110FC08091FA
:101560004F02909150020E944324883C910530F430
:1015700087E20E94A21787E20E94BB1880E20E94C5
:101580002A1986C0C83D8CE5D80708F04CC0F80180
:101590008281C53DFCE5DF0729F4882309F478C082
:1015A00083E22DCFC63DDC45A0F4882309F470C04A
:1015B0000E94600F693171058105910540F00E941C
:1015C000600F623271058105910508F426CE89E12C
:1015D00016CF882351F0109251020E943724909325
:1015E0004E0280934D0282E0AACF0E94322285FFF4
:1015F00005C081E080935102809352028091510294
:1016000081110FC080914D0290914E020E9443249F
:10161000883C910530F486E20E94A21786E20E947F
:10162000BB1882E0ACCFCB3DECE5DE0731F4F8012E
:101630008281882369F180E009C0CC3DFCE5DF07A9
:1016400041F4F8018281882319F182E00E94922BF3
:101650001FC0C83DDC4509F046CEF80182818111EA
:1016600065CF80915202811189CF80914F02909174
:1016700050020E944324883C910508F07FCF80E20D
:101680000E942A1988E20E94A21788E20E94BB18D1
:1016900080E0DF91CF911F910F91FF900895089501
:1016A00096E0799FF001112494E5899FE00DF11DEA
:1016B0001124E60FF11DEE0FFF1FE551FE4F85913E
:1016C00094910895880F991FFC01E951FE4F85916F
:1016D00094910895CF93DF930E94500B0E94190DAF
:1016E000EC01811520E59207F0F5811530E49307B0
:1016F00008F021C1883E910500F5803E910508F073
:1017000094C1883A910570F4853A910508F0A3C018
:101710008130910509F489C108F440C1049708F0AB
:1017200084C13CC18D3B910508F4A0C0803C91056B
:1017300008F434C1805C9109F0C08115904258F4DE
:10174000C11581E0D80708F070C1C03FD10508F489
:1017500025C1D0656AC1C11590E3D90708F0E1C081
:10176000CE019F70DAC0811525E5920708F043C0CD
:10177000811534E5930708F0F5C0811542E594071B
:1017800008F5C11581E5D80708F0D8C02C2F2370C3
:1017900081E090E002C0880F991F2A95E2F79C68CB
:1017A0009E0174E0369527957A95E1F72370922B88
:1017B000CF70C695C69540E2C49FE0011124C82BA6
:1017C000D92B33C1869586959E0123703327C11589
:1017D000D34508F0B8C040E2849FC0011124C1E0A5
:1017E000D0E002C0CC0FDD1F2A95E2F78C2B9D2B99
:1017F000EC01DC681AC181152AE5920798F481157D
:1018000039E5930708F0B9C08115964508F4AFC0D3
:10181000C11588E5D80708F4C1C0DC2FCC27C06FFC
:10182000D06A03C1C1159BE5D90708F4B7C0C1153B
:101830002CE5D20708F4AFC0CE0190568115904236
:1018400008F0ACC08D2F8F710E94960DDD27D062FD
:101850008F71D82BEAC0853A910509F4A2C0863A67
:10186000910509F0A1C0C2E8D0E4DFC0883A910533
:1018700009F49DC0893A910509F49CC08A3A910502
:1018800009F49BC08B3A910509F49AC08C3A9105F2
:1018900009F499C08B3B910509F498C08C3B9105E4
:1018A00009F497C08D3A910509F496C0803B9105E3
:1018B00009F495C08E3A910509F494C08F3A9105C8
:1018C00009F493C0813B910509F492C0823B9105D4
:1018D00009F491C0833B910509F490C0843B9105C4
:1018E00009F48FC0853B910509F48EC0863B9105B4
:1018F00009F48DC0873B910509F48CC0883B9105A4
:1019000009F48BC0893B910509F48AC08A3B910593
:1019100009F489C0C0E0D4E488C00E94620BEC01E5
:1019200084C0CE019927D3FF03C0EC01D86C7DC0E1
:10193000EC01D06C7AC0DF70D06A77C0DC2FCC2786
:10194000C16FD06A72C040E2849FC0011124C1E01F
:10195000D0E002C0CC0FDD1F2A95E2F7C82BD92BAF
:10196000DA6863C0D82FCC27C46FD06A5EC0CF714D
:10197000DD27DC2FCC27D06258C08F70806E90E0BE
:10198000906A24E0D695C7952A95E1F7CF709C011F
:101990003C2BE9014AC0DD27D06647C0C0E0D0E05B
:1019A00044C0C1E8D0E441C0C3E8D0E43EC0C2EEC8
:1019B000D4E43BC0C9EED4E438C0CAEED4E435C0A8
:1019C000C5EBD4E432C0C6EBD4E42FC0C3EBD4E4FF
:1019D0002CC0C4EBD4E429C0C7EBD4E426C0CCECC3
:1019E000D4E423C0CDECD4E420C0C3E8D5E41DC0CA
:1019F000CAE8D5E41AC0C2E9D5E417C0C4E9D5E401
:101A000014C0C1E2D6E411C0C3E2D6E40EC0C4E201
:101A1000D6E40BC0C5E2D6E408C0C6E2D6E405C0F1
:101A2000C7E2D6E402C0CAE2D6E4CE01DF91CF918C
:101A300008958238910549F1B0F48133910509F494
:101A400058C048F48932910509F44EC08A32910594
:101A500009F454C008958533910509F440C08933D1
:101A6000910599F00895833E910529F138F4803E5F
:101A7000910591F0823E9105A1F00895863E910571
:101A8000F9F0873E910531F108952091AE0320FDD4
:101A90003AC021FD38C008958091AE0380FD35C065
:101AA00032C08091AE0382FF32C08091AE0384FDCC
:101AB00030C083EE39C08091AE0382FD28C0F5CFDF
:101AC0008091AE0383FF27C08091AE0384FD21C0C7
:101AD00087EE2AC08091AE0383FD1DC0F5CF8091B3
:101AE000AE0385FD1AC01BC08091AE0385FD17C0F3
:101AF00014C08091AE0386FD14C015C08091AE0362
:101B000086FD11C00EC080EE0FC089E30DC082EECD
:101B10000BC080E009C086EE07C089E205C085E3FE
:101B200003C08AE201C081E390E008959091AE0382
:101B300092FF0DC0282F2871283019F4877F846008
:101B400006C0282F2471243011F48B7F886093FF06
:101B50000DC0282F2871283119F4877E846106C0B2
:101B6000282F2471243111F48B7E886194FD877EA7
:101B70000895CF93DF93813020E89207D0F0FB01E6
:101B800022812223B1F0EC0180915302811109C01E
:101B90008CE090E00E94DF330E94DD0D81E08093B5
:101BA00053020E94E40DCE019F770E94AC0E0E946A
:101BB000600E81E0DF91CF91089580935402682FE9
:101BC0008CE090E00C94F333E0910F01F091100160
:101BD00080818093660381FF03C081EE0E94BB1861
:101BE0008091660385FF03C085EE0E94BB1880913B
:101BF000660380FF03C080EE0E94BB1880916603DD
:101C000084FF03C084EE0E94BB188091660382FFAC
:101C100003C082EE0E94BB188091660386FF03C05A
:101C200086EE0E94BB188091660383FF03C083EE9B
:101C30000E94BB188091660387FF03C087EE0E9455
:101C4000BB1880915402823001F1A8F48823C9F0B6
:101C5000813079F580EE0E94A21781EE0E94A217D2
:101C600088E10E94A21788E10E94BB1881EE0E94C1
:101C7000BB1880EE1CC0843081F08530D1F486EE34
:101C800001C082EE0E94A21714C082EE0E94A21729
:101C900087E50E94A21787E50AC086EE0E94A21778
:101CA00086EE0E94BB1888E10E94A21788E10E947C
:101CB000BB188FE39CE90197F1F700C0000008957D
:101CC00080915402813049F030F0823021F085302B
:101CD00051F486EE06C082EE04C08CE20E94A21788
:101CE0008CE20E94BB188091660381FF03C081EEE5
:101CF0000E94A2178091660385FF03C085EE0E94B3
:101D0000A2178091660380FF03C080EE0E94A21795
:101D10008091660384FF03C084EE0E94A217809125
:101D2000660382FF03C082EE0E94A21780916603C1
:101D300086FF03C086EE0E94A2178091660383FF90
:101D400003C083EE0E94A2178091660387FF03C041
:101D500087EE0C94A2170895EF92FF921F93CF93F2
:101D6000DF937C01CCE0D0E097010C2E02C03695C9
:101D700027950A94E2F7122F1F70812F0E947A088C
:101D80000E94A217812F0E947A080E94BB182497F4
:101D9000CC3F8FEFD80741F7DF91CF911F91FF9094
:101DA000EF900895EF92FF920F931F93CF93DF93DD
:101DB000E901662309F44BC0242F30E0EFEFF0E097
:101DC000E61BF109B901E69F9001E79F300DF69FF0
:101DD000300D1124232F8B01031B11095CE3E52E29
:101DE000F12CB7010E94A433FB01BC01069FC00186
:101DF000079F900D169F900D1124B7010E94A433E8
:101E0000E230F105B1F040F4309779F0319711F5F7
:101E1000832F242F461B21C0E430F105A1F068F088
:101E20003597C1F4842F861B18C0832F262F230FCC
:101E300014C0862F830FE42F03C0E42FE61B842FEA
:101E4000432F2E2F0AC0842F462F430F06C0842F06
:101E5000242F03C080E020E040E0E42FF0E0E955CB
:101E6000FA4F4491E22FF0E0E955FA4F9491E82FB0
:101E7000F0E0E955FA4FE49149839883EA83DF91D2
:101E8000CF911F910F91FF90EF90089588E090E01F
:101E90000C94E733AB01BC0188E090E00C9405346E
:101EA000E7E6F3E083E08083109268038FEF82839C
:101EB0008383148260817181828193810C944A0FA3
:101EC0006091670360FF06C066956F7370E080E005
:101ED00090E0089560E070E0CB01089580916B037D
:101EE00090E001968430910514F083E090E08093B7
:101EF0006B0360916703709168038091690390910F
:101F00006A030C944A0F80916B0390E0019797FF4E
:101F100002C080E090E08430910514F083E090E00E
:101F200080936B03609167037091680380916903EC
:101F300090916A030C944A0F8091670380FF06C05A
:101F40006FE070E08CE693E00C94C71580E090E0C1
:101F5000FC01E459FC4F11821082128204968C33EA
:101F60009105B1F7EDCF9091670390FF0FC020E08E
:101F700030E0F901E459FC4F8183608342832C5F98
:101F80003F4F2C333105A9F70C949C0F0895CF9344
:101F9000DF9300D000D0CDB7DEB72091670320FFDC
:101FA0000AC09E012F5F3F4F0E94D20E4B81698174
:101FB0008A810E94B30F0F900F900F900F90DF91C6
:101FC000CF9108955F926F927F928F929F92AF927E
:101FD000BF92CF92DF92EF92FF920F931F93CF9316
:101FE000DF9300D000D0CDB7DEB78C01E62EF42E03
:101FF000522E8091670380FF89C0982F9E77923080
:1020000061F49E012F5F3F4FC8010E94D20E4B81A9
:1020100069818A810E94B30F59C0E82FE695EF735A
:102020009EE39E0F9F73943018F4F0906A034EC0A5
:102030009AE39E0F9F73993068F4881F8827881F42
:1020400090916803292F220F022F082B97FB11274D
:1020500010F93CC087E28E0F8F738A30B8F5F0E03C
:102060007997E0FD02C021E001C02FEFEE7FE3563B
:10207000FA4F859194916FE070E00E94A43326039B
:102080004001279F900C1124580188E9A81A8EEF6F
:10209000B80A8CE6C82E83E0D82E98E6692E7724FD
:1020A0007394C501B3010E94A43396014F2D6E2D88
:1020B0000E94D20EA80CB91C84E0C80ED11C88EA7C
:1020C000C81683E0D80669F70E949C0F80916703C9
:1020D00000FB87F980936703902F969580916803A2
:1020E0008078892B10FB87F980936803E09269035D
:1020F000F0926A03552051F0609167037091680374
:102100008091690390916A030E944A0F0F900F908B
:102110000F900F90DF91CF911F910F91FF90EF9053
:10212000DF90CF90BF90AF909F908F907F906F90F7
:102130005F90089521E00C94E20FE7E6F3E0208140
:10214000221F2227221F30916803432F440F842F20
:10215000822B37FB992790F90C9668E671E00E9474
:10216000B833438162810C949A1020916703221F37
:102170002227221F30916803432F440F842F822B84
:1021800037FB992790F98C3091051CF4845A9E4FA7
:1021900001C00C9768E671E00E94B83340916A0371
:1021A000609169030C949A10E7E6F3E08081881F40
:1021B0008827881F90916803292F220F97FB992762
:1021C00090F943816FEF822B0C949A10E7E6F3E0CD
:1021D0008081881F8827881F90916803292F220FEC
:1021E00097FB992790F9438160E0822B0C949A1019
:1021F00040916A03842F90E0843F910514F4445F7A
:1022000001C04FEF80916703881F8827881F909136
:102210006803292F220F97FB992790F96091690392
:10222000822B0C949A1040916A03842F90E00C97B3
:1022300014F04C5001C040E080916703881F88274C
:10224000881F90916803292F220F97FB992790F9F7
:1022500060916903822B0C949A1020E00C94E20F99
:10226000CF939091670390FF40C09178811102C095
:10227000926007C0853210F0986403C08F73880F96
:10228000982B90936703662351F0609167037091D8
:1022900068038091690390916A030E944A0FC0917C
:1022A00067036C2F66956F7370E04BE050E084E03D
:1022B00091E00E94D233892B19F01092720203C070
:1022C00081E080937202CC1FCC27CC1F90916803D1
:1022D000892F880F97FB992790F940916A036091A5
:1022E00069038C2BCF910C942D11CF91089561E04F
:1022F0000C9430118091670386958F738F5F8532C0
:1023000008F081E00C9477118091670386958F73B4
:10231000815009F484E20C947711E7E6F3E08081C0
:102320008160808386958F730C94771160E00C94A4
:102330003011809135038160809335030E94BE2265
:10234000811104C00E9436230E94500F0E94460F44
:1023500060936703709368038093690390936A03A3
:102360006E7761F40E94500F0E94460F60936703DE
:10237000709368038093690390936A0381E080936C
:1023800072028091670380FF04C086958F730C945E
:10239000961108959091670390FF0DC02F3058F467
:1023A00094E0299FF0011124E459FC4F818360835C
:1023B00042830C949C0F08951F93CF93DF9300D01A
:1023C00000D0CDB7DEB73091670330FF0CC0122FBD
:1023D0009E012F5F3F4F0E94D20E212F4B816981BA
:1023E0008A810E94CA110F900F900F900F90DF9179
:1023F000CF911F910895E7E6F3E080818E7F80837F
:1024000060817181828193810E944A0F10927202D1
:102410002FEF80E792E0215080409040E1F700C02C
:1024200000000C949C0F8091670380FD0C94FB11BD
:102430000C948D11CF93C82F8091700290917102EE
:102440000E944324EC2FF0E0E756FA4FE491F0E0CD
:102450008E179F0708F443C00E943724909371029F
:102460008093700260916F0270E080E090E00E94C3
:10247000A53120E030E04FE753E40E94C8302BED57
:102480003FE049E450E40E94CE320E943B330E9478
:1024900042312BE43AE34EE25FE30E945B3020EFEF
:1024A0003BEF48ED52E40E94CE320E947431462F39
:1024B00080916703881F8827881F90916803292FC0
:1024C000220F97FB992790F960916903822B0E9454
:1024D000C70F80916F0290E0019680936F02CF91B9
:1024E0000895CF93C82F80916D0290916E020E9443
:1024F0004324EC2FF0E0EA56FA4FE491F0E08E1717
:102500009F07E8F00E94372490936E0280936D023B
:1025100040916A036091690380916B0290916C0213
:102520000E94C70F80916B0290916C02019668E641
:1025300071E00E94A43390936C0280936B02CF9160
:102540000895CF92DF92FF920F931F93CF93DF9363
:10255000F82E8091690290916A020E944324EF2D27
:10256000E695F0E0ED56FA4FE491F0E08E179F0704
:10257000E8F10E94372490936A02809369020CE686
:1025800013E0C0E0D0E088E6C82EDD24D39480912B
:102590006702909168028C0F9D1FB6010E94A433C0
:1025A000980140916A03609169030E94D20E689677
:1025B0000C5F1F4FC83681E0D80749F70E949C0F77
:1025C0002091670230916802F0FE0AC0C9010196AD
:1025D000BE010E94A433909368028093670206C0F4
:1025E000215031093093680220936702DF91CF9127
:1025F0001F910F91FF90DF90CF900895AF92BF92FF
:10260000CF92DF92EF92FF920F931F93CF93DF93BE
:10261000C82F80FF02C01FEF01C011E0809165024A
:10262000909166020E944324C695EC2FF0E0E0579B
:10263000FA4FE491F0E08E179F0708F466C00E94FD
:10264000372490936602809365022CE6C22E23E025
:10265000D22E3EE6E32E33E0F32EC0E0D0E0F701C9
:1026600031971082F6011082F701108294E0A92EB2
:10267000B12C00E080916402800F87FD815F082EFD
:10268000000C990BC817D907E9F480916A038A9D59
:10269000A0018B9D500D1124559547955595479553
:1026A00080916703881F8827881F90916803592F9E
:1026B000550F97FB992790F9960160916903852B37
:1026C0000E94D20E010FF1E0AF1AB10899F62196DF
:1026D00084E0C80ED11CE4E0EE0EF11CCF30D10531
:1026E00009F0BDCF0E949C0F80916402113031F43B
:1026F000811102C08EE007C0815005C090E00196B4
:10270000BE010E94B83380936402DF91CF911F9184
:102710000F91FF90EF90DF90CF90BF90AF90089512
:102720000F931F93CF93DF93C82F809162029091F4
:1027300063020E944324EC2FF0E0E357FA4FE49148
:10274000F0E08E179F0708F464C00E94372490932E
:1027500063028093620280E090E0FC01E459FC4F48
:1027600011821082128204968C339105B1F7C0E079
:10277000D0E00FE010E0CE01B8010E94B833FC01B8
:1027800080916102082E000C990BEE0FFF1FEE0FD7
:10279000FF1FC817D907FCF080910301082E000C19
:1027A000990B8C179D07BCF09F0124593C4F8091D9
:1027B0006703881F8827881F90916803592F550F3A
:1027C00097FB992790F940916A0360916903852BE3
:1027D0000E94D20E05C0E459FC4F11821082128271
:1027E0002196CF30D10539F60E949C0F80910201CD
:1027F00090916102980F9093610220910301280F3C
:1028000020930301121614F49E301CF081958093DE
:102810000201DF91CF911F910F910895EF92FF92E6
:102820000F931F93CF93DF9380915F02909160028B
:102830000E944324883E9340D0F10E943724909315
:10284000600280935F02C0915D02D0915E0221968A
:10285000C170DD27D0935E02C0935D028CE6E82E46
:1028600083E0F82E10E008E7812F8695FE01E80F3F
:10287000F11DCF0181709927970140916A03609102
:102880006903FC010E9FC0010F9F900D11240E944F
:10289000D20E1F5FF4E0EF0EF11C1F3029F7DF911D
:1028A000CF911F910F91FF90EF900C949C0FDF91AF
:1028B000CF911F910F91FF90EF900895CF93DF93E9
:1028C00000D000D0CDB7DEB780915B0290915C0262
:1028D0000E944324EBE8F5E0259134918217930799
:1028E000C0F180915A0281110CC09E012F5F3F4FB1
:1028F0004FEF6FEF80E090E00E94D20E8A818093CC
:102900005A020E94372490935C0280935B0280916C
:102910005902813051F028F0823061F440915A021E
:102920000AC080915A0240E007C060915A0240E01C
:1029300080E003C040E080E060E00E94B30F80913F
:10294000590290E0019663E070E00E94B8338093F2
:1029500059020F900F900F900F90DF91CF91089533
:10296000CF93DF9380915702909158020E944324A5
:10297000843F914008F444C00E9437249093580249
:1029800080935702C0E0D0E020915502309156026A
:102990008091670390916803C730D1051CF4232B05
:1029A00079F002C0232B61F4881F8827881F392FF4
:1029B000330F97FB992790F92C2F40916A030AC097
:1029C000881F8827881F392F330F97FB992790F985
:1029D0002C2F40E060916903832B0E94DC1121962B
:1029E000CF30D10589F60E949C0F809155029091BD
:1029F0005602019681709927909356028093550252
:102A0000DF91CF910895809172028823D9F190913E
:102A10006703892F86958F732EE3280F2F73243039
:102A200018F482500C941A122AE3280F2F732330C3
:102A300018F486500C94711227E3280F2F73263058
:102A400018F489500C94A11221E3280F2F7326301B
:102A500018F48F500C94FE122BE2280F2F732330A2
:102A600018F485510C949013892F8E77803311F4CC
:102A70000C940E14863411F40C945E14883411F402
:102A80000C94B0140895882319F05198599A02C0F3
:102A9000519A59985098589A95E09A95F1F70000F4
:102AA000509A589895E09A95F1F70000882311F014
:102AB000519A599885E08A95F1F7000008958BB1F5
:102AC0008C7F8BB95098589A5198599A85E08A957D
:102AD000F1F7000008958AB18C7F8AB985E08A9564
:102AE000F1F70000519A599885E08A95F1F70000B6
:102AF000509A589885E08A95F1F70000089550980B
:102B0000589A85E08A95F1F700005198599A85E026
:102B10008A95F1F700000895CF93DF93D82FC8E08E
:102B20008D2F80780E944315DD0FC150C9F780E0DA
:102B30000E94431585E08A95F1F7000085E08A95AB
:102B4000F1F7000080E0DF91CF9108952BB1342F91
:102B5000309523233BB1432B3FB7F894FC01680F1A
:102B6000791FE617F70789F0819198E04BB90000CB
:102B700000C087FF2BB9880F000000C000C000C054
:102B80002BB900C09A9591F7ECCF3FBF0895AF9253
:102B9000BF92CF92DF92EF92FF920F931F93CF934A
:102BA000DF938C01EB01CFB6D090BC00F8948091FC
:102BB000BC008B7F8093BC000E945F150E946B1548
:102BC00084E80E948C15CC0FDD1FCC0FDD1F78012F
:102BD0005801AC0EBD1EEA14FB0431F0F7018191DF
:102BE0007F010E948C15F7CF0E947F15CFBED09237
:102BF000BC00579A40E8BE01C801DF91CF911F91F8
:102C00000F91FF90EF90DF90CF90BF90AF900C941A
:102C1000A61590937802809377020895E091770249
:102C2000F0917802309721F00190F081E02D099425
:102C300080E00895E0917702F0917802309721F0DA
:102C40000280F381E02D09940895E0917702F091DC
:102C50007802309721F00480F581E02D09940895E1
:102C600020917502309176028217930771F090934C
:102C7000760280937502E0917702F09178023097A6
:102C800021F00680F781E02D0994089520917302C8
:102C9000309174028217930771F0909374028093BD
:102CA0007302E0917702F0917802309721F000846E
:102CB000F185E02D0994089508950C945C1681E047
:102CC00008950E942E2485B7806885BF85B78068E7
:102CD00085BF0E940D050E94C5240C949911CF92C6
:102CE000DF92EF92FF920F931F93CF93DF93CDB7B5
:102CF000DEB72B970FB6F894DEBF0FBECDBF0E9494
:102D00007F050E945F16811111C08FEF89838A832E
:102D10001B820E9437248160782F9D838C83498198
:102D20005A816B818D810E94531756C08AE7C82E45
:102D300082E0D82E00E010E0E02E802F0E94ED050A
:102D4000F60141916F01F42EF82631F40F5F1F4F09
:102D50000E30110589F7D9CF9091350391FF04C04A
:102D60008B870E94F3058B8520E030E04F2D50E0EB
:102D7000922FBA01022E02C0759567950A94E2F768
:102D800060FF24C02E83EF8221E030E0690102C0A1
:102D9000CC0CDD1C9A95E2F790E08C219D21892BCB
:102DA00009F420E028870E9437248160782F9A87D1
:102DB00089874E815F8168858A850E945317F80153
:102DC000E658FD4F8081C826C08206C02F5F3F4F66
:102DD0002630310569F6BACF0E9458261091790243
:102DE0000E940E161817A1F00E940E168093790209
:102DF0002B960FB6F894DEBF0FBECDBFDF91CF91FB
:102E00001F910F91FF90EF90DF90CF900C948B0863
:102E10002B960FB6F894DEBF0FBECDBFDF91CF91DA
:102E20001F910F91FF90EF90DF90CF900895DC01FC
:102E300011962C9111978C91682F70E041E050E031
:102E400001C0440F8A95EAF712968C91129730E0F0
:102E5000882329F0809198028823E9F006C0F901BF
:102E6000E857FD4F90819423B1F086E0829FF001F6
:102E7000839FF00D1124E60FF71FEE0FFF1FEF5D8C
:102E8000FE4F808191818D939C93F901E857FD4F0E
:102E90008081482B06C0F901E857FD4F409580819D
:102EA000482340830895CF93DF93CDB7DEB72B97A8
:102EB0000FB6F894DEBF0FBECDBF942F4F83252FE2
:102EC000588769877A878B874A855B85452B21F0F0
:102ED0002F3F09F59F3FF9F4DE01119686E0FD01D1
:102EE00011928A95E9F785E0FE01379601900D92DF
:102EF0008A95E1F749815A816B817C818D819E8120
:102F00000E94D51E2B960FB6F894DEBF0FBECDBF24
:102F1000DF91CF910895CE0107960E941717DCCF5D
:102F2000FC01808191810E94A02192959F70963032
:102F300041F48091980291E08927809398029093C0
:102F400097020895CF93DF931F92CDB7DEB7882302
:102F500009F40DC1682F8238C1F40E940E1681FD5C
:102F600006C169E380910F01909110010E949423A2
:102F70000E94FF212FEF81EE94E02150804090408D
:102F8000E1F700C0000069E319C0833811F50E9421
:102F90000E1680FDECC063E580910F019091100149
:102FA0000E9494230E94FF212FEF81EE94E0215094
:102FB00080409040E1F700C0000063E580910F0180
:102FC000909110010E949F230F90DF91CF910C945C
:102FD000FF218438C1F40E940E1682FDC8C067E448
:102FE00080910F01909110010E9494230E94FF2173
:102FF0002FEF81EE94E0215080409040E1F700C037
:10300000000067E4DBCF8CEF860F813A70F4862FE7
:1030100069830E948E2869818111A9C080910F0166
:10302000909110010E949423CFCF80E2860F8830C8
:1030300048F4677081E001C0880F6A95EAF70E9442
:103040003522C2CF8BE5860F833088F4653A29F0AC
:10305000663A31F083E890E005C081E890E002C074
:1030600082E890E00F90DF91CF910C94301688E5C4
:10307000860F853108F071C0683A61F1693A69F1EB
:103080006A3A71F16B3A79F16C3A81F16B3B89F1F3
:103090006C3B91F16D3A99F1603BA1F16E3AA9F167
:1030A0006F3AB1F1613BB9F1623BC1F1633BC9F1E8
:1030B000643BD1F1653BD9F1663BE1F1673BE9F156
:1030C000683BF1F1693BF9F16A3B09F43FC080E0EC
:1030D00090E03EC082EE90E03BC089EE90E038C0C8
:1030E0008AEE90E035C085EB90E032C086EB90E050
:1030F0002FC083EB90E02CC084EB90E029C087EBDD
:1031000090E026C08CEC90E023C08DEC90E020C0D5
:1031100083E891E01DC08AE891E01AC082E991E05D
:1031200017C084E991E014C081E292E011C083E20B
:1031300092E00EC084E292E00BC085E292E008C00B
:1031400086E292E005C087E292E002C08AE292E065
:103150000F90DF91CF910C944616603F40F0862F80
:103160000E9460250F90DF91CF910C944D260F9017
:10317000DF91CF910895882309F464C0823879F4EF
:103180000E940E1681FF5EC069E380910F0190914D
:1031900010010E9494230E94FF2169E310C083382C
:1031A000B1F40E940E1680FF4DC063E580910F01BF
:1031B000909110010E9494230E94FF2163E5809169
:1031C0000F01909110010E949F230C94FF218438DD
:1031D00079F40E940E1682FF35C067E480910F01DA
:1031E000909110010E9494230E94FF2167E4E7CF91
:1031F0009CEF980F913A10F4682FE1CF90E2980F6E
:10320000983050F4877091E001C0990F8A95EAF7E1
:10321000892F0E943B22D9CF9BE5980F933020F451
:1032200080E090E00C94301698E5980F953120F4EA
:1032300080E090E00C944616803F20F00E94C82564
:103240000C944D260895882321F00E9435220C9479
:10325000FF210895882321F00E943B220C94FF2136
:1032600008958F929F92AF92BF92DF92EF92FF925A
:103270000F931F93CF93DF937C01D62FC72FFC01B1
:10328000058102950F70128111110E9452220E9435
:10329000F821882379F0112369F080E28D0F8830BE
:1032A00048F082E00E94E1210E94F82191E0D82EAE
:1032B000D92601C0D12CAC2EA2948FE0A822B12C2B
:1032C000F501EA58FF4F0C94CC338C2F807FCF70E0
:1032D000882311F0C295C07F112399F0CC2309F403
:1032E000C8C180E28D0F883010F0D11104C08C2F3E
:1032F0000E94352203C08C2F0E9445220E94FF218C
:10330000B8C18D2F0E94BB18CC2309F42EC280E2D5
:103310008D0F883010F0D11104C08C2F0E943B22F9
:1033200003C08C2F0E944B220E94FF211EC28C2FB3
:10333000807FCF70803211F0C295C07FDD2319F0FD
:10334000D130C9F021C0112371F0002341F00130C8
:1033500031F40E946B228C2B0E94652206C20E94CF
:103360006B228C2B3FC1002319F0013009F4FDC101
:103370000E94682211C0112321F0023008F0F5C12B
:1033800007C00111F2C108C0112321F0011171C160
:103390008C2F28C101117EC18C2F2AC18C2F8695BC
:1033A0008695837090E0009719F0019761F0DDC178
:1033B000112321F08D2F9C2F937002C080E090E0AC
:1033C0000E943016E2C1112321F08D2F9C2F9370A3
:1033D00002C080E090E00E944616D7C11123F9F0A8
:1033E000D53F51F0D63F71F0D43FA9F48091A803A6
:1033F0009091A90381600BC08091A8039091A903CB
:10340000826005C08091A8039091A9038460909385
:10341000A9038093A8038D2F0E9460251EC0D53F6D
:1034200051F0D63F71F0D43FA9F48091A803909158
:10343000A9038E7F0BC08091A8039091A9038D7F73
:1034400005C08091A8039091A9038B7F9093A90355
:103450008093A8038D2F0E94C8250E944D2695C1F8
:103460008C2F837009F050C011118BC18D2F829564
:1034700086958770880F880F9D2F9F70892E912CBD
:10348000A12CB12C082E04C0880C991CAA1CBB1CB2
:103490000A94D2F7D4FF14C00FE010E020E030E02F
:1034A000B901A80104C0440F551F661F771F8A95F4
:1034B000D2F7CB01BA01609570958095909503C0C5
:1034C00060E070E0CB01C695C695C370D0E0C23015
:1034D000D10561F0C330D10581F0682979298A29A5
:1034E0009B29219771F00E941A204BC168297929E4
:1034F0008A299B290E942C2044C10E941A20C501C0
:10350000B4010E9408203DC1112319F08C2F817055
:1035100001C08695882309F434C18D2F8295869544
:103520008770880F880F9D2F9F70892E912CA12C5A
:10353000B12C082E04C0880C991CAA1CBB1C0A9430
:10354000D2F7D4FF14C00FE010E020E030E0B90162
:10355000A80104C0440F551F661F771F8A95D2F734
:10356000CB01BA01609570958095909503C060E09D
:1035700070E0CB01C695C695C3704C2F50E0423029
:10358000510569F04330510589F0682979298A2964
:103590009B294130510571F00E94DF20F2C068295B
:1035A00079298A299B290E94F120EBC00E94DF2003
:1035B000C501B4010E94CD20E4C08D2F90E0FC0134
:1035C000E05EF109E531F10508F04FC0EA57FF4F21
:1035D0000C94CC33DF708C2F8F71112331F00E944B
:1035E00066208D2F0E942319C0C00E9487208D2F36
:1035F0000E942A19BAC0112339F00111B6C08C2FCC
:103600008F710E94AC20B1C0023008F0AEC0F7CF7D
:10361000112339F08C2F8F710E946620A6C01123D0
:10362000C9F38C2F8F710E9487209FC0112329F02E
:103630008C2F8F710E94512098C00E944C2095C001
:10364000112349F0CF718C2F0E94662063E08C2FEC
:103650000E94D8218AC081E00E94E121023008F452
:1036600084C082E00E94E12180C0112331F0002358
:1036700089F28D2F0E94A21778C0002391F2D933CE
:1036800049F45FEF67EE73E0515060407040E1F73E
:1036900000C000008D2F0E94BB1867C04C2F4F70D8
:1036A0006D2FC7010E94B3070E94791F6EC0D23FE1
:1036B000B1F028F4D03F49F0D13FF9F028C0D43F11
:1036C000B9F058F0D53F71F022C0112309F447C07A
:1036D0009091980281E0892708C081E01827109313
:1036E00098023DC011113BC081E08093980237C021
:1036F000111135C01092980232C0112329F0809127
:103700009702882329F329C0002311F328C0809150
:1037100097020023C1F0882341F09091980281E044
:10372000892780939802109297028D2F112319F008
:103730000E94A21714C00E94BB1886E0F7011192E4
:103740008A95E9F70CC0882351F0111108C09091B7
:10375000980281E0892780939802109297024C2F5B
:103760004F706D2FC7010E944F0BF8E0AF16B104E8
:1037700041F05CF04AE0A41AB10852E0A516B10489
:1037800020F40E940E160E948B08DD20E1F00E94BA
:10379000D42180FD18C0F70112820E94CE210E9420
:1037A0006620C7010E94EF1B0E94CE21DF91CF91BE
:1037B0001F910F91FF90EF90DF90BF90AF909F907F
:1037C0008F900C948720DF91CF911F910F91FF90E4
:1037D000EF90DF90BF90AF909F908F9008950F93E0
:1037E0001F93CF93DF93EC01888199812B813C81DA
:1037F000232BB9F09F3F11F48F3F99F0CE010E9427
:103800009D08882371F0688179818A810E94AB21AB
:103810008C010E9403210E940520B801CE010E9464
:103820003119DF91CF911F910F9108950E9452227B
:103830000E94622280910F01909110010E94AA23A0
:103840000E94FF210E94F3260E944D2680E090E016
:103850000E94301680E090E00C9446160E944222AE
:103860000C94161C0E94A021E92FE295EF70F0E065
:103870003297EE30F105B0F4E556FF4F0C94CC339F
:10388000803F91F018F4803E68F40EC0843F51F4FC
:103890000BC0803E48F0813F29F406C093FB882787
:1038A00080F9089580E0089581E00895CF93DF9333
:1038B00000D000D01F92CDB7DEB70F900F900F90C1
:1038C0000F900F90DF91CF910895CF93DF9300D0A9
:1038D00000D000D0CDB7DEB726960FB6F894DEBF85
:1038E0000FBECDBFDF91CF9108951F93CF93DF938C
:1038F000C091990216E080919A02C81799F0D0E021
:103900001C9FF0011D9FF00D1124E556FD4F4081D5
:10391000518162817381848195810E94651C219609
:10392000C770E9CFDF91CF911F9108954091CB02ED
:103930005091CC026091CD027091CE028091CF0265
:103940009091D0020C94651C8091D00282958F706A
:1039500009F054C08091CD02882309F44FC08091B2
:103960009902A0919A026091CB027091CC02409191
:10397000CE025091CF02B6E08A1709F43FC090E022
:1039800041155105C1F17F3F11F46F3FA1F1B89F7F
:10399000F001B99FF00D1124E556FD4F21817213FE
:1039A0002AC02081621327C02281211124C02381D3
:1039B00034812417350710F421503109241B350BAD
:1039C000283C3105C0F42091D0022F702061209353
:1039D000D00226E0289FF001299FF00D1124E05627
:1039E000FD4F80818F70806180838BEC92E00E941C
:1039F000EF1B0C94751C01968770BECF0895CF9273
:103A0000DF92EF92FF920F931F93CF93DF93CDB787
:103A1000DEB762970FB6F894DEBF0FBECDBF8C0144
:103A200085E0F801DE011D9601900D928A95E1F77F
:103A3000D8014C9111965C91119712966C91129746
:103A40001396CD90DC9014973091CB027091CC02FC
:103A50008091CE029091CF02009709F46BC17F3F15
:103A600019F43F3F09F466C1E090CD02EE2009F45D
:103A7000C0C02091D002C816D90628F0F601E81B74
:103A8000F90BCF0104C0809590958C0D9D1DFF24EE
:103A9000F394883C910578F0F12C207F09F0C6C0A2
:103AA0007C2DD98AC88A89890E94561C8BEC92E0A9
:103AB0000E94EF1BB1C0822F807F09F046C07513B2
:103AC00014C0341312C0611110C02F7020612093F4
:103AD000D0020E94961C8BEC92E00E94EF1B80911A
:103AE000D002D80115968C932EC0CD2819F15F3FD6
:103AF00011F44F3FF9F0F62E61111CC0809199022C
:103B000020919A0236E0821709F45AC090E0389F5B
:103B1000F001399FF00D1124E556FD4F71815713C7
:103B200006C07081471303C07281711103C00196F2
:103B30008770E9CFF62E662309F427C18091D00261
:103B400081608093D002F12C20C1751308C034131A
:103B500006C0611104C08091D002D801C3C04D8756
:103B60005E878D859E856A8B0E94321C6A898823B8
:103B7000E1F16623D1F12091D002822F82958F70DE
:103B800090E0029774F08091CB029091CC029887DC
:103B90008F831986DB86CA862C87CE0107960E9402
:103BA000EF1B86E0F801ABECB2E001900D928A9534
:103BB000E1F70E94A41C0E94961CFF24F394E5C028
:103BC0004D875E878D859E850E94A021292F229595
:103BD0002F7030E0223031050CF0CBC09F7009F01F
:103BE000C5C0805E883008F4D0C0C8010E94EF1BB9
:103BF000E4CFC816D90608F453C0F601E81BF90B48
:103C0000CF01883C910508F450C0F12C7C2DD98A55
:103C1000C88A89890E94561CEBECF2E086E0DF013D
:103C20001D928A95E9F70E94961CAFC0751314C0C7
:103C3000341312C0611110C08091D002F801858345
:103C4000C8010E94EF1B86E0EBECF2E0DF011D9261
:103C50008A95E9F7FE2C99C04D875E878D859E85F4
:103C60006A8B0E94321C6A89882309F4BECF6623BE
:103C700009F4BBCF2091D002822F82958F7090E003
:103C800002970CF48ECF8091CB029091CC029A8354
:103C900089831B82DD82CC822E83CE0101967FCF69
:103CA000809590958C0D9D1DACCFF62E662309F462
:103CB0009CCF75132EC034132CC02091D00220FD50
:103CC0001FC0822F82958F70D9F0D80115962C9342
:103CD00015978F3049F08F5F982F9295907F822FA4
:103CE0008F70892B15968C93C8010E94EF1B86E07C
:103CF000F801ABECB2E001900D928A95E1F793CF19
:103D000086E0F801ABECB2E001900D928A95E1F704
:103D10003CC04D875E878D859E850E94321C811137
:103D200040CF8091D00281608093D002C8010E9470
:103D3000EF1B2BC0662309F458CF4D875E878D8516
:103D40009E850E94321CF82E882309F44ECF86E00F
:103D5000F801ABECB2E001900D928A95E1F78BECA3
:103D600092E00E9490170E94A41C5DCF811139CF70
:103D70000CC0243031050CF038CF9F7009F431CFDE
:103D8000F8019581907F09F02CCF8F2D62960FB6A8
:103D9000F894DEBF0FBECDBFDF91CF911F910F9181
:103DA000FF90EF90DF90CF9008951F93CF93DF9314
:103DB000CDB7DEB72C970FB6F894DEBF0FBECDBFE0
:103DC0004F83588769877A878B879C87CE010796B0
:103DD0000E94FF1C882369F08F8198852A853B8586
:103DE000232BF1F19F3F09F063C08F3F09F060C0C2
:103DF00037C086E0FE013796DE01119601900D92E4
:103E00008A95E1F76F817885EA85FB85309741F1E6
:103E10007F3F11F46F3F21F120919A0230E0C901F8
:103E20000196877099274091990250E08417950771
:103E300009F447C069837A83FD83EC8396E0929FFF
:103E4000D001939FB00D1124A556BD4FFE013196B0
:103E500001900D929A95E1F780939A020E94751C49
:103E600016E08091990290919A028917C1F1189FEA
:103E7000C001112485569D4F0E94FF1C882379F1B3
:103E8000E09199021E9FF0011124E556FD4F4081FB
:103E9000518162817381848195810E94651C80912A
:103EA000990290E001968770992780939902D9CF63
:103EB0004F81588569857A858B859C850E94651C14
:103EC000CFCF0E942E1C10929A0210929902EBEC16
:103ED000F2E086E0DF011D928A95E9F7C1CF2C96CA
:103EE0000FB6F894DEBF0FBECDBFDF91CF911F910B
:103EF0000895EF92FF920F931F93CF93DF938C015E
:103F0000892B09F46CC0F12CEE24E394E80121968E
:103F1000F8018491843740F4843008F051C0813036
:103F200081F0823019F15BC0853709F444C0A8F1F3
:103F30009CE7980F903708F052C08F770E94BB180B
:103F400041C00E5F1F4FFE01C49180E28C0F88308C
:103F500048F4C7708E2D01C0880FCA95EAF70E94F9
:103F6000552214C08C2F0E94A2172DC00E5F1F4F28
:103F7000FE01C49180E28C0F883058F4C7708E2DFA
:103F800001C0880FCA95EAF70E945B220E94FF21B8
:103F90001AC08C2F0E94BB1816C00E5F1F4FFE0167
:103FA000C491CC2381F08FE99FE00197F1F700C025
:103FB0000000C150F6CF0E5F1F4FFE01F49003C00A
:103FC0000E94A2178E018F2D882309F49FCFEFE95D
:103FD000FFE03197F1F700C000008150F5CFDF918D
:103FE000CF911F910F91FF90EF90089508950C9439
:103FF000F61F0E94F71F60930C0370930D038093CC
:104000000E0390930F030C94161C08950C94F91F43
:104010000F931F9300910C0310910D0320910E0339
:1040200030910F03602B712B822B932B1F910F91DB
:104030000C94F91F0F931F9300910C0310910D0323
:1040400020910E0330910F03602371238223932369
:104050001F910F910C94F91F0F931F9300910C0364
:1040600010910D0320910E0330910F0360277127EB
:10407000822793271F910F910C94F91F0C94DA0754
:104080000E943E20609308037093090380930A0303
:1040900090930B030C94161C60E070E0CB010C9421
:1040A00040200F931F9341E050E060E070E08A01F0
:1040B0009B0104C0000F111F221F331F8A95D2F7E6
:1040C000C901B8011F910F910C9440200F931F93C9
:1040D00041E050E060E070E004C0440F551F661FEF
:1040E000771F8A95D2F78091080390910903A091D8
:1040F0000A03B0910B038A019B01082B192B2A2B71
:104100003B2BC901B8011F910F910C9440200F93D4
:104110001F9341E050E060E070E004C0440F551F81
:10412000661F771F8A95D2F74095509560957095D8
:104130008091080390910903A0910A03B0910B03A9
:104140008A019B01082319232A233B23C901B801B3
:104150001F910F910C9440200F931F9341E050E06A
:1041600060E070E004C0440F551F661F771F8A95FA
:10417000D2F78091080390910903A0910A03B091AE
:104180000B038A019B01082719272A273B27C9010E
:10419000B8011F910F910C9440200F931F93009131
:1041A00008031091090320910A0330910B03602B3F
:1041B000712B822B932B1F910F910C9440200F9306
:1041C0001F93009108031091090320910A03309175
:1041D0000B0360237123822393231F910F910C946F
:1041E00040200F931F930091080310910903209121
:1041F0000A0330910B0360277127822793271F91B1
:104200000F910C9440200895292F220F920F990F9F
:10421000890FA82FA695A695A695877051E001C095
:10422000550F8A95EAF785E0A89FD001112420E078
:1042300030E070E0F901EA0FFB1FEF52FD4F4081C3
:10424000CB01022E02C0969587950A94E2F7817001
:104250009927819584278523842780832F5F3F4F6B
:104260002530310539F70895292F220F920F990F24
:10427000890F682F669566956695982F977085E0EB
:10428000689FB001112440E050E080E0FA01E60FA1
:10429000F71FEF52FD4F208130E0092E02C0369506
:1042A00027950A94E2F721703327042E01C0220FCC
:1042B0000A94EAF7822B4F5F5F4F4530510531F783
:1042C0000895CF92DF92EF92FF920F931F93CF93B7
:1042D000DF938C01C0900C03D0900D03E0900E038F
:1042E000F0900F038091080390910903A0910A03B5
:1042F000B0910B03C82AD92AEA2AFB2ACFE1D0E0E1
:10430000D701C6010C2E04C0B695A7959795879541
:104310000A94D2F780FF06C0B8018C2F0E946A0B66
:10432000019721F4219760F780E001C08C2FDF9185
:10433000CF911F910F91FF90EF90DF90CF90089554
:10434000CF93DF93EC010E946121BE010E946A0BB2
:10435000DF91CF9108951F93CF93DF93EB0190915D
:104360009602992321F0CB010E94A02113C088233B
:1043700049F0CB010E946121182F682FCE010E94C5
:10438000042104C0CB010E943421182FBE01812FCB
:104390000E946A0BDF91CF911F91089580911003C5
:1043A000859585958595089580911003877008956A
:1043B00098E0899F90011124262B209310030C94E0
:1043C0006620209110038095822380931003982FFC
:1043D000977069F430E0482F082E000C550B241715
:1043E000350729F08595859585950C948720089546
:1043F00090911003977081E009F480E00895E091B6
:104400000F01F0911001809134038083E0910F013E
:10441000F0911001908180913303892B8083E0918A
:104420000F01F0911001908180913203892B8083DC
:1044300080911103882381F0E0910F01F091100128
:104440009081892B808380910F01909110010E94AF
:10445000382381111092110380910F019091100166
:104460000C941A1680913403089590913403892B8B
:104470008093340308958095909134038923809329
:104480003403089510923403089590913303892BD7
:10449000809333030895809590913303892380930B
:1044A0003303089510923303089590913203892BBA
:1044B00080933203089580959091320389238093ED
:1044C00032030895109232030895809311030895E2
:1044D000109211030895809111030895CF92DF92F5
:1044E000EF92FF926C01EE24FF24C114D104E10489
:1044F000F10421F0C701B60120E101C020E0C72E80
:10450000D82EE92EFF24C114D104E104F10419F0DE
:10451000285FC701B6016B017C0154E0F694E79473
:10452000D794C7945A95D1F7C114D104E104F1048A
:1045300019F02C5FC701B6016B017C0142E0F694D3
:10454000E794D794C7944A95D1F7C114D104E104F4
:10455000F10419F02E5FC701B601DC01CB01B6955D
:10456000A79597958795892B8A2B8B2B09F02F5F21
:10457000822FFF90EF90DF90CF90089580E090E041
:104580000E94ED3321E08D3E9E4F09F020E0822F06
:10459000089580E090E00E94ED3321E0019609F05B
:1045A00020E0822F089582E090E00C94DF3383E0D6
:1045B00090E00C94DF3384E090E00C94DF33682FBC
:1045C00084E090E00C94F333AB01BC018FE090E009
:1045D0000C940534AB01BC0183E190E00C940534EC
:1045E00060E070E0CB010C94EA2260E070E0CB0167
:1045F0000E94E4220C94F0226DEE7EEF80E090E0C9
:104600000E94113460E082E090E00E94F33360E0A9
:1046100083E090E00E94F33310920C0310920D039C
:1046200010920E0310920F0360E084E090E00E946D
:10463000F33360E085E090E00E94F33360E086E0D1
:1046400090E00E94F3336FEF87E090E00E94F33335
:1046500040E050E0BA0188E090E00E94053460E05C
:104660008DE090E00E94F3330C94F5220C94FC2230
:10467000FC0131969C01205E3F4F80E091919111A9
:104680008F5FE217F307D1F708959C01FC01329682
:104690009FEF80E04191461789F09F3F19F4411147
:1046A00001C0982F8F5F8E31A9F79F3F39F0F90134
:1046B000E90FF11D97FDFA95628308950895FC01B5
:1046C000329680962081261301C010823196E81719
:1046D000F907C1F70895262F2695269526952F319F
:1046E00068F4FC01E20FF11D677021E030E001C0C9
:1046F000220F6A95EAF78181282B21830895262FBE
:104700002695269526952F3170F4FC01E20FF11DB8
:10471000677021E030E001C0220F6A95EAF720952A
:10472000818128232183089520912001222329F0CB
:104730002091AE0327FD0C946B230C94452320910C
:104740002001222329F02091AE0327FD0C947F2322
:104750000C945F23FC01319680961192E817F907BB
:10476000E1F7089508950C94B2230E94B323809139
:10477000B403843049F11092360320E488E190E0DC
:104780000FB6F894A895809360000FBE2093600048
:1047900080E00E948B080E94B32383B7817F8460EE
:1047A00083BF83B7816083BF7894889583B78E7FFA
:1047B00083BF0FB6F894A8958091600088618093BC
:1047C0006000109260000FBE08950895CF930E947C
:1047D0002F050E947F050E94E523C0E08C2F0E94D8
:1047E000ED05811104C0CF5FCE30C1F701C081E07B
:1047F000CF91089508950C94FA230E942E1C0E94D4
:104800000E160E948B080C94FB231F920F920FB67A
:104810000F9211248F939F93AF93BF938091360390
:10482000811113C08091AA039091AB03A091AC03B6
:10483000B091AD034196A11DB11D8093AA03909341
:10484000AB03A093AC03B093AD03BF91AF919F9125
:104850008F910F900FBE0F901F90189582E084BD2E
:1048600093E095BD9AEF97BD80936E0008952FB7A2
:10487000F8948091AA039091AB03A091AC03B091FE
:10488000AD032FBF0895CF92DF92EF92FF920F9367
:104890001F932FB7F8944091AA035091AB036091F6
:1048A000AC037091AD032FBF6A017B01EE24FF249E
:1048B0008C0120E030E0C016D106E206F30610F4C9
:1048C000415051099A01281B390BC9011F910F91C1
:1048D000FF90EF90DF90CF90089578941F920F9201
:1048E0000FB60F9211248F939F93AF93BF93809134
:1048F000AA039091AB03A091AC03B091AD030196D4
:10490000A11DB11D8093AA039093AB03A093AC03A8
:10491000B093AD03BF91AF919F918F910F900FBE58
:104920000F901F901895F89481E08093E00080E24A
:104930008093D800E9ECF0E010828FE19EE40197CB
:10494000F1F700C000001DBA109268001CBC10BE38
:104950001FBA10927A0010926E0010926F0010929F
:104960007100109272001082ECEBF0E0108214B82B
:1049700017B81AB81DB810BA108215B818B81BB8F5
:104980001EB811BA0C94003F08950E94BE228111F6
:1049900002C00E9436230E94D322809335030E94D6
:1049A000DB2290E09093AF038093AE030E94D72266
:1049B000682F70E080E090E00C94062080913A032C
:1049C00080FF0BC06091140185E0689FB001112445
:1049D00075956795759567952BC081FF09C06091A6
:1049E000140185E0689FB00111247595679520C07A
:1049F00082FF07C06091140185E0689FB001112417
:104A000017C090913B039923D1F060911301961741
:104A100088F72091140185E0289F90011124929F2E
:104A2000A001939F500D112470E0CA010E94B83379
:104A30006038710540F46115710539F002C065E018
:104A400070E0862F08958FE7089581E008958091A2
:104A50003A0380FF08C06091120170E07595679578
:104A60007595679521C081FF06C06091120170E0C5
:104A70007595679519C082FF04C06091120170E0BE
:104A800010C090913B039923C1F0609111019617DA
:104A9000A0F780911201899FC001112470E00E944B
:104AA000B8336038710528F46115710521F0862F3F
:104AB00008958FE7089581E0089561E070E0F4CFF4
:104AC000803F21F40E94DE24819504C0813F29F4B7
:104AD0000E94DE2480933E030895823F21F40E94C9
:104AE000DE24819504C0833F29F40E94DE24809354
:104AF0003D030895893F19F40E94272505C08A3F88
:104B000031F40E942725819580933F0308958B3FC0
:104B100021F40E942725819504C08C3F29F40E942E
:104B20002725809340030895843F21F480913C031E
:104B3000816017C0853F21F480913C03826011C0E1
:104B4000863F21F480913C0384600BC0873F21F4B1
:104B500080913C03886005C0883F31F480913C031C
:104B6000806180933C0308958D3F21F480913A0346
:104B700081600BC08E3F21F480913A03826005C0B2
:104B80008F3F29F480913A03846080933A0308951B
:104B9000803F39F480913E0387FF6CC010923E0342
:104BA00069C0813F29F480913E031816BCF362C0AE
:104BB00090913D03823F29F497FF5CC010923D0322
:104BC00059C0833F19F41916CCF354C0893F41F4FE
:104BD00080913F0318160CF04DC010923F034AC05D
:104BE0008A3F29F480913F0387FF44C0F6CF8B3F73
:104BF00039F48091400387FF3DC0109240033AC0D2
:104C00008C3F29F4809140031816BCF333C0843FD5
:104C100021F480913C038E7F17C0853F21F4809161
:104C20003C038D7F11C0863F21F480913C038B7F34
:104C30000BC0873F21F480913C03877F05C0883FEC
:104C400031F480913C038F7E80933C0313C08D3FF1
:104C500021F480913A038E7F0BC08E3F21F4809126
:104C60003A038D7F05C08F3F29F480913A038B7FF3
:104C700080933A0380913D0381110EC080913E03E1
:104C800081110AC080913F03811106C080914003C9
:104C9000811102C010923B0308958CE393E00E94BF
:104CA00025160E9437249093380380933703089584
:104CB0001F93CF93DF9380913703909138030E9425
:104CC0004324AC0190913B03992321F020911501DD
:104CD00030E006C0209139038AE0289F900111241A
:104CE0004217530708F47BC080913D03C0913E03F7
:104CF000D0913F0310914003811107C0C1116BC0D7
:104D0000D11169C0111167C06AC09F3F19F09F5F40
:104D100090933B03181624F40E94DE2480933D03F5
:104D200080913D0387FF05C00E94DE24819580931A
:104D30003D031C1624F40E94DE2480933E038091E0
:104D40003E0387FF05C00E94DE24819580933E03C9
:104D500030913D033323E1F020913E032223C1F043
:104D600045EB3403C0011124892F990F990B00974B
:104D700009F481E080933D0335EB2303C001112446
:104D8000892F990F990B009709F481E080933E03D6
:104D90001D1624F40E94272580933F0380913F0332
:104DA00087FF05C00E942725819580933F03111638
:104DB00024F40E942725809340038091400387FFBD
:104DC00005C00E942725819580934003DF91CF91F4
:104DD0001F910C944D269F3F09F099CFA1CFDF91F1
:104DE000CF911F910895ECE3F3E085E0DF011D9280
:104DF0008A95E9F710923B0310923A0308958330A5
:104E000081F128F4813059F08230D1F00895853055
:104E100009F449C0B8F1863009F456C0089580916C
:104E20003903262F30E0280F311D2F3F310524F4A0
:104E3000680F6093390308958FEF809339030895C5
:104E400080911501262F30E0280F311D2F3F3105AD
:104E500024F4680F6093150108958FEF8093150176
:104E6000089580911401262F30E0280F311D2F3F27
:104E7000310524F4680F6093140108958FEF809337
:104E80001401089580911301262F30E0280F311D61
:104E90002F3F310524F4680F6093130108958FEFBD
:104EA00080931301089580911201262F30E0280F7E
:104EB000311D2F3F310524F4680F609312010895CE
:104EC0008FEF80931201089580911101262F30E019
:104ED000280F311D2F3F310524F4680F6093110115
:104EE00008958FEF809311010895833011F128F414
:104EF000813049F0823091F00895853081F120F1C0
:104F00008630C1F1089580913903681720F4861B1B
:104F10008093390308951092390308958091150103
:104F2000681720F4861B80931501089510921501CF
:104F3000089580911401681720F4861B8093140152
:104F4000089510921401089580911301681720F4B8
:104F5000861B809313010895109213010895809188
:104F60001201681720F4861B809312010895109295
:104F70001201089580911101681720F4861B809317
:104F8000110108951092110108950F931F93873214
:104F900008F04DC08E3108F093C0803109F47DC017
:104FA00008F5873009F46BC068F4863009F0A3C0B7
:104FB00080913503817F8E7F8093350381E08093DC
:104FC00042039AC08B3009F48FC08E3009F093C031
:104FD0008091350382FB222720F991E0922790FBF4
:104FE00082F964C0863109F47FC088F4813109F008
:104FF00082C00E942E1C8091AE0387FB222720F9DD
:1050000091E0922790FB87F98093AE036DC08931C0
:1050100009F46AC08B3109F06EC08091350381FBC1
:10502000222720F991E0922790FB81F93FC0883335
:1050300009F45AC050F4893209F458C0853309F490
:1050400055C0873209F452C056C0833409F44EC0AB
:1050500028F48A3308F44FC0895333C0883409F0E8
:105060004AC00E942E1C0FEF13ED20E301501040A8
:105070002040E1F700C000000E94932435C08091D9
:105080003503982F9095917090FB80F980933503AC
:1050900091112AC0897F877F10C08091350383FBDF
:1050A000222720F991E0922790FB83F98093350322
:1050B0009923D1F08091350381608093350314C02A
:1050C0008D5141E050E060E070E08A019B0104C036
:1050D000000F111F221F331F8A95D2F7C901B80193
:1050E0000E9406200E942E1C81E006C061E070E054
:1050F00080E090E0F5CF80E01F910F91089580E06F
:10510000089580E008958E518A3030F4E82FF0E061
:10511000E753FE4F8081089580E00895CF93C82F14
:1051200080914203813079F018F08230E9F185C036
:10513000E0910F01F09110018081813169F082329C
:1051400009F07DC009C0E0910F01F091100180814C
:10515000813111F0823261F48C2F0E947F288111FD
:1051600004C08C2F0E94C5271DC081E090E01AC0AA
:105170008C2F0E948128811114C0C43179F048F429
:10518000CB3079F0C03109F05EC082E080934203F9
:1051900008C0C93219F0C83321F055C0109242033B
:1051A00052C081E0817051C0C93279F108F5C43133
:1051B00061F1A0F4C73009F044C01092390384E1D2
:1051C00080931501C09314018CE38093130188E050
:1051D0008093120188E28093110133C082EE8C0F1C
:1051E000863078F58C2F0E9483288093410329C054
:1051F000CE34E9F020F4CB3421F56AE013C0C13598
:1052000079F0C235F1F461E00DC08091410388234B
:1052100019F01092410315C081E08093420315C03C
:1052200061E006C0809141030E94FF260AC06AE047
:10523000809141030E94752704C01092420380E0D0
:1052400004C081E002C080E0ADCFCF91089580918D
:10525000630308950F931F93CF93DF9300D01F92A2
:10526000CDB7DEB78C010E94A22B823011F08430C2
:1052700019F593E099831B830A839093E9008FEFDC
:105280009091E800815095FD06C095ED9A95F1F753
:1052900000008111F5CF8091E80085FF0DC040E04E
:1052A00050E063E070E0CE0101960E94BF2B809138
:1052B000E8008E778093E8000F900F900F90DF91B9
:1052C000CF911F910F910895CF93DF9300D01F923C
:1052D000CDB7DEB72091B403243031F522E0298325
:1052E000805891099B838A8383E08093E9008FEF44
:1052F0009091E800815095FD06C095ED9A95F1F7E3
:1053000000008111F5CF8091E80085FF0DC040E0DD
:1053100050E063E070E0CE0101960E94BF2B8091C7
:10532000E8008E778093E8000F900F900F90DF9148
:10533000CF910895CF93DF93EC010E94A22B82308E
:1053400011F08430F9F482E08093E9009FEF8091BE
:10535000E800915085FD06C085ED8A95F1F70000C3
:105360009111F5CF8091E80085FF0CC040E050E03E
:1053700065E070E0CE010E94BF2B8091E8008E773F
:105380008093E800DF91CF910895CF93DF93EC01F4
:105390000E94A22B823019F0843009F047C080911E
:1053A00020018823E1F08091AE0387FF18C084E0DC
:1053B0008093E9008FEF9091E800815095FD06C041
:1053C00095E19A95F1F700008111F5CF8091E80001
:1053D00085FF2CC040E050E060E270E017C081E043
:1053E0008093E9008FEF9091E800815095FD06C011
:1053F00095ED9A95F1F700008111F5CF8091E800C5
:1054000085FF14C040E050E068E070E0CE010E94EB
:10541000BF2B8091E8008E778093E80080E2FE0148
:10542000A3E4B3E001900D928A95E1F7DF91CF916B
:1054300008958091B303811109C00E94542D0E94E8
:10544000B12D8091E20084608093E2000895109273
:10545000B3030895089508950C94FD2342E061EC90
:1054600081E00E94CE2C42E061EC82E00E94CE2CD2
:1054700042E061EC83E00E94CE2C42E261EC84E0E9
:105480000C94CE2C8091B603833009F455C030F4CF
:10549000813071F0823009F48EC008958A3009F4A9
:1054A0007AC08B3009F460C0893009F09CC020C0FC
:1054B0008091B503813A09F096C08091E800877F1A
:1054C0008093E8008091B9039091BA03892B21F46D
:1054D00060E283E493E003C060E080E090E070E08D
:1054E0000E940A2C8091E8008B778093E800089551
:1054F0008091B503813209F076C08091B903909113
:10550000BA03009719F0039709F06DC08091E80085
:10551000877F8093E8008091E80082FD05C080913C
:10552000B4038111F8CF5FC08091F10080936303D1
:105530008091E8008B7753C08091B503813A09F0E0
:1055400052C08091B9039091BA03892B09F04BC0E6
:105550008091E800877F8093E8008091E80080FFD9
:10556000FCCF8091200136C08091B5038132D9F5FE
:105570008091B9039091BA03892BA9F58091E80035
:10558000877F8093E8000E94032D8091B70380936A
:1055900020010C942E1C8091B503813221F580915D
:1055A000E800877F8093E8000E94032D8091B80374
:1055B0008093640308958091B503813AA1F48091AA
:1055C000E800877F8093E8008091E80080FFFCCFAF
:1055D000809164038093F1008091E8008E7780933E
:1055E000E8000C94032D089584B7877F84BF0FB61D
:1055F000F894A89580916000886180936000109273
:1056000060000FBE80E880936100109261000E94EC
:105610005D160E94542D0E94B12D8091E20084609D
:105620008093E20078940E9440300E94611686E1E7
:1056300091E00E9409168091B403853069F40E94BC
:10564000B5238091B2038823B1F30E94E623882317
:1056500091F30E94A92BEFCF0E946F160E940315B1
:10566000EACF0C94332B292F332723303105C9F08F
:1056700064F42130310581F02230310509F049C050
:105680008DE690E021EE36E048C02132310521F16F
:105690002232310571F13DC082E190E02EE437E025
:1056A0003CC099278130910571F02CF4892B89F544
:1056B000EDEDF6E00DC08230910541F0039749F51C
:1056C000E7EAF6E005C0E5ECF6E002C0EDEAF6E058
:1056D000849190E09F0121C064307105D0F4660F81
:1056E000771FFB01E152FE4F2081318189E090E07C
:1056F00014C06430710568F4FB01EE0FFF1FE9521E
:10570000FE4F20813181FB01ED52FE4F808190E000
:1057100004C080E090E020E030E0FA013183208393
:1057200008950895CF93C82F0E94912BC0936503CD
:10573000CF9108958091B403843011F081E00895F1
:1057400082E0089580916503811102C00C949A2B28
:10575000089580E189BD82E189BD09B400FEFDCFD5
:105760008091D8008F7D8093D8008091E000826086
:105770008093E0008091E00081FDFCCF0895CF92FE
:10578000DF92EF92FF920F931F93CF93DF93EC0181
:105790008B016A010E94222D811133C0C114D104F2
:1057A00039F0F60180819181081B190BC80FD91FB0
:1057B000E12CF12C0115110519F18091E80085FD0E
:1057C00016C08091E8008E778093E800C114D10460
:1057D00049F0F60180819181E80EF91EF182E082A4
:1057E00085E00FC00E94222D882321F30AC08991F1
:1057F0008093F10001501109FFEFEF1AFF0ADACF91
:1058000080E0DF91CF911F910F91FF90EF90DF909B
:10581000CF9008952091BB033091BC032617370722
:1058200048F06115710539F42091E8002E77209336
:10583000E80001C0B90140E061157105A9F12091AE
:10584000B403222309F443C0253009F442C0209157
:10585000E80023FD40C02091E80022FD32C02091E5
:10586000E80020FFE9CF4091F3002091F20030E002
:10587000342BFC01CF016115710559F02830310539
:1058800040F481918093F100615071092F5F3F4F87
:10589000F1CF41E02830310509F040E02091E800E7
:1058A0002E772093E800C8CF4111C9CF0AC080915C
:1058B000B403882361F0853061F08091E80083FDB6
:1058C0000AC08091E80082FFF2CF80E0089582E074
:1058D000089583E0089581E008952091BB033091FD
:1058E000BC032617370748F06115710539F420917C
:1058F000E8002E772093E80001C0B901FC0120E008
:105900006115710591F18091B403882309F440C0B9
:10591000853009F43FC08091E80083FD3DC080914F
:10592000E80082FD2FC08091E80080FFE9CF209140
:10593000F3008091F20090E0922B6115710559F00F
:105940008830910540F424912093F1003196615004
:1059500071090196F2CF21E0089709F020E08091CB
:10596000E8008E778093E800CBCF2111CCCF0AC01E
:105970008091B403882361F0853061F08091E80064
:1059800083FD0AC08091E80082FFF2CF80E0089595
:1059900082E0089583E0089581E00895982F97307C
:1059A00058F59093E900981739F07091EC00209128
:1059B000ED005091F00003C0242F762F50E021FF1E
:1059C00019C03091EB003E7F3093EB003091ED0039
:1059D0003D7F3093ED003091EB0031603093EB0070
:1059E0007093EC002093ED005093F0002091EE00B6
:1059F00027FF07C09F5FD3CF8F708093E90081E0BE
:105A0000089580E008958091B50387FF11C08091CB
:105A1000E80082FD05C08091B4038111F8CF11C068
:105A20008091E8008B770BC08091B403882349F004
:105A30008091E80080FFF8CF8091E8008E77809316
:105A4000E80008952091E4003091E50095E640914A
:105A5000EC00842F817040FF22C08091E80080FD1F
:105A60001CC08091B403882391F0853091F080911F
:105A7000EB0085FD10C04091E4005091E500421715
:105A8000530729F39A01915011F784E0089582E0B9
:105A9000089583E0089581E0089580E0089540919D
:105AA000E80042FFDECF08950E94C22D0E94CA2D59
:105AB000E0EEF0E0808181608083E8EDF0E08081BD
:105AC0008F77808319BCA7EDB0E08C918E7F8C938B
:105AD00080818F7E80831092B30308950F931F936C
